{"contracts/PredictionGame.sol":{"PredictionGame":{"abi":[{"inputs":[{"internalType":"address","name":"_token","type":"address"},{"internalType":"address","name":"_oracle","type":"address"}],"stateMutability":"nonpayable","type":"constructor"},{"inputs":[{"internalType":"address","name":"owner","type":"address"}],"name":"OwnableInvalidOwner","type":"error"},{"inputs":[{"internalType":"address","name":"account","type":"address"}],"name":"OwnableUnauthorizedAccount","type":"error"},{"inputs":[],"name":"ReentrancyGuardReentrantCall","type":"error"},{"anonymous":false,"inputs":[{"indexed":true,"internalType":"uint256","name":"roundId","type":"uint256"},{"indexed":true,"internalType":"address","name":"player","type":"address"},{"indexed":false,"internalType":"uint8","name":"prediction","type":"uint8"},{"indexed":false,"internalType":"uint256","name":"amount","type":"uint256"}],"name":"BetPlaced","type":"event"},{"anonymous":false,"inputs":[{"indexed":true,"internalType":"address","name":"owner","type":"address"},{"indexed":false,"internalType":"uint256","name":"amount","type":"uint256"}],"name":"FeesWithdrawn","type":"event"},{"anonymous":false,"inputs":[{"indexed":true,"internalType":"address","name":"previousOwner","type":"address"},{"indexed":true,"internalType":"address","name":"newOwner","type":"address"}],"name":"OwnershipTransferred","type":"event"},{"anonymous":false,"inputs":[{"indexed":true,"internalType":"uint256","name":"roundId","type":"uint256"},{"indexed":false,"internalType":"uint8","name":"result","type":"uint8"},{"indexed":false,"internalType":"uint256","name":"rate","type":"uint256"},{"indexed":false,"internalType":"uint256","name":"burned","type":"uint256"}],"name":"RoundClosed","type":"event"},{"anonymous":false,"inputs":[{"indexed":true,"internalType":"uint256","name":"roundId","type":"uint256"}],"name":"RoundRefunded","type":"event"},{"anonymous":false,"inputs":[{"indexed":true,"internalType":"uint256","name":"roundId","type":"uint256"},{"indexed":false,"internalType":"uint256","name":"startTime","type":"uint256"}],"name":"RoundStarted","type":"event"},{"anonymous":false,"inputs":[{"indexed":false,"internalType":"uint256","name":"amount","type":"uint256"},{"indexed":false,"internalType":"uint256","name":"totalBurned","type":"uint256"}],"name":"TokensBurned","type":"event"},{"anonymous":false,"inputs":[{"indexed":true,"internalType":"uint256","name":"roundId","type":"uint256"},{"indexed":true,"internalType":"address","name":"player","type":"address"},{"indexed":false,"internalType":"uint256","name":"amount","type":"uint256"}],"name":"WinningsClaimed","type":"event"},{"inputs":[],"name":"BURN","outputs":[{"internalType":"uint8","name":"","type":"uint8"}],"stateMutability":"view","type":"function"},{"inputs":[],"name":"DEAD_ADDRESS","outputs":[{"internalType":"address","name":"","type":"address"}],"stateMutability":"view","type":"function"},{"inputs":[],"name":"FEE_BURN","outputs":[{"internalType":"uint256","name":"","type":"uint256"}],"stateMutability":"view","type":"function"},{"inputs":[],"name":"FEE_DENOMINATOR","outputs":[{"internalType":"uint256","name":"","type":"uint256"}],"stateMutability":"view","type":"function"},{"inputs":[],"name":"FEE_OWNER","outputs":[{"internalType":"uint256","name":"","type":"uint256"}],"stateMutability":"view","type":"function"},{"inputs":[],"name":"FEE_TOTAL","outputs":[{"internalType":"uint256","name":"","type":"uint256"}],"stateMutability":"view","type":"function"},{"inputs":[],"name":"MINT","outputs":[{"internalType":"uint8","name":"","type":"uint8"}],"stateMutability":"view","type":"function"},{"inputs":[],"name":"NEUTRAL","outputs":[{"internalType":"uint8","name":"","type":"uint8"}],"stateMutability":"view","type":"function"},{"inputs":[{"internalType":"uint256","name":"","type":"uint256"},{"internalType":"address","name":"","type":"address"}],"name":"bets","outputs":[{"internalType":"uint256","name":"amount","type":"uint256"},{"internalType":"uint8","name":"prediction","type":"uint8"},{"internalType":"bool","name":"claimed","type":"bool"}],"stateMutability":"view","type":"function"},{"inputs":[{"internalType":"uint256","name":"roundId","type":"uint256"},{"internalType":"address","name":"player","type":"address"}],"name":"checkResult","outputs":[{"internalType":"bool","name":"participated","type":"bool"},{"internalType":"uint8","name":"prediction","type":"uint8"},{"internalType":"uint8","name":"result","type":"uint8"},{"internalType":"bool","name":"won","type":"bool"},{"internalType":"bool","name":"claimed","type":"bool"},{"internalType":"uint256","name":"potentialWinnings","type":"uint256"}],"stateMutability":"view","type":"function"},{"inputs":[{"internalType":"uint256","name":"roundId","type":"uint256"}],"name":"claimWinnings","outputs":[],"stateMutability":"nonpayable","type":"function"},{"inputs":[{"internalType":"uint8","name":"result","type":"uint8"},{"internalType":"uint256","name":"rate","type":"uint256"}],"name":"closeRound","outputs":[],"stateMutability":"nonpayable","type":"function"},{"inputs":[],"name":"currentRoundId","outputs":[{"internalType":"uint256","name":"","type":"uint256"}],"stateMutability":"view","type":"function"},{"inputs":[],"name":"getCurrentRound","outputs":[{"internalType":"uint256","name":"id","type":"uint256"},{"internalType":"uint256","name":"startTime","type":"uint256"},{"internalType":"uint256","name":"mintPool","type":"uint256"},{"internalType":"uint256","name":"burnPool","type":"uint256"},{"internalType":"uint256","name":"neutralPool","type":"uint256"},{"internalType":"bool","name":"closed","type":"bool"}],"stateMutability":"view","type":"function"},{"inputs":[],"name":"getGameStats","outputs":[{"internalType":"uint256","name":"totalRounds","type":"uint256"},{"internalType":"uint256","name":"pendingOwnerFees","type":"uint256"},{"internalType":"uint256","name":"tokensBurned","type":"uint256"},{"internalType":"uint256","name":"minimumBet","type":"uint256"}],"stateMutability":"view","type":"function"},{"inputs":[],"name":"minBet","outputs":[{"internalType":"uint256","name":"","type":"uint256"}],"stateMutability":"view","type":"function"},{"inputs":[],"name":"oracle","outputs":[{"internalType":"address","name":"","type":"address"}],"stateMutability":"view","type":"function"},{"inputs":[],"name":"owner","outputs":[{"internalType":"address","name":"","type":"address"}],"stateMutability":"view","type":"function"},{"inputs":[],"name":"ownerFees","outputs":[{"internalType":"uint256","name":"","type":"uint256"}],"stateMutability":"view","type":"function"},{"inputs":[{"internalType":"uint8","name":"prediction","type":"uint8"},{"internalType":"uint256","name":"amount","type":"uint256"}],"name":"placeBet","outputs":[],"stateMutability":"nonpayable","type":"function"},{"inputs":[{"internalType":"uint256","name":"roundId","type":"uint256"}],"name":"refundRound","outputs":[],"stateMutability":"nonpayable","type":"function"},{"inputs":[],"name":"renounceOwnership","outputs":[],"stateMutability":"nonpayable","type":"function"},{"inputs":[{"internalType":"uint256","name":"","type":"uint256"},{"internalType":"uint256","name":"","type":"uint256"}],"name":"roundPlayers","outputs":[{"internalType":"address","name":"","type":"address"}],"stateMutability":"view","type":"function"},{"inputs":[{"internalType":"uint256","name":"","type":"uint256"}],"name":"rounds","outputs":[{"internalType":"uint256","name":"id","type":"uint256"},{"internalType":"uint256","name":"startTime","type":"uint256"},{"internalType":"uint256","name":"endTime","type":"uint256"},{"internalType":"uint256","name":"mintPool","type":"uint256"},{"internalType":"uint256","name":"burnPool","type":"uint256"},{"internalType":"uint256","name":"neutralPool","type":"uint256"},{"internalType":"uint8","name":"result","type":"uint8"},{"internalType":"uint256","name":"rate","type":"uint256"},{"internalType":"bool","name":"closed","type":"bool"},{"internalType":"bool","name":"refunded","type":"bool"}],"stateMutability":"view","type":"function"},{"inputs":[],"name":"scndlToken","outputs":[{"internalType":"contract IERC20","name":"","type":"address"}],"stateMutability":"view","type":"function"},{"inputs":[{"internalType":"uint256","name":"_minBet","type":"uint256"}],"name":"setMinBet","outputs":[],"stateMutability":"nonpayable","type":"function"},{"inputs":[{"internalType":"address","name":"_oracle","type":"address"}],"name":"setOracle","outputs":[],"stateMutability":"nonpayable","type":"function"},{"inputs":[],"name":"totalBurned","outputs":[{"internalType":"uint256","name":"","type":"uint256"}],"stateMutability":"view","type":"function"},{"inputs":[{"internalType":"address","name":"newOwner","type":"address"}],"name":"transferOwnership","outputs":[],"stateMutability":"nonpayable","type":"function"},{"inputs":[],"name":"withdrawFees","outputs":[],"stateMutability":"nonpayable","type":"function"}],"evm":{"bytecode":{"linkReferences":{},"object":"6080604052683635c9adc5dea000006004553480156200001e57600080fd5b5060405162001c7d38038062001c7d8339810160408190526200004191620002e3565b33806200006957604051631e4fbdf760e01b8152600060048201526024015b60405180910390fd5b62000074816200014c565b50600180556001600160a01b038216620000c15760405162461bcd60e51b815260206004820152600d60248201526c24b73b30b634b2103a37b5b2b760991b604482015260640162000060565b6001600160a01b0381166200010a5760405162461bcd60e51b815260206004820152600e60248201526d496e76616c6964206f7261636c6560901b604482015260640162000060565b600280546001600160a01b038085166001600160a01b0319928316179092556003805492841692909116919091179055620001446200019c565b505062000343565b600080546001600160a01b038381166001600160a01b0319831681178455604051919092169283917f8be0079c531659141344cd1fd0a4f28419497f9722a3daafe3b4186f6b6457e09190a35050565b60058054906000620001ae836200031b565b90915550506040805161014081018252600580548083524260208085018281526000868801818152606088018281526080890183815260a08a0184815260c08b0185815260e08c01868152610100808e018881526101208f018981529c895260069a8b9052978f90209d518e55975160018e0155945160028d0155925160038c0155905160048b0155518989015551938801805460ff9590951660ff199590951694909417909355915160078701559051600890950180549351151590910261ff00199515159590951661ffff19909316929092179390931790555491517f278844837bcf8364a705384bf3a2812901f54155bae86dea81dd52aa5b9ec0e391620002bc9190815260200190565b60405180910390a2565b80516001600160a01b0381168114620002de57600080fd5b919050565b60008060408385031215620002f757600080fd5b6200030283620002c6565b91506200031260208401620002c6565b90509250929050565b6000600182016200033c57634e487b7160e01b600052601160045260246000fd5b5060010190565b61192a80620003536000396000f3fe608060405234801561001057600080fd5b50600436106101da5760003560e01c80637fb9c45f11610104578063a32bf597116100a2578063d89135cd11610071578063d89135cd146104cd578063dcb3b30e146104d6578063f2fde38b146104e9578063f644b3bb146104fc57600080fd5b8063a32bf5971461044e578063ad20daca146104b3578063c0a2526c146104bc578063d73792a9146104c457600080fd5b80638c65c81f116100de5780638c65c81f146103715780638da5cb5b1461042b5780639619367d1461043c5780639cbe5efd1461044557600080fd5b80637fb9c45f146102ff57806388ea41b91461034b578063898443d81461035e57600080fd5b80635443b1391161017c578063715018a61161014b578063715018a6146102c95780637adbf973146102d15780637b1f12a8146102e45780637dc0d1d0146102ec57600080fd5b80635443b1391461027d5780635e519ff614610290578063671eea01146102a3578063677bd9ff146102b657600080fd5b80633e36f4c7116101b85780633e36f4c71461022f578063476343ee1461024957806349edfb94146102535780634e6fd6c41461025c57600080fd5b80631aff30dd146101df57806324ba655614610210578063386cd8f114610226575b600080fd5b600554600954600a546004546040805194855260208501939093529183015260608201526080015b60405180910390f35b61021860c881565b604051908152602001610207565b61021860095481565b610237600181565b60405160ff9091168152602001610207565b610251610559565b005b61021861012c81565b61026561dead81565b6040516001600160a01b039091168152602001610207565b61025161028b366004611751565b6106d4565b61025161029e36600461176a565b6109a2565b6102656102b136600461179c565b610cc8565b6102516102c4366004611751565b610d00565b610251611052565b6102516102df3660046117da565b611066565b610237600381565b600354610265906001600160a01b031681565b61031261030d3660046117fc565b6110d7565b60408051961515875260ff95861660208801529390941692850192909252151560608401521515608083015260a082015260c001610207565b610251610359366004611751565b61121a565b600254610265906001600160a01b031681565b6103da61037f366004611751565b600660208190526000918252604090912080546001820154600283015460038401546004850154600586015496860154600787015460089097015495979496939592949193919260ff9182169291818116916101009004168a565b604080519a8b5260208b0199909952978901969096526060880194909452608087019290925260a086015260ff1660c085015260e08401521515610100830152151561012082015261014001610207565b6000546001600160a01b0316610265565b61021860045481565b61021860055481565b60058054600090815260066020526040902080546001820154600383015460048401549484015460089094015492949193909260ff166040805196875260208701959095529385019290925260608401526080830152151560a082015260c001610207565b6102186101f481565b610237600281565b61021861271081565b610218600a5481565b6102516104e436600461176a565b611227565b6102516104f73660046117da565b611548565b61053a61050a3660046117fc565b60076020908152600092835260408084209091529082529020805460019091015460ff8082169161010090041683565b6040805193845260ff9092166020840152151590820152606001610207565b610561611583565b600954806105ac5760405162461bcd60e51b81526020600482015260136024820152724e6f206665657320746f20776974686472617760681b60448201526064015b60405180910390fd5b60006009556002546001600160a01b031663a9059cbb6105d46000546001600160a01b031690565b6040516001600160e01b031960e084901b1681526001600160a01b039091166004820152602481018490526044016020604051808303816000875af1158015610621573d6000803e3d6000fd5b505050506040513d601f19601f820116820180604052508101906106459190611828565b6106835760405162461bcd60e51b815260206004820152600f60248201526e15da5d1a191c985dc819985a5b1959608a1b60448201526064016105a3565b6000546001600160a01b03166001600160a01b03167fc0819c13be868895eb93e40eaceb96de976442fa1d404e5c55f14bb65a8c489a826040516106c991815260200190565b60405180910390a250565b6003546001600160a01b0316331461071c5760405162461bcd60e51b815260206004820152600b60248201526a4f6e6c79206f7261636c6560a81b60448201526064016105a3565b60008181526006602052604090206008810154610100900460ff16156107775760405162461bcd60e51b815260206004820152601060248201526f105b1c9958591e481c99599d5b99195960821b60448201526064016105a3565b6008818101805461ffff191661010117905560008381526020918252604080822080548251818602810186019093528083529293919290918301828280156107e857602002820191906000526020600020905b81546001600160a01b031681526001909101906020018083116107ca575b5050505050905060005b81518110156109715760008481526007602052604081208351829085908590811061081f5761081f61184a565b60200260200101516001600160a01b03166001600160a01b0316815260200190815260200160002090506000816000015411801561086757506001810154610100900460ff16155b1561095e5760018101805461ff00191661010017905560025483516001600160a01b039091169063a9059cbb908590859081106108a6576108a661184a565b602090810291909101015183546040516001600160e01b031960e085901b1681526001600160a01b03909216600483015260248201526044016020604051808303816000875af11580156108fe573d6000803e3d6000fd5b505050506040513d601f19601f820116820180604052508101906109229190611828565b61095e5760405162461bcd60e51b815260206004820152600d60248201526c1499599d5b990819985a5b1959609a1b60448201526064016105a3565b508061096981611876565b9150506107f2565b5060405183907f28846375d91adf0298632299641880d604604ddfbba9fd4f773bbbc56a9cabc090600090a2505050565b6003546001600160a01b031633146109ea5760405162461bcd60e51b815260206004820152600b60248201526a4f6e6c79206f7261636c6560a81b60448201526064016105a3565b600160ff831610801590610a025750600360ff831611155b610a3f5760405162461bcd60e51b815260206004820152600e60248201526d125b9d985b1a59081c995cdd5b1d60921b60448201526064016105a3565b6005546000908152600660205260409020600881015460ff1615610a965760405162461bcd60e51b815260206004820152600e60248201526d105b1c9958591e4818db1bdcd95960921b60448201526064016105a3565b60068101805460ff851660ff199182161790915560078201839055426002830155600882018054909116600117905560058101546004820154600383015460009291610ae19161188f565b610aeb919061188f565b90508015610c4b576000612710610b0461012c846118a8565b610b0e91906118bf565b90508060096000828254610b22919061188f565b9091555060009050612710610b3860c8856118a8565b610b4291906118bf565b60025460405163a9059cbb60e01b815261dead6004820152602481018390529192506001600160a01b03169063a9059cbb906044016020604051808303816000875af1158015610b96573d6000803e3d6000fd5b505050506040513d601f19601f82011682018060405250810190610bba9190611828565b610bf45760405162461bcd60e51b815260206004820152600b60248201526a109d5c9b8819985a5b195960aa1b60448201526064016105a3565b80600a6000828254610c06919061188f565b9091555050600a546040805183815260208101929092527f8bc81353cf6671d259d22783e39ed930583c86f3f4cf7e981298e6a872dfb15d910160405180910390a150505b6005547f6712e35c977dd8c0303770a7f50624654fff97897c7ba31ffdfc1eda1d0366c6858560008511610c80576000610c98565b612710610c8e60c8876118a8565b610c9891906118bf565b6040805160ff909416845260208401929092529082015260600160405180910390a2610cc26115b0565b50505050565b60086020528160005260406000208181548110610ce457600080fd5b6000918252602090912001546001600160a01b03169150829050565b610d086116d7565b6000818152600660205260409020600881015460ff16610d5d5760405162461bcd60e51b815260206004820152601060248201526f149bdd5b99081b9bdd0818db1bdcd95960821b60448201526064016105a3565b6008810154610100900460ff1615610dac5760405162461bcd60e51b8152602060048201526012602482015271149bdd5b99081dd85cc81c99599d5b99195960721b60448201526064016105a3565b600082815260076020908152604080832033845290915290208054610e025760405162461bcd60e51b815260206004820152600c60248201526b139bc818995d08199bdd5b9960a21b60448201526064016105a3565b6001810154610100900460ff1615610e4e5760405162461bcd60e51b815260206004820152600f60248201526e105b1c9958591e4818db185a5b5959608a1b60448201526064016105a3565b6006820154600182015460ff908116911614610e9a5760405162461bcd60e51b815260206004820152600b60248201526a2234b2103737ba103bb4b760a91b60448201526064016105a3565b60018101805461ff00191661010017905560058201546004830154600384015460009291610ec79161188f565b610ed1919061188f565b90506000612710610ee46101f4846118a8565b610eee91906118bf565b610ef890836118e1565b600685015490915060009060ff1660001901610f1957506003840154610f3b565b600685015460ff1660011901610f3457506004840154610f3b565b5060058401545b600081838660000154610f4e91906118a8565b610f5891906118bf565b60025460405163a9059cbb60e01b8152336004820152602481018390529192506001600160a01b03169063a9059cbb906044016020604051808303816000875af1158015610faa573d6000803e3d6000fd5b505050506040513d601f19601f82011682018060405250810190610fce9190611828565b6110095760405162461bcd60e51b815260206004820152600c60248201526b10db185a5b4819985a5b195960a21b60448201526064016105a3565b604051818152339088907f5380cf6fe903b40c6d5a9e0dfbca2f3a423f0a21520b4d5947ed5169bdba946d9060200160405180910390a350505050505061104f60018055565b50565b61105a611583565b6110646000611701565b565b61106e611583565b6001600160a01b0381166110b55760405162461bcd60e51b815260206004820152600e60248201526d496e76616c6964206f7261636c6560901b60448201526064016105a3565b600380546001600160a01b0319166001600160a01b0392909216919091179055565b6000828152600660208181526040808420600783528185206001600160a01b03871686529092528320805460018201549383015460088401549115159560ff958616959182169490938493849316801561113f57506006820154600182015460ff9081169116145b6001820154909550610100900460ff16935084801561115c575083155b1561120e57600082600501548360040154846003015461117c919061188f565b611186919061188f565b905060006127106111996101f4846118a8565b6111a391906118bf565b6111ad90836118e1565b600685015490915060009060ff166001146111e557600685015460ff166002146111db5784600501546111eb565b84600401546111eb565b84600301545b9050808285600001546111fe91906118a8565b61120891906118bf565b95505050505b50509295509295509295565b611222611583565b600455565b61122f6116d7565b6004548110156112815760405162461bcd60e51b815260206004820152601e60248201527f42657420746f6f20736d616c6c20286d696e20313030302053434e444c29000060448201526064016105a3565b600160ff8316108015906112995750600360ff831611155b6112da5760405162461bcd60e51b815260206004820152601260248201527124b73b30b634b210383932b234b1ba34b7b760711b60448201526064016105a3565b6005546000908152600660205260409020600881015460ff161561132f5760405162461bcd60e51b815260206004820152600c60248201526b149bdd5b990818db1bdcd95960a21b60448201526064016105a3565b600554600090815260076020908152604080832033845290915290208054156113935760405162461bcd60e51b8152602060048201526016602482015275105b1c9958591e4818995d081d1a1a5cc81c9bdd5b9960521b60448201526064016105a3565b6002546040516323b872dd60e01b8152336004820152306024820152604481018590526001600160a01b03909116906323b872dd906064016020604051808303816000875af11580156113ea573d6000803e3d6000fd5b505050506040513d601f19601f8201168201806040525081019061140e9190611828565b61144c5760405162461bcd60e51b815260206004820152600f60248201526e151c985b9cd9995c8819985a5b1959608a1b60448201526064016105a3565b8281556001808201805460ff871660ff19909116811790915560055460009081526008602090815260408220805494850181558252902090910180546001600160a01b03191633179055600019016114bd57828260030160008282546114b2919061188f565b909155506114f79050565b60011960ff8516016114dd57828260040160008282546114b2919061188f565b828260050160008282546114f1919061188f565b90915550505b6005546040805160ff87168152602081018690523392917f4f1eed5e863a822b0f9eb960dfdab2cc5a99beec4b191f2a7a9c7e28e5a15524910160405180910390a3505061154460018055565b5050565b611550611583565b6001600160a01b03811661157a57604051631e4fbdf760e01b8152600060048201526024016105a3565b61104f81611701565b6000546001600160a01b031633146110645760405163118cdaa760e01b81523360048201526024016105a3565b600580549060006115c083611876565b90915550506040805161014081018252600580548083524260208085018281526000868801818152606088018281526080890183815260a08a0184815260c08b0185815260e08c01868152610100808e018881526101208f018981529c895260069a8b9052978f90209d518e55975160018e0155945160028d0155925160038c0155905160048b0155518989015551938801805460ff9590951660ff199590951694909417909355915160078701559051600890950180549351151590910261ff00199515159590951661ffff19909316929092179390931790555491517f278844837bcf8364a705384bf3a2812901f54155bae86dea81dd52aa5b9ec0e3916116cd9190815260200190565b60405180910390a2565b6002600154036116fa57604051633ee5aeb560e01b815260040160405180910390fd5b6002600155565b600080546001600160a01b038381166001600160a01b0319831681178455604051919092169283917f8be0079c531659141344cd1fd0a4f28419497f9722a3daafe3b4186f6b6457e09190a35050565b60006020828403121561176357600080fd5b5035919050565b6000806040838503121561177d57600080fd5b823560ff8116811461178e57600080fd5b946020939093013593505050565b600080604083850312156117af57600080fd5b50508035926020909101359150565b80356001600160a01b03811681146117d557600080fd5b919050565b6000602082840312156117ec57600080fd5b6117f5826117be565b9392505050565b6000806040838503121561180f57600080fd5b8235915061181f602084016117be565b90509250929050565b60006020828403121561183a57600080fd5b815180151581146117f557600080fd5b634e487b7160e01b600052603260045260246000fd5b634e487b7160e01b600052601160045260246000fd5b60006001820161188857611888611860565b5060010190565b808201808211156118a2576118a2611860565b92915050565b80820281158282048414176118a2576118a2611860565b6000826118dc57634e487b7160e01b600052601260045260246000fd5b500490565b818103818111156118a2576118a261186056fea26469706673582212205dc4c5cca7380ec0ad4ba082954b3c92358afc91b20ceef1ea2d51355e3e21c464736f6c63430008140033","opcodes":"PUSH1 0x80 PUSH1 0x40 MSTORE PUSH9 0x3635C9ADC5DEA00000 PUSH1 0x4 SSTORE CALLVALUE DUP1 ISZERO PUSH3 0x1E JUMPI PUSH1 0x0 DUP1 REVERT JUMPDEST POP PUSH1 0x40 MLOAD PUSH3 0x1C7D CODESIZE SUB DUP1 PUSH3 0x1C7D DUP4 CODECOPY DUP2 ADD PUSH1 0x40 DUP2 SWAP1 MSTORE PUSH3 0x41 SWAP2 PUSH3 0x2E3 JUMP JUMPDEST CALLER DUP1 PUSH3 0x69 JUMPI PUSH1 0x40 MLOAD PUSH4 0x1E4FBDF7 PUSH1 0xE0 SHL DUP2 MSTORE PUSH1 0x0 PUSH1 0x4 DUP3 ADD MSTORE PUSH1 0x24 ADD JUMPDEST PUSH1 0x40 MLOAD DUP1 SWAP2 SUB SWAP1 REVERT JUMPDEST PUSH3 0x74 DUP2 PUSH3 0x14C JUMP JUMPDEST POP PUSH1 0x1 DUP1 SSTORE PUSH1 0x1 PUSH1 0x1 PUSH1 0xA0 SHL SUB DUP3 AND PUSH3 0xC1 JUMPI PUSH1 0x40 MLOAD PUSH3 0x461BCD PUSH1 0xE5 SHL DUP2 MSTORE PUSH1 0x20 PUSH1 0x4 DUP3 ADD MSTORE PUSH1 0xD PUSH1 0x24 DUP3 ADD MSTORE PUSH13 0x24B73B30B634B2103A37B5B2B7 PUSH1 0x99 SHL PUSH1 0x44 DUP3 ADD MSTORE PUSH1 0x64 ADD PUSH3 0x60 JUMP JUMPDEST PUSH1 0x1 PUSH1 0x1 PUSH1 0xA0 SHL SUB DUP2 AND PUSH3 0x10A JUMPI PUSH1 0x40 MLOAD PUSH3 0x461BCD PUSH1 0xE5 SHL DUP2 MSTORE PUSH1 0x20 PUSH1 0x4 DUP3 ADD MSTORE PUSH1 0xE PUSH1 0x24 DUP3 ADD MSTORE PUSH14 0x496E76616C6964206F7261636C65 PUSH1 0x90 SHL PUSH1 0x44 DUP3 ADD MSTORE PUSH1 0x64 ADD PUSH3 0x60 JUMP JUMPDEST PUSH1 0x2 DUP1 SLOAD PUSH1 0x1 PUSH1 0x1 PUSH1 0xA0 SHL SUB DUP1 DUP6 AND PUSH1 0x1 PUSH1 0x1 PUSH1 0xA0 SHL SUB NOT SWAP3 DUP4 AND OR SWAP1 SWAP3 SSTORE PUSH1 0x3 DUP1 SLOAD SWAP3 DUP5 AND SWAP3 SWAP1 SWAP2 AND SWAP2 SWAP1 SWAP2 OR SWAP1 SSTORE PUSH3 0x144 PUSH3 0x19C JUMP JUMPDEST POP POP PUSH3 0x343 JUMP JUMPDEST PUSH1 0x0 DUP1 SLOAD PUSH1 0x1 PUSH1 0x1 PUSH1 0xA0 SHL SUB DUP4 DUP2 AND PUSH1 0x1 PUSH1 0x1 PUSH1 0xA0 SHL SUB NOT DUP4 AND DUP2 OR DUP5 SSTORE PUSH1 0x40 MLOAD SWAP2 SWAP1 SWAP3 AND SWAP3 DUP4 SWAP2 PUSH32 0x8BE0079C531659141344CD1FD0A4F28419497F9722A3DAAFE3B4186F6B6457E0 SWAP2 SWAP1 LOG3 POP POP JUMP JUMPDEST PUSH1 0x5 DUP1 SLOAD SWAP1 PUSH1 0x0 PUSH3 0x1AE DUP4 PUSH3 0x31B JUMP JUMPDEST SWAP1 SWAP2 SSTORE POP POP PUSH1 0x40 DUP1 MLOAD PUSH2 0x140 DUP2 ADD DUP3 MSTORE PUSH1 0x5 DUP1 SLOAD DUP1 DUP4 MSTORE TIMESTAMP PUSH1 0x20 DUP1 DUP6 ADD DUP3 DUP2 MSTORE PUSH1 0x0 DUP7 DUP9 ADD DUP2 DUP2 MSTORE PUSH1 0x60 DUP9 ADD DUP3 DUP2 MSTORE PUSH1 0x80 DUP10 ADD DUP4 DUP2 MSTORE PUSH1 0xA0 DUP11 ADD DUP5 DUP2 MSTORE PUSH1 0xC0 DUP12 ADD DUP6 DUP2 MSTORE PUSH1 0xE0 DUP13 ADD DUP7 DUP2 MSTORE PUSH2 0x100 DUP1 DUP15 ADD DUP9 DUP2 MSTORE PUSH2 0x120 DUP16 ADD DUP10 DUP2 MSTORE SWAP13 DUP10 MSTORE PUSH1 0x6 SWAP11 DUP12 SWAP1 MSTORE SWAP8 DUP16 SWAP1 KECCAK256 SWAP14 MLOAD DUP15 SSTORE SWAP8 MLOAD PUSH1 0x1 DUP15 ADD SSTORE SWAP5 MLOAD PUSH1 0x2 DUP14 ADD SSTORE SWAP3 MLOAD PUSH1 0x3 DUP13 ADD SSTORE SWAP1 MLOAD PUSH1 0x4 DUP12 ADD SSTORE MLOAD DUP10 DUP10 ADD SSTORE MLOAD SWAP4 DUP9 ADD DUP1 SLOAD PUSH1 0xFF SWAP6 SWAP1 SWAP6 AND PUSH1 0xFF NOT SWAP6 SWAP1 SWAP6 AND SWAP5 SWAP1 SWAP5 OR SWAP1 SWAP4 SSTORE SWAP2 MLOAD PUSH1 0x7 DUP8 ADD SSTORE SWAP1 MLOAD PUSH1 0x8 SWAP1 SWAP6 ADD DUP1 SLOAD SWAP4 MLOAD ISZERO ISZERO SWAP1 SWAP2 MUL PUSH2 0xFF00 NOT SWAP6 ISZERO ISZERO SWAP6 SWAP1 SWAP6 AND PUSH2 0xFFFF NOT SWAP1 SWAP4 AND SWAP3 SWAP1 SWAP3 OR SWAP4 SWAP1 SWAP4 OR SWAP1 SSTORE SLOAD SWAP2 MLOAD PUSH32 0x278844837BCF8364A705384BF3A2812901F54155BAE86DEA81DD52AA5B9EC0E3 SWAP2 PUSH3 0x2BC SWAP2 SWAP1 DUP2 MSTORE PUSH1 0x20 ADD SWAP1 JUMP JUMPDEST PUSH1 0x40 MLOAD DUP1 SWAP2 SUB SWAP1 LOG2 JUMP JUMPDEST DUP1 MLOAD PUSH1 0x1 PUSH1 0x1 PUSH1 0xA0 SHL SUB DUP2 AND DUP2 EQ PUSH3 0x2DE JUMPI PUSH1 0x0 DUP1 REVERT JUMPDEST SWAP2 SWAP1 POP JUMP JUMPDEST PUSH1 0x0 DUP1 PUSH1 0x40 DUP4 DUP6 SUB SLT ISZERO PUSH3 0x2F7 JUMPI PUSH1 0x0 DUP1 REVERT JUMPDEST PUSH3 0x302 DUP4 PUSH3 0x2C6 JUMP JUMPDEST SWAP2 POP PUSH3 0x312 PUSH1 0x20 DUP5 ADD PUSH3 0x2C6 JUMP JUMPDEST SWAP1 POP SWAP3 POP SWAP3 SWAP1 POP JUMP JUMPDEST PUSH1 0x0 PUSH1 0x1 DUP3 ADD PUSH3 0x33C JUMPI PUSH4 0x4E487B71 PUSH1 0xE0 SHL PUSH1 0x0 MSTORE PUSH1 0x11 PUSH1 0x4 MSTORE PUSH1 0x24 PUSH1 0x0 REVERT JUMPDEST POP PUSH1 0x1 ADD SWAP1 JUMP JUMPDEST PUSH2 0x192A DUP1 PUSH3 0x353 PUSH1 0x0 CODECOPY PUSH1 0x0 RETURN INVALID PUSH1 0x80 PUSH1 0x40 MSTORE CALLVALUE DUP1 ISZERO PUSH2 0x10 JUMPI PUSH1 0x0 DUP1 REVERT JUMPDEST POP PUSH1 0x4 CALLDATASIZE LT PUSH2 0x1DA JUMPI PUSH1 0x0 CALLDATALOAD PUSH1 0xE0 SHR DUP1 PUSH4 0x7FB9C45F GT PUSH2 0x104 JUMPI DUP1 PUSH4 0xA32BF597 GT PUSH2 0xA2 JUMPI DUP1 PUSH4 0xD89135CD GT PUSH2 0x71 JUMPI DUP1 PUSH4 0xD89135CD EQ PUSH2 0x4CD JUMPI DUP1 PUSH4 0xDCB3B30E EQ PUSH2 0x4D6 JUMPI DUP1 PUSH4 0xF2FDE38B EQ PUSH2 0x4E9 JUMPI DUP1 PUSH4 0xF644B3BB EQ PUSH2 0x4FC JUMPI PUSH1 0x0 DUP1 REVERT JUMPDEST DUP1 PUSH4 0xA32BF597 EQ PUSH2 0x44E JUMPI DUP1 PUSH4 0xAD20DACA EQ PUSH2 0x4B3 JUMPI DUP1 PUSH4 0xC0A2526C EQ PUSH2 0x4BC JUMPI DUP1 PUSH4 0xD73792A9 EQ PUSH2 0x4C4 JUMPI PUSH1 0x0 DUP1 REVERT JUMPDEST DUP1 PUSH4 0x8C65C81F GT PUSH2 0xDE JUMPI DUP1 PUSH4 0x8C65C81F EQ PUSH2 0x371 JUMPI DUP1 PUSH4 0x8DA5CB5B EQ PUSH2 0x42B JUMPI DUP1 PUSH4 0x9619367D EQ PUSH2 0x43C JUMPI DUP1 PUSH4 0x9CBE5EFD EQ PUSH2 0x445 JUMPI PUSH1 0x0 DUP1 REVERT JUMPDEST DUP1 PUSH4 0x7FB9C45F EQ PUSH2 0x2FF JUMPI DUP1 PUSH4 0x88EA41B9 EQ PUSH2 0x34B JUMPI DUP1 PUSH4 0x898443D8 EQ PUSH2 0x35E JUMPI PUSH1 0x0 DUP1 REVERT JUMPDEST DUP1 PUSH4 0x5443B139 GT PUSH2 0x17C JUMPI DUP1 PUSH4 0x715018A6 GT PUSH2 0x14B JUMPI DUP1 PUSH4 0x715018A6 EQ PUSH2 0x2C9 JUMPI DUP1 PUSH4 0x7ADBF973 EQ PUSH2 0x2D1 JUMPI DUP1 PUSH4 0x7B1F12A8 EQ PUSH2 0x2E4 JUMPI DUP1 PUSH4 0x7DC0D1D0 EQ PUSH2 0x2EC JUMPI PUSH1 0x0 DUP1 REVERT JUMPDEST DUP1 PUSH4 0x5443B139 EQ PUSH2 0x27D JUMPI DUP1 PUSH4 0x5E519FF6 EQ PUSH2 0x290 JUMPI DUP1 PUSH4 0x671EEA01 EQ PUSH2 0x2A3 JUMPI DUP1 PUSH4 0x677BD9FF EQ PUSH2 0x2B6 JUMPI PUSH1 0x0 DUP1 REVERT JUMPDEST DUP1 PUSH4 0x3E36F4C7 GT PUSH2 0x1B8 JUMPI DUP1 PUSH4 0x3E36F4C7 EQ PUSH2 0x22F JUMPI DUP1 PUSH4 0x476343EE EQ PUSH2 0x249 JUMPI DUP1 PUSH4 0x49EDFB94 EQ PUSH2 0x253 JUMPI DUP1 PUSH4 0x4E6FD6C4 EQ PUSH2 0x25C JUMPI PUSH1 0x0 DUP1 REVERT JUMPDEST DUP1 PUSH4 0x1AFF30DD EQ PUSH2 0x1DF JUMPI DUP1 PUSH4 0x24BA6556 EQ PUSH2 0x210 JUMPI DUP1 PUSH4 0x386CD8F1 EQ PUSH2 0x226 JUMPI JUMPDEST PUSH1 0x0 DUP1 REVERT JUMPDEST PUSH1 0x5 SLOAD PUSH1 0x9 SLOAD PUSH1 0xA SLOAD PUSH1 0x4 SLOAD PUSH1 0x40 DUP1 MLOAD SWAP5 DUP6 MSTORE PUSH1 0x20 DUP6 ADD SWAP4 SWAP1 SWAP4 MSTORE SWAP2 DUP4 ADD MSTORE PUSH1 0x60 DUP3 ADD MSTORE PUSH1 0x80 ADD JUMPDEST PUSH1 0x40 MLOAD DUP1 SWAP2 SUB SWAP1 RETURN JUMPDEST PUSH2 0x218 PUSH1 0xC8 DUP2 JUMP JUMPDEST PUSH1 0x40 MLOAD SWAP1 DUP2 MSTORE PUSH1 0x20 ADD PUSH2 0x207 JUMP JUMPDEST PUSH2 0x218 PUSH1 0x9 SLOAD DUP2 JUMP JUMPDEST PUSH2 0x237 PUSH1 0x1 DUP2 JUMP JUMPDEST PUSH1 0x40 MLOAD PUSH1 0xFF SWAP1 SWAP2 AND DUP2 MSTORE PUSH1 0x20 ADD PUSH2 0x207 JUMP JUMPDEST PUSH2 0x251 PUSH2 0x559 JUMP JUMPDEST STOP JUMPDEST PUSH2 0x218 PUSH2 0x12C DUP2 JUMP JUMPDEST PUSH2 0x265 PUSH2 0xDEAD DUP2 JUMP JUMPDEST PUSH1 0x40 MLOAD PUSH1 0x1 PUSH1 0x1 PUSH1 0xA0 SHL SUB SWAP1 SWAP2 AND DUP2 MSTORE PUSH1 0x20 ADD PUSH2 0x207 JUMP JUMPDEST PUSH2 0x251 PUSH2 0x28B CALLDATASIZE PUSH1 0x4 PUSH2 0x1751 JUMP JUMPDEST PUSH2 0x6D4 JUMP JUMPDEST PUSH2 0x251 PUSH2 0x29E CALLDATASIZE PUSH1 0x4 PUSH2 0x176A JUMP JUMPDEST PUSH2 0x9A2 JUMP JUMPDEST PUSH2 0x265 PUSH2 0x2B1 CALLDATASIZE PUSH1 0x4 PUSH2 0x179C JUMP JUMPDEST PUSH2 0xCC8 JUMP JUMPDEST PUSH2 0x251 PUSH2 0x2C4 CALLDATASIZE PUSH1 0x4 PUSH2 0x1751 JUMP JUMPDEST PUSH2 0xD00 JUMP JUMPDEST PUSH2 0x251 PUSH2 0x1052 JUMP JUMPDEST PUSH2 0x251 PUSH2 0x2DF CALLDATASIZE PUSH1 0x4 PUSH2 0x17DA JUMP JUMPDEST PUSH2 0x1066 JUMP JUMPDEST PUSH2 0x237 PUSH1 0x3 DUP2 JUMP JUMPDEST PUSH1 0x3 SLOAD PUSH2 0x265 SWAP1 PUSH1 0x1 PUSH1 0x1 PUSH1 0xA0 SHL SUB AND DUP2 JUMP JUMPDEST PUSH2 0x312 PUSH2 0x30D CALLDATASIZE PUSH1 0x4 PUSH2 0x17FC JUMP JUMPDEST PUSH2 0x10D7 JUMP JUMPDEST PUSH1 0x40 DUP1 MLOAD SWAP7 ISZERO ISZERO DUP8 MSTORE PUSH1 0xFF SWAP6 DUP7 AND PUSH1 0x20 DUP9 ADD MSTORE SWAP4 SWAP1 SWAP5 AND SWAP3 DUP6 ADD SWAP3 SWAP1 SWAP3 MSTORE ISZERO ISZERO PUSH1 0x60 DUP5 ADD MSTORE ISZERO ISZERO PUSH1 0x80 DUP4 ADD MSTORE PUSH1 0xA0 DUP3 ADD MSTORE PUSH1 0xC0 ADD PUSH2 0x207 JUMP JUMPDEST PUSH2 0x251 PUSH2 0x359 CALLDATASIZE PUSH1 0x4 PUSH2 0x1751 JUMP JUMPDEST PUSH2 0x121A JUMP JUMPDEST PUSH1 0x2 SLOAD PUSH2 0x265 SWAP1 PUSH1 0x1 PUSH1 0x1 PUSH1 0xA0 SHL SUB AND DUP2 JUMP JUMPDEST PUSH2 0x3DA PUSH2 0x37F CALLDATASIZE PUSH1 0x4 PUSH2 0x1751 JUMP JUMPDEST PUSH1 0x6 PUSH1 0x20 DUP2 SWAP1 MSTORE PUSH1 0x0 SWAP2 DUP3 MSTORE PUSH1 0x40 SWAP1 SWAP2 KECCAK256 DUP1 SLOAD PUSH1 0x1 DUP3 ADD SLOAD PUSH1 0x2 DUP4 ADD SLOAD PUSH1 0x3 DUP5 ADD SLOAD PUSH1 0x4 DUP6 ADD SLOAD PUSH1 0x5 DUP7 ADD SLOAD SWAP7 DUP7 ADD SLOAD PUSH1 0x7 DUP8 ADD SLOAD PUSH1 0x8 SWAP1 SWAP8 ADD SLOAD SWAP6 SWAP8 SWAP5 SWAP7 SWAP4 SWAP6 SWAP3 SWAP5 SWAP2 SWAP4 SWAP2 SWAP3 PUSH1 0xFF SWAP2 DUP3 AND SWAP3 SWAP2 DUP2 DUP2 AND SWAP2 PUSH2 0x100 SWAP1 DIV AND DUP11 JUMP JUMPDEST PUSH1 0x40 DUP1 MLOAD SWAP11 DUP12 MSTORE PUSH1 0x20 DUP12 ADD SWAP10 SWAP1 SWAP10 MSTORE SWAP8 DUP10 ADD SWAP7 SWAP1 SWAP7 MSTORE PUSH1 0x60 DUP9 ADD SWAP5 SWAP1 SWAP5 MSTORE PUSH1 0x80 DUP8 ADD SWAP3 SWAP1 SWAP3 MSTORE PUSH1 0xA0 DUP7 ADD MSTORE PUSH1 0xFF AND PUSH1 0xC0 DUP6 ADD MSTORE PUSH1 0xE0 DUP5 ADD MSTORE ISZERO ISZERO PUSH2 0x100 DUP4 ADD MSTORE ISZERO ISZERO PUSH2 0x120 DUP3 ADD MSTORE PUSH2 0x140 ADD PUSH2 0x207 JUMP JUMPDEST PUSH1 0x0 SLOAD PUSH1 0x1 PUSH1 0x1 PUSH1 0xA0 SHL SUB AND PUSH2 0x265 JUMP JUMPDEST PUSH2 0x218 PUSH1 0x4 SLOAD DUP2 JUMP JUMPDEST PUSH2 0x218 PUSH1 0x5 SLOAD DUP2 JUMP JUMPDEST PUSH1 0x5 DUP1 SLOAD PUSH1 0x0 SWAP1 DUP2 MSTORE PUSH1 0x6 PUSH1 0x20 MSTORE PUSH1 0x40 SWAP1 KECCAK256 DUP1 SLOAD PUSH1 0x1 DUP3 ADD SLOAD PUSH1 0x3 DUP4 ADD SLOAD PUSH1 0x4 DUP5 ADD SLOAD SWAP5 DUP5 ADD SLOAD PUSH1 0x8 SWAP1 SWAP5 ADD SLOAD SWAP3 SWAP5 SWAP2 SWAP4 SWAP1 SWAP3 PUSH1 0xFF AND PUSH1 0x40 DUP1 MLOAD SWAP7 DUP8 MSTORE PUSH1 0x20 DUP8 ADD SWAP6 SWAP1 SWAP6 MSTORE SWAP4 DUP6 ADD SWAP3 SWAP1 SWAP3 MSTORE PUSH1 0x60 DUP5 ADD MSTORE PUSH1 0x80 DUP4 ADD MSTORE ISZERO ISZERO PUSH1 0xA0 DUP3 ADD MSTORE PUSH1 0xC0 ADD PUSH2 0x207 JUMP JUMPDEST PUSH2 0x218 PUSH2 0x1F4 DUP2 JUMP JUMPDEST PUSH2 0x237 PUSH1 0x2 DUP2 JUMP JUMPDEST PUSH2 0x218 PUSH2 0x2710 DUP2 JUMP JUMPDEST PUSH2 0x218 PUSH1 0xA SLOAD DUP2 JUMP JUMPDEST PUSH2 0x251 PUSH2 0x4E4 CALLDATASIZE PUSH1 0x4 PUSH2 0x176A JUMP JUMPDEST PUSH2 0x1227 JUMP JUMPDEST PUSH2 0x251 PUSH2 0x4F7 CALLDATASIZE PUSH1 0x4 PUSH2 0x17DA JUMP JUMPDEST PUSH2 0x1548 JUMP JUMPDEST PUSH2 0x53A PUSH2 0x50A CALLDATASIZE PUSH1 0x4 PUSH2 0x17FC JUMP JUMPDEST PUSH1 0x7 PUSH1 0x20 SWAP1 DUP2 MSTORE PUSH1 0x0 SWAP3 DUP4 MSTORE PUSH1 0x40 DUP1 DUP5 KECCAK256 SWAP1 SWAP2 MSTORE SWAP1 DUP3 MSTORE SWAP1 KECCAK256 DUP1 SLOAD PUSH1 0x1 SWAP1 SWAP2 ADD SLOAD PUSH1 0xFF DUP1 DUP3 AND SWAP2 PUSH2 0x100 SWAP1 DIV AND DUP4 JUMP JUMPDEST PUSH1 0x40 DUP1 MLOAD SWAP4 DUP5 MSTORE PUSH1 0xFF SWAP1 SWAP3 AND PUSH1 0x20 DUP5 ADD MSTORE ISZERO ISZERO SWAP1 DUP3 ADD MSTORE PUSH1 0x60 ADD PUSH2 0x207 JUMP JUMPDEST PUSH2 0x561 PUSH2 0x1583 JUMP JUMPDEST PUSH1 0x9 SLOAD DUP1 PUSH2 0x5AC JUMPI PUSH1 0x40 MLOAD PUSH3 0x461BCD PUSH1 0xE5 SHL DUP2 MSTORE PUSH1 0x20 PUSH1 0x4 DUP3 ADD MSTORE PUSH1 0x13 PUSH1 0x24 DUP3 ADD MSTORE PUSH19 0x4E6F206665657320746F207769746864726177 PUSH1 0x68 SHL PUSH1 0x44 DUP3 ADD MSTORE PUSH1 0x64 ADD JUMPDEST PUSH1 0x40 MLOAD DUP1 SWAP2 SUB SWAP1 REVERT JUMPDEST PUSH1 0x0 PUSH1 0x9 SSTORE PUSH1 0x2 SLOAD PUSH1 0x1 PUSH1 0x1 PUSH1 0xA0 SHL SUB AND PUSH4 0xA9059CBB PUSH2 0x5D4 PUSH1 0x0 SLOAD PUSH1 0x1 PUSH1 0x1 PUSH1 0xA0 SHL SUB AND SWAP1 JUMP JUMPDEST PUSH1 0x40 MLOAD PUSH1 0x1 PUSH1 0x1 PUSH1 0xE0 SHL SUB NOT PUSH1 0xE0 DUP5 SWAP1 SHL AND DUP2 MSTORE PUSH1 0x1 PUSH1 0x1 PUSH1 0xA0 SHL SUB SWAP1 SWAP2 AND PUSH1 0x4 DUP3 ADD MSTORE PUSH1 0x24 DUP2 ADD DUP5 SWAP1 MSTORE PUSH1 0x44 ADD PUSH1 0x20 PUSH1 0x40 MLOAD DUP1 DUP4 SUB DUP2 PUSH1 0x0 DUP8 GAS CALL ISZERO DUP1 ISZERO PUSH2 0x621 JUMPI RETURNDATASIZE PUSH1 0x0 DUP1 RETURNDATACOPY RETURNDATASIZE PUSH1 0x0 REVERT JUMPDEST POP POP POP POP PUSH1 0x40 MLOAD RETURNDATASIZE PUSH1 0x1F NOT PUSH1 0x1F DUP3 ADD AND DUP3 ADD DUP1 PUSH1 0x40 MSTORE POP DUP2 ADD SWAP1 PUSH2 0x645 SWAP2 SWAP1 PUSH2 0x1828 JUMP JUMPDEST PUSH2 0x683 JUMPI PUSH1 0x40 MLOAD PUSH3 0x461BCD PUSH1 0xE5 SHL DUP2 MSTORE PUSH1 0x20 PUSH1 0x4 DUP3 ADD MSTORE PUSH1 0xF PUSH1 0x24 DUP3 ADD MSTORE PUSH15 0x15DA5D1A191C985DC819985A5B1959 PUSH1 0x8A SHL PUSH1 0x44 DUP3 ADD MSTORE PUSH1 0x64 ADD PUSH2 0x5A3 JUMP JUMPDEST PUSH1 0x0 SLOAD PUSH1 0x1 PUSH1 0x1 PUSH1 0xA0 SHL SUB AND PUSH1 0x1 PUSH1 0x1 PUSH1 0xA0 SHL SUB AND PUSH32 0xC0819C13BE868895EB93E40EACEB96DE976442FA1D404E5C55F14BB65A8C489A DUP3 PUSH1 0x40 MLOAD PUSH2 0x6C9 SWAP2 DUP2 MSTORE PUSH1 0x20 ADD SWAP1 JUMP JUMPDEST PUSH1 0x40 MLOAD DUP1 SWAP2 SUB SWAP1 LOG2 POP JUMP JUMPDEST PUSH1 0x3 SLOAD PUSH1 0x1 PUSH1 0x1 PUSH1 0xA0 SHL SUB AND CALLER EQ PUSH2 0x71C JUMPI PUSH1 0x40 MLOAD PUSH3 0x461BCD PUSH1 0xE5 SHL DUP2 MSTORE PUSH1 0x20 PUSH1 0x4 DUP3 ADD MSTORE PUSH1 0xB PUSH1 0x24 DUP3 ADD MSTORE PUSH11 0x4F6E6C79206F7261636C65 PUSH1 0xA8 SHL PUSH1 0x44 DUP3 ADD MSTORE PUSH1 0x64 ADD PUSH2 0x5A3 JUMP JUMPDEST PUSH1 0x0 DUP2 DUP2 MSTORE PUSH1 0x6 PUSH1 0x20 MSTORE PUSH1 0x40 SWAP1 KECCAK256 PUSH1 0x8 DUP2 ADD SLOAD PUSH2 0x100 SWAP1 DIV PUSH1 0xFF AND ISZERO PUSH2 0x777 JUMPI PUSH1 0x40 MLOAD PUSH3 0x461BCD PUSH1 0xE5 SHL DUP2 MSTORE PUSH1 0x20 PUSH1 0x4 DUP3 ADD MSTORE PUSH1 0x10 PUSH1 0x24 DUP3 ADD MSTORE PUSH16 0x105B1C9958591E481C99599D5B991959 PUSH1 0x82 SHL PUSH1 0x44 DUP3 ADD MSTORE PUSH1 0x64 ADD PUSH2 0x5A3 JUMP JUMPDEST PUSH1 0x8 DUP2 DUP2 ADD DUP1 SLOAD PUSH2 0xFFFF NOT AND PUSH2 0x101 OR SWAP1 SSTORE PUSH1 0x0 DUP4 DUP2 MSTORE PUSH1 0x20 SWAP2 DUP3 MSTORE PUSH1 0x40 DUP1 DUP3 KECCAK256 DUP1 SLOAD DUP3 MLOAD DUP2 DUP7 MUL DUP2 ADD DUP7 ADD SWAP1 SWAP4 MSTORE DUP1 DUP4 MSTORE SWAP3 SWAP4 SWAP2 SWAP3 SWAP1 SWAP2 DUP4 ADD DUP3 DUP3 DUP1 ISZERO PUSH2 0x7E8 JUMPI PUSH1 0x20 MUL DUP3 ADD SWAP2 SWAP1 PUSH1 0x0 MSTORE PUSH1 0x20 PUSH1 0x0 KECCAK256 SWAP1 JUMPDEST DUP2 SLOAD PUSH1 0x1 PUSH1 0x1 PUSH1 0xA0 SHL SUB AND DUP2 MSTORE PUSH1 0x1 SWAP1 SWAP2 ADD SWAP1 PUSH1 0x20 ADD DUP1 DUP4 GT PUSH2 0x7CA JUMPI JUMPDEST POP POP POP POP POP SWAP1 POP PUSH1 0x0 JUMPDEST DUP2 MLOAD DUP2 LT ISZERO PUSH2 0x971 JUMPI PUSH1 0x0 DUP5 DUP2 MSTORE PUSH1 0x7 PUSH1 0x20 MSTORE PUSH1 0x40 DUP2 KECCAK256 DUP4 MLOAD DUP3 SWAP1 DUP6 SWAP1 DUP6 SWAP1 DUP2 LT PUSH2 0x81F JUMPI PUSH2 0x81F PUSH2 0x184A JUMP JUMPDEST PUSH1 0x20 MUL PUSH1 0x20 ADD ADD MLOAD PUSH1 0x1 PUSH1 0x1 PUSH1 0xA0 SHL SUB AND PUSH1 0x1 PUSH1 0x1 PUSH1 0xA0 SHL SUB AND DUP2 MSTORE PUSH1 0x20 ADD SWAP1 DUP2 MSTORE PUSH1 0x20 ADD PUSH1 0x0 KECCAK256 SWAP1 POP PUSH1 0x0 DUP2 PUSH1 0x0 ADD SLOAD GT DUP1 ISZERO PUSH2 0x867 JUMPI POP PUSH1 0x1 DUP2 ADD SLOAD PUSH2 0x100 SWAP1 DIV PUSH1 0xFF AND ISZERO JUMPDEST ISZERO PUSH2 0x95E JUMPI PUSH1 0x1 DUP2 ADD DUP1 SLOAD PUSH2 0xFF00 NOT AND PUSH2 0x100 OR SWAP1 SSTORE PUSH1 0x2 SLOAD DUP4 MLOAD PUSH1 0x1 PUSH1 0x1 PUSH1 0xA0 SHL SUB SWAP1 SWAP2 AND SWAP1 PUSH4 0xA9059CBB SWAP1 DUP6 SWAP1 DUP6 SWAP1 DUP2 LT PUSH2 0x8A6 JUMPI PUSH2 0x8A6 PUSH2 0x184A JUMP JUMPDEST PUSH1 0x20 SWAP1 DUP2 MUL SWAP2 SWAP1 SWAP2 ADD ADD MLOAD DUP4 SLOAD PUSH1 0x40 MLOAD PUSH1 0x1 PUSH1 0x1 PUSH1 0xE0 SHL SUB NOT PUSH1 0xE0 DUP6 SWAP1 SHL AND DUP2 MSTORE PUSH1 0x1 PUSH1 0x1 PUSH1 0xA0 SHL SUB SWAP1 SWAP3 AND PUSH1 0x4 DUP4 ADD MSTORE PUSH1 0x24 DUP3 ADD MSTORE PUSH1 0x44 ADD PUSH1 0x20 PUSH1 0x40 MLOAD DUP1 DUP4 SUB DUP2 PUSH1 0x0 DUP8 GAS CALL ISZERO DUP1 ISZERO PUSH2 0x8FE JUMPI RETURNDATASIZE PUSH1 0x0 DUP1 RETURNDATACOPY RETURNDATASIZE PUSH1 0x0 REVERT JUMPDEST POP POP POP POP PUSH1 0x40 MLOAD RETURNDATASIZE PUSH1 0x1F NOT PUSH1 0x1F DUP3 ADD AND DUP3 ADD DUP1 PUSH1 0x40 MSTORE POP DUP2 ADD SWAP1 PUSH2 0x922 SWAP2 SWAP1 PUSH2 0x1828 JUMP JUMPDEST PUSH2 0x95E JUMPI PUSH1 0x40 MLOAD PUSH3 0x461BCD PUSH1 0xE5 SHL DUP2 MSTORE PUSH1 0x20 PUSH1 0x4 DUP3 ADD MSTORE PUSH1 0xD PUSH1 0x24 DUP3 ADD MSTORE PUSH13 0x1499599D5B990819985A5B1959 PUSH1 0x9A SHL PUSH1 0x44 DUP3 ADD MSTORE PUSH1 0x64 ADD PUSH2 0x5A3 JUMP JUMPDEST POP DUP1 PUSH2 0x969 DUP2 PUSH2 0x1876 JUMP JUMPDEST SWAP2 POP POP PUSH2 0x7F2 JUMP JUMPDEST POP PUSH1 0x40 MLOAD DUP4 SWAP1 PUSH32 0x28846375D91ADF0298632299641880D604604DDFBBA9FD4F773BBBC56A9CABC0 SWAP1 PUSH1 0x0 SWAP1 LOG2 POP POP POP JUMP JUMPDEST PUSH1 0x3 SLOAD PUSH1 0x1 PUSH1 0x1 PUSH1 0xA0 SHL SUB AND CALLER EQ PUSH2 0x9EA JUMPI PUSH1 0x40 MLOAD PUSH3 0x461BCD PUSH1 0xE5 SHL DUP2 MSTORE PUSH1 0x20 PUSH1 0x4 DUP3 ADD MSTORE PUSH1 0xB PUSH1 0x24 DUP3 ADD MSTORE PUSH11 0x4F6E6C79206F7261636C65 PUSH1 0xA8 SHL PUSH1 0x44 DUP3 ADD MSTORE PUSH1 0x64 ADD PUSH2 0x5A3 JUMP JUMPDEST PUSH1 0x1 PUSH1 0xFF DUP4 AND LT DUP1 ISZERO SWAP1 PUSH2 0xA02 JUMPI POP PUSH1 0x3 PUSH1 0xFF DUP4 AND GT ISZERO JUMPDEST PUSH2 0xA3F JUMPI PUSH1 0x40 MLOAD PUSH3 0x461BCD PUSH1 0xE5 SHL DUP2 MSTORE PUSH1 0x20 PUSH1 0x4 DUP3 ADD MSTORE PUSH1 0xE PUSH1 0x24 DUP3 ADD MSTORE PUSH14 0x125B9D985B1A59081C995CDD5B1D PUSH1 0x92 SHL PUSH1 0x44 DUP3 ADD MSTORE PUSH1 0x64 ADD PUSH2 0x5A3 JUMP JUMPDEST PUSH1 0x5 SLOAD PUSH1 0x0 SWAP1 DUP2 MSTORE PUSH1 0x6 PUSH1 0x20 MSTORE PUSH1 0x40 SWAP1 KECCAK256 PUSH1 0x8 DUP2 ADD SLOAD PUSH1 0xFF AND ISZERO PUSH2 0xA96 JUMPI PUSH1 0x40 MLOAD PUSH3 0x461BCD PUSH1 0xE5 SHL DUP2 MSTORE PUSH1 0x20 PUSH1 0x4 DUP3 ADD MSTORE PUSH1 0xE PUSH1 0x24 DUP3 ADD MSTORE PUSH14 0x105B1C9958591E4818DB1BDCD959 PUSH1 0x92 SHL PUSH1 0x44 DUP3 ADD MSTORE PUSH1 0x64 ADD PUSH2 0x5A3 JUMP JUMPDEST PUSH1 0x6 DUP2 ADD DUP1 SLOAD PUSH1 0xFF DUP6 AND PUSH1 0xFF NOT SWAP2 DUP3 AND OR SWAP1 SWAP2 SSTORE PUSH1 0x7 DUP3 ADD DUP4 SWAP1 SSTORE TIMESTAMP PUSH1 0x2 DUP4 ADD SSTORE PUSH1 0x8 DUP3 ADD DUP1 SLOAD SWAP1 SWAP2 AND PUSH1 0x1 OR SWAP1 SSTORE PUSH1 0x5 DUP2 ADD SLOAD PUSH1 0x4 DUP3 ADD SLOAD PUSH1 0x3 DUP4 ADD SLOAD PUSH1 0x0 SWAP3 SWAP2 PUSH2 0xAE1 SWAP2 PUSH2 0x188F JUMP JUMPDEST PUSH2 0xAEB SWAP2 SWAP1 PUSH2 0x188F JUMP JUMPDEST SWAP1 POP DUP1 ISZERO PUSH2 0xC4B JUMPI PUSH1 0x0 PUSH2 0x2710 PUSH2 0xB04 PUSH2 0x12C DUP5 PUSH2 0x18A8 JUMP JUMPDEST PUSH2 0xB0E SWAP2 SWAP1 PUSH2 0x18BF JUMP JUMPDEST SWAP1 POP DUP1 PUSH1 0x9 PUSH1 0x0 DUP3 DUP3 SLOAD PUSH2 0xB22 SWAP2 SWAP1 PUSH2 0x188F JUMP JUMPDEST SWAP1 SWAP2 SSTORE POP PUSH1 0x0 SWAP1 POP PUSH2 0x2710 PUSH2 0xB38 PUSH1 0xC8 DUP6 PUSH2 0x18A8 JUMP JUMPDEST PUSH2 0xB42 SWAP2 SWAP1 PUSH2 0x18BF JUMP JUMPDEST PUSH1 0x2 SLOAD PUSH1 0x40 MLOAD PUSH4 0xA9059CBB PUSH1 0xE0 SHL DUP2 MSTORE PUSH2 0xDEAD PUSH1 0x4 DUP3 ADD MSTORE PUSH1 0x24 DUP2 ADD DUP4 SWAP1 MSTORE SWAP2 SWAP3 POP PUSH1 0x1 PUSH1 0x1 PUSH1 0xA0 SHL SUB AND SWAP1 PUSH4 0xA9059CBB SWAP1 PUSH1 0x44 ADD PUSH1 0x20 PUSH1 0x40 MLOAD DUP1 DUP4 SUB DUP2 PUSH1 0x0 DUP8 GAS CALL ISZERO DUP1 ISZERO PUSH2 0xB96 JUMPI RETURNDATASIZE PUSH1 0x0 DUP1 RETURNDATACOPY RETURNDATASIZE PUSH1 0x0 REVERT JUMPDEST POP POP POP POP PUSH1 0x40 MLOAD RETURNDATASIZE PUSH1 0x1F NOT PUSH1 0x1F DUP3 ADD AND DUP3 ADD DUP1 PUSH1 0x40 MSTORE POP DUP2 ADD SWAP1 PUSH2 0xBBA SWAP2 SWAP1 PUSH2 0x1828 JUMP JUMPDEST PUSH2 0xBF4 JUMPI PUSH1 0x40 MLOAD PUSH3 0x461BCD PUSH1 0xE5 SHL DUP2 MSTORE PUSH1 0x20 PUSH1 0x4 DUP3 ADD MSTORE PUSH1 0xB PUSH1 0x24 DUP3 ADD MSTORE PUSH11 0x109D5C9B8819985A5B1959 PUSH1 0xAA SHL PUSH1 0x44 DUP3 ADD MSTORE PUSH1 0x64 ADD PUSH2 0x5A3 JUMP JUMPDEST DUP1 PUSH1 0xA PUSH1 0x0 DUP3 DUP3 SLOAD PUSH2 0xC06 SWAP2 SWAP1 PUSH2 0x188F JUMP JUMPDEST SWAP1 SWAP2 SSTORE POP POP PUSH1 0xA SLOAD PUSH1 0x40 DUP1 MLOAD DUP4 DUP2 MSTORE PUSH1 0x20 DUP2 ADD SWAP3 SWAP1 SWAP3 MSTORE PUSH32 0x8BC81353CF6671D259D22783E39ED930583C86F3F4CF7E981298E6A872DFB15D SWAP2 ADD PUSH1 0x40 MLOAD DUP1 SWAP2 SUB SWAP1 LOG1 POP POP JUMPDEST PUSH1 0x5 SLOAD PUSH32 0x6712E35C977DD8C0303770A7F50624654FFF97897C7BA31FFDFC1EDA1D0366C6 DUP6 DUP6 PUSH1 0x0 DUP6 GT PUSH2 0xC80 JUMPI PUSH1 0x0 PUSH2 0xC98 JUMP JUMPDEST PUSH2 0x2710 PUSH2 0xC8E PUSH1 0xC8 DUP8 PUSH2 0x18A8 JUMP JUMPDEST PUSH2 0xC98 SWAP2 SWAP1 PUSH2 0x18BF JUMP JUMPDEST PUSH1 0x40 DUP1 MLOAD PUSH1 0xFF SWAP1 SWAP5 AND DUP5 MSTORE PUSH1 0x20 DUP5 ADD SWAP3 SWAP1 SWAP3 MSTORE SWAP1 DUP3 ADD MSTORE PUSH1 0x60 ADD PUSH1 0x40 MLOAD DUP1 SWAP2 SUB SWAP1 LOG2 PUSH2 0xCC2 PUSH2 0x15B0 JUMP JUMPDEST POP POP POP POP JUMP JUMPDEST PUSH1 0x8 PUSH1 0x20 MSTORE DUP2 PUSH1 0x0 MSTORE PUSH1 0x40 PUSH1 0x0 KECCAK256 DUP2 DUP2 SLOAD DUP2 LT PUSH2 0xCE4 JUMPI PUSH1 0x0 DUP1 REVERT JUMPDEST PUSH1 0x0 SWAP2 DUP3 MSTORE PUSH1 0x20 SWAP1 SWAP2 KECCAK256 ADD SLOAD PUSH1 0x1 PUSH1 0x1 PUSH1 0xA0 SHL SUB AND SWAP2 POP DUP3 SWAP1 POP JUMP JUMPDEST PUSH2 0xD08 PUSH2 0x16D7 JUMP JUMPDEST PUSH1 0x0 DUP2 DUP2 MSTORE PUSH1 0x6 PUSH1 0x20 MSTORE PUSH1 0x40 SWAP1 KECCAK256 PUSH1 0x8 DUP2 ADD SLOAD PUSH1 0xFF AND PUSH2 0xD5D JUMPI PUSH1 0x40 MLOAD PUSH3 0x461BCD PUSH1 0xE5 SHL DUP2 MSTORE PUSH1 0x20 PUSH1 0x4 DUP3 ADD MSTORE PUSH1 0x10 PUSH1 0x24 DUP3 ADD MSTORE PUSH16 0x149BDD5B99081B9BDD0818DB1BDCD959 PUSH1 0x82 SHL PUSH1 0x44 DUP3 ADD MSTORE PUSH1 0x64 ADD PUSH2 0x5A3 JUMP JUMPDEST PUSH1 0x8 DUP2 ADD SLOAD PUSH2 0x100 SWAP1 DIV PUSH1 0xFF AND ISZERO PUSH2 0xDAC JUMPI PUSH1 0x40 MLOAD PUSH3 0x461BCD PUSH1 0xE5 SHL DUP2 MSTORE PUSH1 0x20 PUSH1 0x4 DUP3 ADD MSTORE PUSH1 0x12 PUSH1 0x24 DUP3 ADD MSTORE PUSH18 0x149BDD5B99081DD85CC81C99599D5B991959 PUSH1 0x72 SHL PUSH1 0x44 DUP3 ADD MSTORE PUSH1 0x64 ADD PUSH2 0x5A3 JUMP JUMPDEST PUSH1 0x0 DUP3 DUP2 MSTORE PUSH1 0x7 PUSH1 0x20 SWAP1 DUP2 MSTORE PUSH1 0x40 DUP1 DUP4 KECCAK256 CALLER DUP5 MSTORE SWAP1 SWAP2 MSTORE SWAP1 KECCAK256 DUP1 SLOAD PUSH2 0xE02 JUMPI PUSH1 0x40 MLOAD PUSH3 0x461BCD PUSH1 0xE5 SHL DUP2 MSTORE PUSH1 0x20 PUSH1 0x4 DUP3 ADD MSTORE PUSH1 0xC PUSH1 0x24 DUP3 ADD MSTORE PUSH12 0x139BC818995D08199BDD5B99 PUSH1 0xA2 SHL PUSH1 0x44 DUP3 ADD MSTORE PUSH1 0x64 ADD PUSH2 0x5A3 JUMP JUMPDEST PUSH1 0x1 DUP2 ADD SLOAD PUSH2 0x100 SWAP1 DIV PUSH1 0xFF AND ISZERO PUSH2 0xE4E JUMPI PUSH1 0x40 MLOAD PUSH3 0x461BCD PUSH1 0xE5 SHL DUP2 MSTORE PUSH1 0x20 PUSH1 0x4 DUP3 ADD MSTORE PUSH1 0xF PUSH1 0x24 DUP3 ADD MSTORE PUSH15 0x105B1C9958591E4818DB185A5B5959 PUSH1 0x8A SHL PUSH1 0x44 DUP3 ADD MSTORE PUSH1 0x64 ADD PUSH2 0x5A3 JUMP JUMPDEST PUSH1 0x6 DUP3 ADD SLOAD PUSH1 0x1 DUP3 ADD SLOAD PUSH1 0xFF SWAP1 DUP2 AND SWAP2 AND EQ PUSH2 0xE9A JUMPI PUSH1 0x40 MLOAD PUSH3 0x461BCD PUSH1 0xE5 SHL DUP2 MSTORE PUSH1 0x20 PUSH1 0x4 DUP3 ADD MSTORE PUSH1 0xB PUSH1 0x24 DUP3 ADD MSTORE PUSH11 0x2234B2103737BA103BB4B7 PUSH1 0xA9 SHL PUSH1 0x44 DUP3 ADD MSTORE PUSH1 0x64 ADD PUSH2 0x5A3 JUMP JUMPDEST PUSH1 0x1 DUP2 ADD DUP1 SLOAD PUSH2 0xFF00 NOT AND PUSH2 0x100 OR SWAP1 SSTORE PUSH1 0x5 DUP3 ADD SLOAD PUSH1 0x4 DUP4 ADD SLOAD PUSH1 0x3 DUP5 ADD SLOAD PUSH1 0x0 SWAP3 SWAP2 PUSH2 0xEC7 SWAP2 PUSH2 0x188F JUMP JUMPDEST PUSH2 0xED1 SWAP2 SWAP1 PUSH2 0x188F JUMP JUMPDEST SWAP1 POP PUSH1 0x0 PUSH2 0x2710 PUSH2 0xEE4 PUSH2 0x1F4 DUP5 PUSH2 0x18A8 JUMP JUMPDEST PUSH2 0xEEE SWAP2 SWAP1 PUSH2 0x18BF JUMP JUMPDEST PUSH2 0xEF8 SWAP1 DUP4 PUSH2 0x18E1 JUMP JUMPDEST PUSH1 0x6 DUP6 ADD SLOAD SWAP1 SWAP2 POP PUSH1 0x0 SWAP1 PUSH1 0xFF AND PUSH1 0x0 NOT ADD PUSH2 0xF19 JUMPI POP PUSH1 0x3 DUP5 ADD SLOAD PUSH2 0xF3B JUMP JUMPDEST PUSH1 0x6 DUP6 ADD SLOAD PUSH1 0xFF AND PUSH1 0x1 NOT ADD PUSH2 0xF34 JUMPI POP PUSH1 0x4 DUP5 ADD SLOAD PUSH2 0xF3B JUMP JUMPDEST POP PUSH1 0x5 DUP5 ADD SLOAD JUMPDEST PUSH1 0x0 DUP2 DUP4 DUP7 PUSH1 0x0 ADD SLOAD PUSH2 0xF4E SWAP2 SWAP1 PUSH2 0x18A8 JUMP JUMPDEST PUSH2 0xF58 SWAP2 SWAP1 PUSH2 0x18BF JUMP JUMPDEST PUSH1 0x2 SLOAD PUSH1 0x40 MLOAD PUSH4 0xA9059CBB PUSH1 0xE0 SHL DUP2 MSTORE CALLER PUSH1 0x4 DUP3 ADD MSTORE PUSH1 0x24 DUP2 ADD DUP4 SWAP1 MSTORE SWAP2 SWAP3 POP PUSH1 0x1 PUSH1 0x1 PUSH1 0xA0 SHL SUB AND SWAP1 PUSH4 0xA9059CBB SWAP1 PUSH1 0x44 ADD PUSH1 0x20 PUSH1 0x40 MLOAD DUP1 DUP4 SUB DUP2 PUSH1 0x0 DUP8 GAS CALL ISZERO DUP1 ISZERO PUSH2 0xFAA JUMPI RETURNDATASIZE PUSH1 0x0 DUP1 RETURNDATACOPY RETURNDATASIZE PUSH1 0x0 REVERT JUMPDEST POP POP POP POP PUSH1 0x40 MLOAD RETURNDATASIZE PUSH1 0x1F NOT PUSH1 0x1F DUP3 ADD AND DUP3 ADD DUP1 PUSH1 0x40 MSTORE POP DUP2 ADD SWAP1 PUSH2 0xFCE SWAP2 SWAP1 PUSH2 0x1828 JUMP JUMPDEST PUSH2 0x1009 JUMPI PUSH1 0x40 MLOAD PUSH3 0x461BCD PUSH1 0xE5 SHL DUP2 MSTORE PUSH1 0x20 PUSH1 0x4 DUP3 ADD MSTORE PUSH1 0xC PUSH1 0x24 DUP3 ADD MSTORE PUSH12 0x10DB185A5B4819985A5B1959 PUSH1 0xA2 SHL PUSH1 0x44 DUP3 ADD MSTORE PUSH1 0x64 ADD PUSH2 0x5A3 JUMP JUMPDEST PUSH1 0x40 MLOAD DUP2 DUP2 MSTORE CALLER SWAP1 DUP9 SWAP1 PUSH32 0x5380CF6FE903B40C6D5A9E0DFBCA2F3A423F0A21520B4D5947ED5169BDBA946D SWAP1 PUSH1 0x20 ADD PUSH1 0x40 MLOAD DUP1 SWAP2 SUB SWAP1 LOG3 POP POP POP POP POP POP PUSH2 0x104F PUSH1 0x1 DUP1 SSTORE JUMP JUMPDEST POP JUMP JUMPDEST PUSH2 0x105A PUSH2 0x1583 JUMP JUMPDEST PUSH2 0x1064 PUSH1 0x0 PUSH2 0x1701 JUMP JUMPDEST JUMP JUMPDEST PUSH2 0x106E PUSH2 0x1583 JUMP JUMPDEST PUSH1 0x1 PUSH1 0x1 PUSH1 0xA0 SHL SUB DUP2 AND PUSH2 0x10B5 JUMPI PUSH1 0x40 MLOAD PUSH3 0x461BCD PUSH1 0xE5 SHL DUP2 MSTORE PUSH1 0x20 PUSH1 0x4 DUP3 ADD MSTORE PUSH1 0xE PUSH1 0x24 DUP3 ADD MSTORE PUSH14 0x496E76616C6964206F7261636C65 PUSH1 0x90 SHL PUSH1 0x44 DUP3 ADD MSTORE PUSH1 0x64 ADD PUSH2 0x5A3 JUMP JUMPDEST PUSH1 0x3 DUP1 SLOAD PUSH1 0x1 PUSH1 0x1 PUSH1 0xA0 SHL SUB NOT AND PUSH1 0x1 PUSH1 0x1 PUSH1 0xA0 SHL SUB SWAP3 SWAP1 SWAP3 AND SWAP2 SWAP1 SWAP2 OR SWAP1 SSTORE JUMP JUMPDEST PUSH1 0x0 DUP3 DUP2 MSTORE PUSH1 0x6 PUSH1 0x20 DUP2 DUP2 MSTORE PUSH1 0x40 DUP1 DUP5 KECCAK256 PUSH1 0x7 DUP4 MSTORE DUP2 DUP6 KECCAK256 PUSH1 0x1 PUSH1 0x1 PUSH1 0xA0 SHL SUB DUP8 AND DUP7 MSTORE SWAP1 SWAP3 MSTORE DUP4 KECCAK256 DUP1 SLOAD PUSH1 0x1 DUP3 ADD SLOAD SWAP4 DUP4 ADD SLOAD PUSH1 0x8 DUP5 ADD SLOAD SWAP2 ISZERO ISZERO SWAP6 PUSH1 0xFF SWAP6 DUP7 AND SWAP6 SWAP2 DUP3 AND SWAP5 SWAP1 SWAP4 DUP5 SWAP4 DUP5 SWAP4 AND DUP1 ISZERO PUSH2 0x113F JUMPI POP PUSH1 0x6 DUP3 ADD SLOAD PUSH1 0x1 DUP3 ADD SLOAD PUSH1 0xFF SWAP1 DUP2 AND SWAP2 AND EQ JUMPDEST PUSH1 0x1 DUP3 ADD SLOAD SWAP1 SWAP6 POP PUSH2 0x100 SWAP1 DIV PUSH1 0xFF AND SWAP4 POP DUP5 DUP1 ISZERO PUSH2 0x115C JUMPI POP DUP4 ISZERO JUMPDEST ISZERO PUSH2 0x120E JUMPI PUSH1 0x0 DUP3 PUSH1 0x5 ADD SLOAD DUP4 PUSH1 0x4 ADD SLOAD DUP5 PUSH1 0x3 ADD SLOAD PUSH2 0x117C SWAP2 SWAP1 PUSH2 0x188F JUMP JUMPDEST PUSH2 0x1186 SWAP2 SWAP1 PUSH2 0x188F JUMP JUMPDEST SWAP1 POP PUSH1 0x0 PUSH2 0x2710 PUSH2 0x1199 PUSH2 0x1F4 DUP5 PUSH2 0x18A8 JUMP JUMPDEST PUSH2 0x11A3 SWAP2 SWAP1 PUSH2 0x18BF JUMP JUMPDEST PUSH2 0x11AD SWAP1 DUP4 PUSH2 0x18E1 JUMP JUMPDEST PUSH1 0x6 DUP6 ADD SLOAD SWAP1 SWAP2 POP PUSH1 0x0 SWAP1 PUSH1 0xFF AND PUSH1 0x1 EQ PUSH2 0x11E5 JUMPI PUSH1 0x6 DUP6 ADD SLOAD PUSH1 0xFF AND PUSH1 0x2 EQ PUSH2 0x11DB JUMPI DUP5 PUSH1 0x5 ADD SLOAD PUSH2 0x11EB JUMP JUMPDEST DUP5 PUSH1 0x4 ADD SLOAD PUSH2 0x11EB JUMP JUMPDEST DUP5 PUSH1 0x3 ADD SLOAD JUMPDEST SWAP1 POP DUP1 DUP3 DUP6 PUSH1 0x0 ADD SLOAD PUSH2 0x11FE SWAP2 SWAP1 PUSH2 0x18A8 JUMP JUMPDEST PUSH2 0x1208 SWAP2 SWAP1 PUSH2 0x18BF JUMP JUMPDEST SWAP6 POP POP POP POP JUMPDEST POP POP SWAP3 SWAP6 POP SWAP3 SWAP6 POP SWAP3 SWAP6 JUMP JUMPDEST PUSH2 0x1222 PUSH2 0x1583 JUMP JUMPDEST PUSH1 0x4 SSTORE JUMP JUMPDEST PUSH2 0x122F PUSH2 0x16D7 JUMP JUMPDEST PUSH1 0x4 SLOAD DUP2 LT ISZERO PUSH2 0x1281 JUMPI PUSH1 0x40 MLOAD PUSH3 0x461BCD PUSH1 0xE5 SHL DUP2 MSTORE PUSH1 0x20 PUSH1 0x4 DUP3 ADD MSTORE PUSH1 0x1E PUSH1 0x24 DUP3 ADD MSTORE PUSH32 0x42657420746F6F20736D616C6C20286D696E20313030302053434E444C290000 PUSH1 0x44 DUP3 ADD MSTORE PUSH1 0x64 ADD PUSH2 0x5A3 JUMP JUMPDEST PUSH1 0x1 PUSH1 0xFF DUP4 AND LT DUP1 ISZERO SWAP1 PUSH2 0x1299 JUMPI POP PUSH1 0x3 PUSH1 0xFF DUP4 AND GT ISZERO JUMPDEST PUSH2 0x12DA JUMPI PUSH1 0x40 MLOAD PUSH3 0x461BCD PUSH1 0xE5 SHL DUP2 MSTORE PUSH1 0x20 PUSH1 0x4 DUP3 ADD MSTORE PUSH1 0x12 PUSH1 0x24 DUP3 ADD MSTORE PUSH18 0x24B73B30B634B210383932B234B1BA34B7B7 PUSH1 0x71 SHL PUSH1 0x44 DUP3 ADD MSTORE PUSH1 0x64 ADD PUSH2 0x5A3 JUMP JUMPDEST PUSH1 0x5 SLOAD PUSH1 0x0 SWAP1 DUP2 MSTORE PUSH1 0x6 PUSH1 0x20 MSTORE PUSH1 0x40 SWAP1 KECCAK256 PUSH1 0x8 DUP2 ADD SLOAD PUSH1 0xFF AND ISZERO PUSH2 0x132F JUMPI PUSH1 0x40 MLOAD PUSH3 0x461BCD PUSH1 0xE5 SHL DUP2 MSTORE PUSH1 0x20 PUSH1 0x4 DUP3 ADD MSTORE PUSH1 0xC PUSH1 0x24 DUP3 ADD MSTORE PUSH12 0x149BDD5B990818DB1BDCD959 PUSH1 0xA2 SHL PUSH1 0x44 DUP3 ADD MSTORE PUSH1 0x64 ADD PUSH2 0x5A3 JUMP JUMPDEST PUSH1 0x5 SLOAD PUSH1 0x0 SWAP1 DUP2 MSTORE PUSH1 0x7 PUSH1 0x20 SWAP1 DUP2 MSTORE PUSH1 0x40 DUP1 DUP4 KECCAK256 CALLER DUP5 MSTORE SWAP1 SWAP2 MSTORE SWAP1 KECCAK256 DUP1 SLOAD ISZERO PUSH2 0x1393 JUMPI PUSH1 0x40 MLOAD PUSH3 0x461BCD PUSH1 0xE5 SHL DUP2 MSTORE PUSH1 0x20 PUSH1 0x4 DUP3 ADD MSTORE PUSH1 0x16 PUSH1 0x24 DUP3 ADD MSTORE PUSH22 0x105B1C9958591E4818995D081D1A1A5CC81C9BDD5B99 PUSH1 0x52 SHL PUSH1 0x44 DUP3 ADD MSTORE PUSH1 0x64 ADD PUSH2 0x5A3 JUMP JUMPDEST PUSH1 0x2 SLOAD PUSH1 0x40 MLOAD PUSH4 0x23B872DD PUSH1 0xE0 SHL DUP2 MSTORE CALLER PUSH1 0x4 DUP3 ADD MSTORE ADDRESS PUSH1 0x24 DUP3 ADD MSTORE PUSH1 0x44 DUP2 ADD DUP6 SWAP1 MSTORE PUSH1 0x1 PUSH1 0x1 PUSH1 0xA0 SHL SUB SWAP1 SWAP2 AND SWAP1 PUSH4 0x23B872DD SWAP1 PUSH1 0x64 ADD PUSH1 0x20 PUSH1 0x40 MLOAD DUP1 DUP4 SUB DUP2 PUSH1 0x0 DUP8 GAS CALL ISZERO DUP1 ISZERO PUSH2 0x13EA JUMPI RETURNDATASIZE PUSH1 0x0 DUP1 RETURNDATACOPY RETURNDATASIZE PUSH1 0x0 REVERT JUMPDEST POP POP POP POP PUSH1 0x40 MLOAD RETURNDATASIZE PUSH1 0x1F NOT PUSH1 0x1F DUP3 ADD AND DUP3 ADD DUP1 PUSH1 0x40 MSTORE POP DUP2 ADD SWAP1 PUSH2 0x140E SWAP2 SWAP1 PUSH2 0x1828 JUMP JUMPDEST PUSH2 0x144C JUMPI PUSH1 0x40 MLOAD PUSH3 0x461BCD PUSH1 0xE5 SHL DUP2 MSTORE PUSH1 0x20 PUSH1 0x4 DUP3 ADD MSTORE PUSH1 0xF PUSH1 0x24 DUP3 ADD MSTORE PUSH15 0x151C985B9CD9995C8819985A5B1959 PUSH1 0x8A SHL PUSH1 0x44 DUP3 ADD MSTORE PUSH1 0x64 ADD PUSH2 0x5A3 JUMP JUMPDEST DUP3 DUP2 SSTORE PUSH1 0x1 DUP1 DUP3 ADD DUP1 SLOAD PUSH1 0xFF DUP8 AND PUSH1 0xFF NOT SWAP1 SWAP2 AND DUP2 OR SWAP1 SWAP2 SSTORE PUSH1 0x5 SLOAD PUSH1 0x0 SWAP1 DUP2 MSTORE PUSH1 0x8 PUSH1 0x20 SWAP1 DUP2 MSTORE PUSH1 0x40 DUP3 KECCAK256 DUP1 SLOAD SWAP5 DUP6 ADD DUP2 SSTORE DUP3 MSTORE SWAP1 KECCAK256 SWAP1 SWAP2 ADD DUP1 SLOAD PUSH1 0x1 PUSH1 0x1 PUSH1 0xA0 SHL SUB NOT AND CALLER OR SWAP1 SSTORE PUSH1 0x0 NOT ADD PUSH2 0x14BD JUMPI DUP3 DUP3 PUSH1 0x3 ADD PUSH1 0x0 DUP3 DUP3 SLOAD PUSH2 0x14B2 SWAP2 SWAP1 PUSH2 0x188F JUMP JUMPDEST SWAP1 SWAP2 SSTORE POP PUSH2 0x14F7 SWAP1 POP JUMP JUMPDEST PUSH1 0x1 NOT PUSH1 0xFF DUP6 AND ADD PUSH2 0x14DD JUMPI DUP3 DUP3 PUSH1 0x4 ADD PUSH1 0x0 DUP3 DUP3 SLOAD PUSH2 0x14B2 SWAP2 SWAP1 PUSH2 0x188F JUMP JUMPDEST DUP3 DUP3 PUSH1 0x5 ADD PUSH1 0x0 DUP3 DUP3 SLOAD PUSH2 0x14F1 SWAP2 SWAP1 PUSH2 0x188F JUMP JUMPDEST SWAP1 SWAP2 SSTORE POP POP JUMPDEST PUSH1 0x5 SLOAD PUSH1 0x40 DUP1 MLOAD PUSH1 0xFF DUP8 AND DUP2 MSTORE PUSH1 0x20 DUP2 ADD DUP7 SWAP1 MSTORE CALLER SWAP3 SWAP2 PUSH32 0x4F1EED5E863A822B0F9EB960DFDAB2CC5A99BEEC4B191F2A7A9C7E28E5A15524 SWAP2 ADD PUSH1 0x40 MLOAD DUP1 SWAP2 SUB SWAP1 LOG3 POP POP PUSH2 0x1544 PUSH1 0x1 DUP1 SSTORE JUMP JUMPDEST POP POP JUMP JUMPDEST PUSH2 0x1550 PUSH2 0x1583 JUMP JUMPDEST PUSH1 0x1 PUSH1 0x1 PUSH1 0xA0 SHL SUB DUP2 AND PUSH2 0x157A JUMPI PUSH1 0x40 MLOAD PUSH4 0x1E4FBDF7 PUSH1 0xE0 SHL DUP2 MSTORE PUSH1 0x0 PUSH1 0x4 DUP3 ADD MSTORE PUSH1 0x24 ADD PUSH2 0x5A3 JUMP JUMPDEST PUSH2 0x104F DUP2 PUSH2 0x1701 JUMP JUMPDEST PUSH1 0x0 SLOAD PUSH1 0x1 PUSH1 0x1 PUSH1 0xA0 SHL SUB AND CALLER EQ PUSH2 0x1064 JUMPI PUSH1 0x40 MLOAD PUSH4 0x118CDAA7 PUSH1 0xE0 SHL DUP2 MSTORE CALLER PUSH1 0x4 DUP3 ADD MSTORE PUSH1 0x24 ADD PUSH2 0x5A3 JUMP JUMPDEST PUSH1 0x5 DUP1 SLOAD SWAP1 PUSH1 0x0 PUSH2 0x15C0 DUP4 PUSH2 0x1876 JUMP JUMPDEST SWAP1 SWAP2 SSTORE POP POP PUSH1 0x40 DUP1 MLOAD PUSH2 0x140 DUP2 ADD DUP3 MSTORE PUSH1 0x5 DUP1 SLOAD DUP1 DUP4 MSTORE TIMESTAMP PUSH1 0x20 DUP1 DUP6 ADD DUP3 DUP2 MSTORE PUSH1 0x0 DUP7 DUP9 ADD DUP2 DUP2 MSTORE PUSH1 0x60 DUP9 ADD DUP3 DUP2 MSTORE PUSH1 0x80 DUP10 ADD DUP4 DUP2 MSTORE PUSH1 0xA0 DUP11 ADD DUP5 DUP2 MSTORE PUSH1 0xC0 DUP12 ADD DUP6 DUP2 MSTORE PUSH1 0xE0 DUP13 ADD DUP7 DUP2 MSTORE PUSH2 0x100 DUP1 DUP15 ADD DUP9 DUP2 MSTORE PUSH2 0x120 DUP16 ADD DUP10 DUP2 MSTORE SWAP13 DUP10 MSTORE PUSH1 0x6 SWAP11 DUP12 SWAP1 MSTORE SWAP8 DUP16 SWAP1 KECCAK256 SWAP14 MLOAD DUP15 SSTORE SWAP8 MLOAD PUSH1 0x1 DUP15 ADD SSTORE SWAP5 MLOAD PUSH1 0x2 DUP14 ADD SSTORE SWAP3 MLOAD PUSH1 0x3 DUP13 ADD SSTORE SWAP1 MLOAD PUSH1 0x4 DUP12 ADD SSTORE MLOAD DUP10 DUP10 ADD SSTORE MLOAD SWAP4 DUP9 ADD DUP1 SLOAD PUSH1 0xFF SWAP6 SWAP1 SWAP6 AND PUSH1 0xFF NOT SWAP6 SWAP1 SWAP6 AND SWAP5 SWAP1 SWAP5 OR SWAP1 SWAP4 SSTORE SWAP2 MLOAD PUSH1 0x7 DUP8 ADD SSTORE SWAP1 MLOAD PUSH1 0x8 SWAP1 SWAP6 ADD DUP1 SLOAD SWAP4 MLOAD ISZERO ISZERO SWAP1 SWAP2 MUL PUSH2 0xFF00 NOT SWAP6 ISZERO ISZERO SWAP6 SWAP1 SWAP6 AND PUSH2 0xFFFF NOT SWAP1 SWAP4 AND SWAP3 SWAP1 SWAP3 OR SWAP4 SWAP1 SWAP4 OR SWAP1 SSTORE SLOAD SWAP2 MLOAD PUSH32 0x278844837BCF8364A705384BF3A2812901F54155BAE86DEA81DD52AA5B9EC0E3 SWAP2 PUSH2 0x16CD SWAP2 SWAP1 DUP2 MSTORE PUSH1 0x20 ADD SWAP1 JUMP JUMPDEST PUSH1 0x40 MLOAD DUP1 SWAP2 SUB SWAP1 LOG2 JUMP JUMPDEST PUSH1 0x2 PUSH1 0x1 SLOAD SUB PUSH2 0x16FA JUMPI PUSH1 0x40 MLOAD PUSH4 0x3EE5AEB5 PUSH1 0xE0 SHL DUP2 MSTORE PUSH1 0x4 ADD PUSH1 0x40 MLOAD DUP1 SWAP2 SUB SWAP1 REVERT JUMPDEST PUSH1 0x2 PUSH1 0x1 SSTORE JUMP JUMPDEST PUSH1 0x0 DUP1 SLOAD PUSH1 0x1 PUSH1 0x1 PUSH1 0xA0 SHL SUB DUP4 DUP2 AND PUSH1 0x1 PUSH1 0x1 PUSH1 0xA0 SHL SUB NOT DUP4 AND DUP2 OR DUP5 SSTORE PUSH1 0x40 MLOAD SWAP2 SWAP1 SWAP3 AND SWAP3 DUP4 SWAP2 PUSH32 0x8BE0079C531659141344CD1FD0A4F28419497F9722A3DAAFE3B4186F6B6457E0 SWAP2 SWAP1 LOG3 POP POP JUMP JUMPDEST PUSH1 0x0 PUSH1 0x20 DUP3 DUP5 SUB SLT ISZERO PUSH2 0x1763 JUMPI PUSH1 0x0 DUP1 REVERT JUMPDEST POP CALLDATALOAD SWAP2 SWAP1 POP JUMP JUMPDEST PUSH1 0x0 DUP1 PUSH1 0x40 DUP4 DUP6 SUB SLT ISZERO PUSH2 0x177D JUMPI PUSH1 0x0 DUP1 REVERT JUMPDEST DUP3 CALLDATALOAD PUSH1 0xFF DUP2 AND DUP2 EQ PUSH2 0x178E JUMPI PUSH1 0x0 DUP1 REVERT JUMPDEST SWAP5 PUSH1 0x20 SWAP4 SWAP1 SWAP4 ADD CALLDATALOAD SWAP4 POP POP POP JUMP JUMPDEST PUSH1 0x0 DUP1 PUSH1 0x40 DUP4 DUP6 SUB SLT ISZERO PUSH2 0x17AF JUMPI PUSH1 0x0 DUP1 REVERT JUMPDEST POP POP DUP1 CALLDATALOAD SWAP3 PUSH1 0x20 SWAP1 SWAP2 ADD CALLDATALOAD SWAP2 POP JUMP JUMPDEST DUP1 CALLDATALOAD PUSH1 0x1 PUSH1 0x1 PUSH1 0xA0 SHL SUB DUP2 AND DUP2 EQ PUSH2 0x17D5 JUMPI PUSH1 0x0 DUP1 REVERT JUMPDEST SWAP2 SWAP1 POP JUMP JUMPDEST PUSH1 0x0 PUSH1 0x20 DUP3 DUP5 SUB SLT ISZERO PUSH2 0x17EC JUMPI PUSH1 0x0 DUP1 REVERT JUMPDEST PUSH2 0x17F5 DUP3 PUSH2 0x17BE JUMP JUMPDEST SWAP4 SWAP3 POP POP POP JUMP JUMPDEST PUSH1 0x0 DUP1 PUSH1 0x40 DUP4 DUP6 SUB SLT ISZERO PUSH2 0x180F JUMPI PUSH1 0x0 DUP1 REVERT JUMPDEST DUP3 CALLDATALOAD SWAP2 POP PUSH2 0x181F PUSH1 0x20 DUP5 ADD PUSH2 0x17BE JUMP JUMPDEST SWAP1 POP SWAP3 POP SWAP3 SWAP1 POP JUMP JUMPDEST PUSH1 0x0 PUSH1 0x20 DUP3 DUP5 SUB SLT ISZERO PUSH2 0x183A JUMPI PUSH1 0x0 DUP1 REVERT JUMPDEST DUP2 MLOAD DUP1 ISZERO ISZERO DUP2 EQ PUSH2 0x17F5 JUMPI PUSH1 0x0 DUP1 REVERT JUMPDEST PUSH4 0x4E487B71 PUSH1 0xE0 SHL PUSH1 0x0 MSTORE PUSH1 0x32 PUSH1 0x4 MSTORE PUSH1 0x24 PUSH1 0x0 REVERT JUMPDEST PUSH4 0x4E487B71 PUSH1 0xE0 SHL PUSH1 0x0 MSTORE PUSH1 0x11 PUSH1 0x4 MSTORE PUSH1 0x24 PUSH1 0x0 REVERT JUMPDEST PUSH1 0x0 PUSH1 0x1 DUP3 ADD PUSH2 0x1888 JUMPI PUSH2 0x1888 PUSH2 0x1860 JUMP JUMPDEST POP PUSH1 0x1 ADD SWAP1 JUMP JUMPDEST DUP1 DUP3 ADD DUP1 DUP3 GT ISZERO PUSH2 0x18A2 JUMPI PUSH2 0x18A2 PUSH2 0x1860 JUMP JUMPDEST SWAP3 SWAP2 POP POP JUMP JUMPDEST DUP1 DUP3 MUL DUP2 ISZERO DUP3 DUP3 DIV DUP5 EQ OR PUSH2 0x18A2 JUMPI PUSH2 0x18A2 PUSH2 0x1860 JUMP JUMPDEST PUSH1 0x0 DUP3 PUSH2 0x18DC JUMPI PUSH4 0x4E487B71 PUSH1 0xE0 SHL PUSH1 0x0 MSTORE PUSH1 0x12 PUSH1 0x4 MSTORE PUSH1 0x24 PUSH1 0x0 REVERT JUMPDEST POP DIV SWAP1 JUMP JUMPDEST DUP2 DUP2 SUB DUP2 DUP2 GT ISZERO PUSH2 0x18A2 JUMPI PUSH2 0x18A2 PUSH2 0x1860 JUMP INVALID LOG2 PUSH5 0x6970667358 0x22 SLT KECCAK256 0x5D 0xC4 0xC5 0xCC 0xA7 CODESIZE 0xE 0xC0 0xAD 0x4B LOG0 DUP3 SWAP6 0x4B EXTCODECOPY SWAP3 CALLDATALOAD DUP11 0xFC SWAP2 0xB2 0xC 0xEE CALL 0xEA 0x2D MLOAD CALLDATALOAD 0x5E RETURNDATACOPY 0x21 0xC4 PUSH5 0x736F6C6343 STOP ADDMOD EQ STOP CALLER "},"methodIdentifiers":{"BURN()":"c0a2526c","DEAD_ADDRESS()":"4e6fd6c4","FEE_BURN()":"24ba6556","FEE_DENOMINATOR()":"d73792a9","FEE_OWNER()":"49edfb94","FEE_TOTAL()":"ad20daca","MINT()":"3e36f4c7","NEUTRAL()":"7b1f12a8","bets(uint256,address)":"f644b3bb","checkResult(uint256,address)":"7fb9c45f","claimWinnings(uint256)":"677bd9ff","closeRound(uint8,uint256)":"5e519ff6","currentRoundId()":"9cbe5efd","getCurrentRound()":"a32bf597","getGameStats()":"1aff30dd","minBet()":"9619367d","oracle()":"7dc0d1d0","owner()":"8da5cb5b","ownerFees()":"386cd8f1","placeBet(uint8,uint256)":"dcb3b30e","refundRound(uint256)":"5443b139","renounceOwnership()":"715018a6","roundPlayers(uint256,uint256)":"671eea01","rounds(uint256)":"8c65c81f","scndlToken()":"898443d8","setMinBet(uint256)":"88ea41b9","setOracle(address)":"7adbf973","totalBurned()":"d89135cd","transferOwnership(address)":"f2fde38b","withdrawFees()":"476343ee"}}}}}