{"contracts/PredictionGameV2.sol":{"PredictionGameV2":{"abi":[{"inputs":[{"internalType":"address","name":"_token","type":"address"},{"internalType":"address","name":"_oracle","type":"address"}],"stateMutability":"nonpayable","type":"constructor"},{"inputs":[],"name":"EnforcedPause","type":"error"},{"inputs":[],"name":"ExpectedPause","type":"error"},{"inputs":[{"internalType":"address","name":"owner","type":"address"}],"name":"OwnableInvalidOwner","type":"error"},{"inputs":[{"internalType":"address","name":"account","type":"address"}],"name":"OwnableUnauthorizedAccount","type":"error"},{"inputs":[],"name":"ReentrancyGuardReentrantCall","type":"error"},{"anonymous":false,"inputs":[{"indexed":true,"internalType":"address","name":"user","type":"address"},{"indexed":false,"internalType":"uint256","name":"roundId","type":"uint256"},{"indexed":false,"internalType":"uint8","name":"prediction","type":"uint8"},{"indexed":false,"internalType":"uint256","name":"amount","type":"uint256"}],"name":"BetRecorded","type":"event"},{"anonymous":false,"inputs":[{"indexed":true,"internalType":"address","name":"user","type":"address"},{"indexed":false,"internalType":"uint256","name":"roundId","type":"uint256"},{"indexed":false,"internalType":"bool","name":"won","type":"bool"},{"indexed":false,"internalType":"int256","name":"profitLoss","type":"int256"}],"name":"BetResult","type":"event"},{"anonymous":false,"inputs":[{"indexed":true,"internalType":"address","name":"user","type":"address"},{"indexed":false,"internalType":"uint256","name":"amount","type":"uint256"},{"indexed":false,"internalType":"uint256","name":"newBalance","type":"uint256"}],"name":"Deposited","type":"event"},{"anonymous":false,"inputs":[{"indexed":true,"internalType":"address","name":"user","type":"address"},{"indexed":false,"internalType":"uint256","name":"amount","type":"uint256"}],"name":"EmergencyWithdrawn","type":"event"},{"anonymous":false,"inputs":[{"indexed":true,"internalType":"address","name":"owner","type":"address"},{"indexed":false,"internalType":"uint256","name":"amount","type":"uint256"}],"name":"FeesWithdrawn","type":"event"},{"anonymous":false,"inputs":[{"indexed":true,"internalType":"address","name":"oldOracle","type":"address"},{"indexed":true,"internalType":"address","name":"newOracle","type":"address"}],"name":"OracleChanged","type":"event"},{"anonymous":false,"inputs":[{"indexed":true,"internalType":"address","name":"previousOwner","type":"address"},{"indexed":true,"internalType":"address","name":"newOwner","type":"address"}],"name":"OwnershipTransferred","type":"event"},{"anonymous":false,"inputs":[{"indexed":false,"internalType":"address","name":"account","type":"address"}],"name":"Paused","type":"event"},{"anonymous":false,"inputs":[{"indexed":true,"internalType":"uint256","name":"roundId","type":"uint256"},{"indexed":false,"internalType":"uint8","name":"result","type":"uint8"},{"indexed":false,"internalType":"uint256","name":"totalPool","type":"uint256"}],"name":"RoundClosed","type":"event"},{"anonymous":false,"inputs":[{"indexed":true,"internalType":"uint256","name":"roundId","type":"uint256"}],"name":"RoundRefunded","type":"event"},{"anonymous":false,"inputs":[{"indexed":true,"internalType":"uint256","name":"roundId","type":"uint256"},{"indexed":false,"internalType":"uint256","name":"startTime","type":"uint256"}],"name":"RoundStarted","type":"event"},{"anonymous":false,"inputs":[{"indexed":false,"internalType":"address","name":"account","type":"address"}],"name":"Unpaused","type":"event"},{"anonymous":false,"inputs":[{"indexed":true,"internalType":"address","name":"user","type":"address"},{"indexed":false,"internalType":"uint256","name":"amount","type":"uint256"},{"indexed":false,"internalType":"uint256","name":"newBalance","type":"uint256"}],"name":"Withdrawn","type":"event"},{"inputs":[],"name":"BURN","outputs":[{"internalType":"uint8","name":"","type":"uint8"}],"stateMutability":"view","type":"function"},{"inputs":[],"name":"FEE_BURN","outputs":[{"internalType":"uint256","name":"","type":"uint256"}],"stateMutability":"view","type":"function"},{"inputs":[],"name":"FEE_DENOMINATOR","outputs":[{"internalType":"uint256","name":"","type":"uint256"}],"stateMutability":"view","type":"function"},{"inputs":[],"name":"FEE_OWNER","outputs":[{"internalType":"uint256","name":"","type":"uint256"}],"stateMutability":"view","type":"function"},{"inputs":[],"name":"MINT","outputs":[{"internalType":"uint8","name":"","type":"uint8"}],"stateMutability":"view","type":"function"},{"inputs":[],"name":"NEUTRAL","outputs":[{"internalType":"uint8","name":"","type":"uint8"}],"stateMutability":"view","type":"function"},{"inputs":[{"internalType":"address","name":"","type":"address"}],"name":"balances","outputs":[{"internalType":"uint256","name":"","type":"uint256"}],"stateMutability":"view","type":"function"},{"inputs":[{"internalType":"uint8","name":"result","type":"uint8"},{"internalType":"uint256","name":"rate","type":"uint256"}],"name":"closeRound","outputs":[],"stateMutability":"nonpayable","type":"function"},{"inputs":[],"name":"currentRoundId","outputs":[{"internalType":"uint256","name":"","type":"uint256"}],"stateMutability":"view","type":"function"},{"inputs":[{"internalType":"uint256","name":"amount","type":"uint256"}],"name":"deposit","outputs":[],"stateMutability":"nonpayable","type":"function"},{"inputs":[],"name":"emergencyWithdraw","outputs":[],"stateMutability":"nonpayable","type":"function"},{"inputs":[{"internalType":"address","name":"user","type":"address"}],"name":"getBalance","outputs":[{"internalType":"uint256","name":"","type":"uint256"}],"stateMutability":"view","type":"function"},{"inputs":[],"name":"getContractBalance","outputs":[{"internalType":"uint256","name":"","type":"uint256"}],"stateMutability":"view","type":"function"},{"inputs":[],"name":"getCurrentRound","outputs":[{"internalType":"uint256","name":"id","type":"uint256"},{"internalType":"uint256","name":"startTime","type":"uint256"},{"internalType":"uint256","name":"totalPool","type":"uint256"},{"internalType":"uint256","name":"mintPool","type":"uint256"},{"internalType":"uint256","name":"burnPool","type":"uint256"},{"internalType":"uint256","name":"neutralPool","type":"uint256"},{"internalType":"bool","name":"closed","type":"bool"}],"stateMutability":"view","type":"function"},{"inputs":[{"internalType":"uint256","name":"roundId","type":"uint256"}],"name":"getRoundInfo","outputs":[{"internalType":"uint256","name":"id","type":"uint256"},{"internalType":"uint256","name":"startTime","type":"uint256"},{"internalType":"uint256","name":"endTime","type":"uint256"},{"internalType":"uint256","name":"totalPool","type":"uint256"},{"internalType":"uint8","name":"result","type":"uint8"},{"internalType":"bool","name":"closed","type":"bool"},{"internalType":"bool","name":"refunded","type":"bool"}],"stateMutability":"view","type":"function"},{"inputs":[],"name":"isSolvent","outputs":[{"internalType":"bool","name":"","type":"bool"}],"stateMutability":"view","type":"function"},{"inputs":[{"internalType":"address","name":"","type":"address"}],"name":"lastDepositTime","outputs":[{"internalType":"uint256","name":"","type":"uint256"}],"stateMutability":"view","type":"function"},{"inputs":[],"name":"maxBetAmount","outputs":[{"internalType":"uint256","name":"","type":"uint256"}],"stateMutability":"view","type":"function"},{"inputs":[],"name":"minBet","outputs":[{"internalType":"uint256","name":"","type":"uint256"}],"stateMutability":"view","type":"function"},{"inputs":[],"name":"minDeposit","outputs":[{"internalType":"uint256","name":"","type":"uint256"}],"stateMutability":"view","type":"function"},{"inputs":[],"name":"oracle","outputs":[{"internalType":"address","name":"","type":"address"}],"stateMutability":"view","type":"function"},{"inputs":[],"name":"owner","outputs":[{"internalType":"address","name":"","type":"address"}],"stateMutability":"view","type":"function"},{"inputs":[],"name":"ownerFees","outputs":[{"internalType":"uint256","name":"","type":"uint256"}],"stateMutability":"view","type":"function"},{"inputs":[],"name":"pause","outputs":[],"stateMutability":"nonpayable","type":"function"},{"inputs":[],"name":"paused","outputs":[{"internalType":"bool","name":"","type":"bool"}],"stateMutability":"view","type":"function"},{"inputs":[{"internalType":"address","name":"player","type":"address"},{"internalType":"uint256","name":"roundId","type":"uint256"},{"internalType":"uint8","name":"prediction","type":"uint8"},{"internalType":"uint256","name":"amount","type":"uint256"}],"name":"recordBet","outputs":[],"stateMutability":"nonpayable","type":"function"},{"inputs":[{"internalType":"address","name":"player","type":"address"},{"internalType":"uint256","name":"roundId","type":"uint256"},{"internalType":"bool","name":"won","type":"bool"},{"internalType":"uint256","name":"payout","type":"uint256"}],"name":"recordBetResult","outputs":[],"stateMutability":"nonpayable","type":"function"},{"inputs":[{"internalType":"address","name":"player","type":"address"},{"internalType":"uint256","name":"roundId","type":"uint256"},{"internalType":"uint256","name":"amount","type":"uint256"}],"name":"refundPlayer","outputs":[],"stateMutability":"nonpayable","type":"function"},{"inputs":[{"internalType":"uint256","name":"roundId","type":"uint256"}],"name":"refundRound","outputs":[],"stateMutability":"nonpayable","type":"function"},{"inputs":[],"name":"renounceOwnership","outputs":[],"stateMutability":"nonpayable","type":"function"},{"inputs":[{"internalType":"uint256","name":"","type":"uint256"}],"name":"rounds","outputs":[{"internalType":"uint256","name":"id","type":"uint256"},{"internalType":"uint256","name":"startTime","type":"uint256"},{"internalType":"uint256","name":"endTime","type":"uint256"},{"internalType":"uint256","name":"totalPool","type":"uint256"},{"internalType":"uint256","name":"mintPool","type":"uint256"},{"internalType":"uint256","name":"burnPool","type":"uint256"},{"internalType":"uint256","name":"neutralPool","type":"uint256"},{"internalType":"uint8","name":"result","type":"uint8"},{"internalType":"bool","name":"closed","type":"bool"},{"internalType":"bool","name":"refunded","type":"bool"}],"stateMutability":"view","type":"function"},{"inputs":[],"name":"scndlToken","outputs":[{"internalType":"contract IERC20","name":"","type":"address"}],"stateMutability":"view","type":"function"},{"inputs":[{"internalType":"uint256","name":"_amount","type":"uint256"}],"name":"setMaxBetAmount","outputs":[],"stateMutability":"nonpayable","type":"function"},{"inputs":[{"internalType":"uint256","name":"_amount","type":"uint256"}],"name":"setMinBet","outputs":[],"stateMutability":"nonpayable","type":"function"},{"inputs":[{"internalType":"uint256","name":"_amount","type":"uint256"}],"name":"setMinDeposit","outputs":[],"stateMutability":"nonpayable","type":"function"},{"inputs":[{"internalType":"address","name":"_newOracle","type":"address"}],"name":"setOracle","outputs":[],"stateMutability":"nonpayable","type":"function"},{"inputs":[{"internalType":"uint256","name":"_delay","type":"uint256"}],"name":"setWithdrawalDelay","outputs":[],"stateMutability":"nonpayable","type":"function"},{"inputs":[],"name":"totalBurned","outputs":[{"internalType":"uint256","name":"","type":"uint256"}],"stateMutability":"view","type":"function"},{"inputs":[],"name":"totalDeposits","outputs":[{"internalType":"uint256","name":"","type":"uint256"}],"stateMutability":"view","type":"function"},{"inputs":[{"internalType":"address","name":"newOwner","type":"address"}],"name":"transferOwnership","outputs":[],"stateMutability":"nonpayable","type":"function"},{"inputs":[],"name":"unpause","outputs":[],"stateMutability":"nonpayable","type":"function"},{"inputs":[{"internalType":"uint256","name":"amount","type":"uint256"}],"name":"withdraw","outputs":[],"stateMutability":"nonpayable","type":"function"},{"inputs":[],"name":"withdrawFees","outputs":[],"stateMutability":"nonpayable","type":"function"},{"inputs":[],"name":"withdrawalDelay","outputs":[{"internalType":"uint256","name":"","type":"uint256"}],"stateMutability":"view","type":"function"}],"evm":{"bytecode":{"linkReferences":{},"object":"6080604052683635c9adc5dea00000600755683635c9adc5dea0000060085569152d02c7e14af68000006009556000600a553480156200003e57600080fd5b50604051620020b2380380620020b28339810160408190526200006191620002fa565b33806200008957604051631e4fbdf760e01b8152600060048201526024015b60405180910390fd5b62000094816200017b565b50600180556001600160a01b038216620000e15760405162461bcd60e51b815260206004820152600d60248201526c24b73b30b634b2103a37b5b2b760991b604482015260640162000080565b6001600160a01b0381166200012a5760405162461bcd60e51b815260206004820152600e60248201526d496e76616c6964206f7261636c6560901b604482015260640162000080565b60028054610100600160a81b0319166101006001600160a01b038581169190910291909117909155600380546001600160a01b03191691831691909117905562000173620001cb565b50506200035a565b600080546001600160a01b038381166001600160a01b0319831681178455604051919092169283917f8be0079c531659141344cd1fd0a4f28419497f9722a3daafe3b4186f6b6457e09190a35050565b60068054906000620001dd8362000332565b90915550506040805161014081018252600680548083524260208085018281526000868801818152606088018281526080890183815260a08a0184815260c08b0185815260e08c01868152610100808e018881526101208f018981529c8952600c8b52978f90209d518e55975160018e0155945160028d0155925160038c0155905160048b01555160058a015551888801555160079097018054915195511515620100000262ff00001996151590930261ffff1990921660ff90981697909717179390931692909217909355905492519182527f278844837bcf8364a705384bf3a2812901f54155bae86dea81dd52aa5b9ec0e3910160405180910390a2565b80516001600160a01b0381168114620002f557600080fd5b919050565b600080604083850312156200030e57600080fd5b6200031983620002dd565b91506200032960208401620002dd565b90509250929050565b6000600182016200035357634e487b7160e01b600052601160045260246000fd5b5060010190565b611d48806200036a6000396000f3fe608060405234801561001057600080fd5b50600436106102745760003560e01c80637d88209711610151578063a32bf597116100c3578063d2c13da511610087578063d2c13da514610679578063d73792a91461068c578063d89135cd14610695578063db2e21bc1461069e578063f2fde38b146106a6578063f8b2cb4f146106b957600080fd5b8063a32bf597146105d1578063a7ab69611461064c578063b6b55f2514610655578063c0a2526c14610668578063cab11d5d1461067057600080fd5b8063898443d811610115578063898443d8146104cb5780638c65c81f146104e35780638da5cb5b1461059b5780638fcc9cfb146105ac5780639619367d146105bf5780639cbe5efd146105c857600080fd5b80637d882097146103ea5780637dc0d1d0146103f35780638456cb591461041e57806388c3ffb01461042657806388ea41b9146104b857600080fd5b806349edfb94116101ea5780636f9fb98a116101ae5780636f9fb98a14610399578063715018a6146103a157806377c1b970146103a95780637adbf973146103bc5780637b1f12a8146103cf5780637cfbc7a5146103d757600080fd5b806349edfb941461034b5780635443b139146103545780635c975abb146103675780635ce239501461037e5780635e519ff61461038657600080fd5b8063386cd8f11161023c578063386cd8f1146102fc5780633e36f4c7146103055780633f0548461461031f5780633f4ba83a1461033257806341b3d1851461033a578063476343ee1461034357600080fd5b8063025277531461027957806309ddd43b146102ac57806324ba6556146102c157806327e235e3146102c95780632e1a7d4d146102e9575b600080fd5b610299610287366004611ac9565b600b6020526000908152604090205481565b6040519081526020015b60405180910390f35b6102bf6102ba366004611af9565b6106e2565b005b61029960c881565b6102996102d7366004611ac9565b60046020526000908152604090205481565b6102bf6102f7366004611b3f565b610816565b610299600d5481565b61030d600181565b60405160ff90911681526020016102a3565b6102bf61032d366004611b58565b610a54565b6102bf610b58565b61029960075481565b6102bf610b6a565b61029961012c81565b6102bf610362366004611b3f565b610cb8565b60025460ff165b60405190151581526020016102a3565b61036e610ddd565b6102bf610394366004611b9c565b610e5a565b610299611091565b6102bf611108565b6102bf6103b7366004611bc6565b61111a565b6102bf6103ca366004611ac9565b6113eb565b61030d600381565b6102bf6103e5366004611b3f565b61148c565b61029960055481565b600354610406906001600160a01b031681565b6040516001600160a01b0390911681526020016102a3565b6102bf611499565b61047c610434366004611b3f565b6000908152600c602052604090208054600182015460028301546003840154600790940154929491939092909160ff8083169261010081048216926201000090910490911690565b60408051978852602088019690965294860193909352606085019190915260ff166080840152151560a0830152151560c082015260e0016102a3565b6102bf6104c6366004611b3f565b6114a9565b6002546104069061010090046001600160a01b031681565b61054a6104f1366004611b3f565b600c602052600090815260409020805460018201546002830154600384015460048501546005860154600687015460079097015495969495939492939192909160ff80821691610100810482169162010000909104168a565b604080519a8b5260208b0199909952978901969096526060880194909452608087019290925260a086015260c085015260ff1660e084015215156101008301521515610120820152610140016102a3565b6000546001600160a01b0316610406565b6102bf6105ba366004611b3f565b6114b6565b61029960085481565b61029960065481565b600680546000908152600c60205260409020805460018201546003830154600484015460058501549585015460079095015493959294919390929190610100900460ff16604080519788526020880196909652948601939093526060850191909152608084015260a0830152151560c082015260e0016102a3565b610299600a5481565b6102bf610663366004611b3f565b6114c3565b61030d600281565b61029960095481565b6102bf610687366004611b3f565b611644565b61029961271081565b610299600e5481565b6102bf611696565b6102bf6106b4366004611ac9565b6117e5565b6102996106c7366004611ac9565b6001600160a01b031660009081526004602052604090205490565b6003546001600160a01b031633146107155760405162461bcd60e51b815260040161070c90611bfa565b60405180910390fd5b6000838152600c6020526040902060070154610100900460ff1661076e5760405162461bcd60e51b815260206004820152601060248201526f149bdd5b99081b9bdd0818db1bdcd95960821b604482015260640161070c565b81801561077b5750600081115b156107ae576001600160a01b038416600090815260046020526040812080548392906107a8908490611c35565b90915550505b6000826107bc5760006107be565b815b6040805186815285151560208201529081018290529091506001600160a01b038616907f992ee81395f0913fd4b06b5d1464fffc940d12650dc9d8f081d0b6252244457c906060015b60405180910390a25050505050565b61081e611820565b600081116108635760405162461bcd60e51b81526020600482015260126024820152710416d6f756e74206d757374206265203e20360741b604482015260640161070c565b336000908152600460205260409020548111156108b95760405162461bcd60e51b8152602060048201526014602482015273496e73756666696369656e742062616c616e636560601b604482015260640161070c565b600a541561092d57600a54336000908152600b60205260409020546108de9190611c35565b42101561092d5760405162461bcd60e51b815260206004820152601860248201527f5769746864726177616c2064656c6179206e6f74206d65740000000000000000604482015260640161070c565b336000908152600460205260408120805483929061094c908490611c4e565b9250508190555080600560008282546109659190611c4e565b909155505060025460405163a9059cbb60e01b8152336004820152602481018390526101009091046001600160a01b03169063a9059cbb906044016020604051808303816000875af11580156109bf573d6000803e3d6000fd5b505050506040513d601f19601f820116820180604052508101906109e39190611c61565b6109ff5760405162461bcd60e51b815260040161070c90611c7e565b33600081815260046020908152604091829020548251858152918201527f92ccf450a286a957af52509bc1c9939d1a6a481783e142e41e2499f0bb66ebc691015b60405180910390a2610a5160018055565b50565b6003546001600160a01b03163314610a7e5760405162461bcd60e51b815260040161070c90611bfa565b6000828152600c602052604090206007015462010000900460ff16610ada5760405162461bcd60e51b8152602060048201526012602482015271149bdd5b99081b9bdd081c99599d5b99195960721b604482015260640161070c565b6001600160a01b03831660009081526004602052604081208054839290610b02908490611c35565b909155505060408051838152600060208201529081018290526001600160a01b038416907f992ee81395f0913fd4b06b5d1464fffc940d12650dc9d8f081d0b6252244457c9060600160405180910390a2505050565b610b6061184a565b610b68611877565b565b610b7261184a565b600d5480610bac5760405162461bcd60e51b81526020600482015260076024820152664e6f206665657360c81b604482015260640161070c565b6000600d556002546001600160a01b036101009091041663a9059cbb610bda6000546001600160a01b031690565b6040516001600160e01b031960e084901b1681526001600160a01b039091166004820152602481018490526044016020604051808303816000875af1158015610c27573d6000803e3d6000fd5b505050506040513d601f19601f82011682018060405250810190610c4b9190611c61565b610c675760405162461bcd60e51b815260040161070c90611c7e565b6000546001600160a01b03166001600160a01b03167fc0819c13be868895eb93e40eaceb96de976442fa1d404e5c55f14bb65a8c489a82604051610cad91815260200190565b60405180910390a250565b6003546001600160a01b03163314610ce25760405162461bcd60e51b815260040161070c90611bfa565b6000818152600c60205260409020600781015462010000900460ff1615610d3e5760405162461bcd60e51b815260206004820152601060248201526f105b1c9958591e481c99599d5b99195960821b604482015260640161070c565b6007810154610100900460ff161580610d5c5750600781015460ff16155b610d9b5760405162461bcd60e51b815260206004820152601060248201526f149bdd5b99081a185cc81c995cdd5b1d60821b604482015260640161070c565b60078101805462ffff0019166201010017905560405182907f28846375d91adf0298632299641880d604604ddfbba9fd4f773bbbc56a9cabc090600090a25050565b6005546002546040516370a0823160e01b81523060048201526000929161010090046001600160a01b0316906370a0823190602401602060405180830381865afa158015610e2f573d6000803e3d6000fd5b505050506040513d601f19601f82011682018060405250810190610e539190611ca7565b1015905090565b6003546001600160a01b03163314610e845760405162461bcd60e51b815260040161070c90611bfa565b600160ff831610801590610e9c5750600360ff831611155b610ed95760405162461bcd60e51b815260206004820152600e60248201526d125b9d985b1a59081c995cdd5b1d60921b604482015260640161070c565b6006546000908152600c602052604090206007810154610100900460ff1615610f355760405162461bcd60e51b815260206004820152600e60248201526d105b1c9958591e4818db1bdcd95960921b604482015260640161070c565b60078101805442600284015561ffff191660ff85161761010017905560038101548015611044576000612710610f6d61012c84611cc0565b610f779190611cd7565b90506000612710610f8960c885611cc0565b610f939190611cd7565b905081600d6000828254610fa79190611c35565b9250508190555080600e6000828254610fc09190611c35565b909155505060025460405163a9059cbb60e01b815261dead6004820152602481018390526101009091046001600160a01b03169063a9059cbb906044016020604051808303816000875af115801561101c573d6000803e3d6000fd5b505050506040513d601f19601f820116820180604052508101906110409190611c61565b5050505b6006546040805160ff87168152602081018490527feeddca6c20105f7713df8a4afff197aadc0688d5ed755949b9a9f95b0243abc8910160405180910390a261108b6118c9565b50505050565b6002546040516370a0823160e01b815230600482015260009161010090046001600160a01b0316906370a0823190602401602060405180830381865afa1580156110df573d6000803e3d6000fd5b505050506040513d601f19601f820116820180604052508101906111039190611ca7565b905090565b61111061184a565b610b6860006119d9565b6003546001600160a01b031633146111445760405162461bcd60e51b815260040161070c90611bfa565b60065483146111835760405162461bcd60e51b815260206004820152600b60248201526a15dc9bdb99c81c9bdd5b9960aa1b604482015260640161070c565b6000838152600c6020526040902060070154610100900460ff16156111d95760405162461bcd60e51b815260206004820152600c60248201526b149bdd5b990818db1bdcd95960a21b604482015260640161070c565b600160ff8316108015906111f15750600360ff831611155b6112325760405162461bcd60e51b815260206004820152601260248201527124b73b30b634b210383932b234b1ba34b7b760711b604482015260640161070c565b600854811015801561124657506009548111155b6112875760405162461bcd60e51b8152602060048201526012602482015271125b9d985b1a590818995d08185b5bdd5b9d60721b604482015260640161070c565b6001600160a01b0384166000908152600460205260409020548111156112e65760405162461bcd60e51b8152602060048201526014602482015273496e73756666696369656e742062616c616e636560601b604482015260640161070c565b6001600160a01b0384166000908152600460205260408120805483929061130e908490611c4e565b90915550506000838152600c6020526040812060038101805491928492611336908490611c35565b909155505060001960ff841601611366578181600401600082825461135b9190611c35565b909155506113a09050565b60011960ff841601611386578181600501600082825461135b9190611c35565b8181600601600082825461139a9190611c35565b90915550505b6040805185815260ff851660208201529081018390526001600160a01b038616907fa2b349f6856d59e061c143afc631ee55f5a5c7aa6d201bf0b840cdb62492a26f90606001610807565b6113f361184a565b6001600160a01b03811661143a5760405162461bcd60e51b815260206004820152600e60248201526d496e76616c6964206f7261636c6560901b604482015260640161070c565b600380546001600160a01b038381166001600160a01b0319831681179093556040519116919082907f05cd89403c6bdeac21c2ff33de395121a31fa1bc2bf3adf4825f1f86e79969dd90600090a35050565b61149461184a565b600955565b6114a161184a565b610b68611a29565b6114b161184a565b600855565b6114be61184a565b600755565b6114cb611820565b6114d3611a66565b60075481101561151d5760405162461bcd60e51b815260206004820152601560248201527410995b1bddc81b5a5b9a5b5d5b4819195c1bdcda5d605a1b604482015260640161070c565b6002546040516323b872dd60e01b8152336004820152306024820152604481018390526101009091046001600160a01b0316906323b872dd906064016020604051808303816000875af1158015611578573d6000803e3d6000fd5b505050506040513d601f19601f8201168201806040525081019061159c9190611c61565b6115b85760405162461bcd60e51b815260040161070c90611c7e565b33600090815260046020526040812080548392906115d7908490611c35565b9250508190555080600560008282546115f09190611c35565b9091555050336000818152600b602090815260408083204290556004825291829020548251858152918201527f73a19dd210f1a7f902193214c0ee91dd35ee5b4d920cba8d519eca65a7b488ca9101610a40565b61164c61184a565b620151808111156116915760405162461bcd60e51b815260206004820152600f60248201526e4d61782031206461792064656c617960881b604482015260640161070c565b600a55565b61169e611820565b33600090815260046020526040902054806116e85760405162461bcd60e51b815260206004820152600a6024820152694e6f2062616c616e636560b01b604482015260640161070c565b3360009081526004602052604081208190556005805483929061170c908490611c4e565b909155505060025460405163a9059cbb60e01b8152336004820152602481018390526101009091046001600160a01b03169063a9059cbb906044016020604051808303816000875af1158015611766573d6000803e3d6000fd5b505050506040513d601f19601f8201168201806040525081019061178a9190611c61565b6117a65760405162461bcd60e51b815260040161070c90611c7e565b60405181815233907f2e39961a70a10f4d46383948095ac2752b3ee642a7c76aa827410aaff08c2e519060200160405180910390a250610b6860018055565b6117ed61184a565b6001600160a01b03811661181757604051631e4fbdf760e01b81526000600482015260240161070c565b610a51816119d9565b60026001540361184357604051633ee5aeb560e01b815260040160405180910390fd5b6002600155565b6000546001600160a01b03163314610b685760405163118cdaa760e01b815233600482015260240161070c565b61187f611a8a565b6002805460ff191690557f5db9ee0a495bf2e6ff9c91a7834c1ba4fdd244a5e8aa4e537bd38aeae4b073aa335b6040516001600160a01b03909116815260200160405180910390a1565b600680549060006118d983611cf9565b90915550506040805161014081018252600680548083524260208085018281526000868801818152606088018281526080890183815260a08a0184815260c08b0185815260e08c01868152610100808e018881526101208f018981529c8952600c8b52978f90209d518e55975160018e0155945160028d0155925160038c0155905160048b01555160058a015551888801555160079097018054915195511515620100000262ff00001996151590930261ffff1990921660ff90981697909717179390931692909217909355905492519182527f278844837bcf8364a705384bf3a2812901f54155bae86dea81dd52aa5b9ec0e3910160405180910390a2565b600080546001600160a01b038381166001600160a01b0319831681178455604051919092169283917f8be0079c531659141344cd1fd0a4f28419497f9722a3daafe3b4186f6b6457e09190a35050565b611a31611a66565b6002805460ff191660011790557f62e78cea01bee320cd4e420270b5ea74000d11b0c9f74754ebdbfc544b05a2586118ac3390565b60025460ff1615610b685760405163d93c066560e01b815260040160405180910390fd5b60025460ff16610b6857604051638dfc202b60e01b815260040160405180910390fd5b80356001600160a01b0381168114611ac457600080fd5b919050565b600060208284031215611adb57600080fd5b611ae482611aad565b9392505050565b8015158114610a5157600080fd5b60008060008060808587031215611b0f57600080fd5b611b1885611aad565b9350602085013592506040850135611b2f81611aeb565b9396929550929360600135925050565b600060208284031215611b5157600080fd5b5035919050565b600080600060608486031215611b6d57600080fd5b611b7684611aad565b95602085013595506040909401359392505050565b803560ff81168114611ac457600080fd5b60008060408385031215611baf57600080fd5b611bb883611b8b565b946020939093013593505050565b60008060008060808587031215611bdc57600080fd5b611be585611aad565b935060208501359250611b2f60408601611b8b565b6020808252600b908201526a4f6e6c79206f7261636c6560a81b604082015260600190565b634e487b7160e01b600052601160045260246000fd5b80820180821115611c4857611c48611c1f565b92915050565b81810381811115611c4857611c48611c1f565b600060208284031215611c7357600080fd5b8151611ae481611aeb565b6020808252600f908201526e151c985b9cd9995c8819985a5b1959608a1b604082015260600190565b600060208284031215611cb957600080fd5b5051919050565b8082028115828204841417611c4857611c48611c1f565b600082611cf457634e487b7160e01b600052601260045260246000fd5b500490565b600060018201611d0b57611d0b611c1f565b506001019056fea26469706673582212202c2ecb319e6d5d43e9f9170ca4f48863d0fe20c5d3922cd8e308650e6bbd036c64736f6c63430008140033","opcodes":"PUSH1 0x80 PUSH1 0x40 MSTORE PUSH9 0x3635C9ADC5DEA00000 PUSH1 0x7 SSTORE PUSH9 0x3635C9ADC5DEA00000 PUSH1 0x8 SSTORE PUSH10 0x152D02C7E14AF6800000 PUSH1 0x9 SSTORE PUSH1 0x0 PUSH1 0xA SSTORE CALLVALUE DUP1 ISZERO PUSH3 0x3E JUMPI PUSH1 0x0 DUP1 REVERT JUMPDEST POP PUSH1 0x40 MLOAD PUSH3 0x20B2 CODESIZE SUB DUP1 PUSH3 0x20B2 DUP4 CODECOPY DUP2 ADD PUSH1 0x40 DUP2 SWAP1 MSTORE PUSH3 0x61 SWAP2 PUSH3 0x2FA JUMP JUMPDEST CALLER DUP1 PUSH3 0x89 JUMPI PUSH1 0x40 MLOAD PUSH4 0x1E4FBDF7 PUSH1 0xE0 SHL DUP2 MSTORE PUSH1 0x0 PUSH1 0x4 DUP3 ADD MSTORE PUSH1 0x24 ADD JUMPDEST PUSH1 0x40 MLOAD DUP1 SWAP2 SUB SWAP1 REVERT JUMPDEST PUSH3 0x94 DUP2 PUSH3 0x17B JUMP JUMPDEST POP PUSH1 0x1 DUP1 SSTORE PUSH1 0x1 PUSH1 0x1 PUSH1 0xA0 SHL SUB DUP3 AND PUSH3 0xE1 JUMPI PUSH1 0x40 MLOAD PUSH3 0x461BCD PUSH1 0xE5 SHL DUP2 MSTORE PUSH1 0x20 PUSH1 0x4 DUP3 ADD MSTORE PUSH1 0xD PUSH1 0x24 DUP3 ADD MSTORE PUSH13 0x24B73B30B634B2103A37B5B2B7 PUSH1 0x99 SHL PUSH1 0x44 DUP3 ADD MSTORE PUSH1 0x64 ADD PUSH3 0x80 JUMP JUMPDEST PUSH1 0x1 PUSH1 0x1 PUSH1 0xA0 SHL SUB DUP2 AND PUSH3 0x12A JUMPI PUSH1 0x40 MLOAD PUSH3 0x461BCD PUSH1 0xE5 SHL DUP2 MSTORE PUSH1 0x20 PUSH1 0x4 DUP3 ADD MSTORE PUSH1 0xE PUSH1 0x24 DUP3 ADD MSTORE PUSH14 0x496E76616C6964206F7261636C65 PUSH1 0x90 SHL PUSH1 0x44 DUP3 ADD MSTORE PUSH1 0x64 ADD PUSH3 0x80 JUMP JUMPDEST PUSH1 0x2 DUP1 SLOAD PUSH2 0x100 PUSH1 0x1 PUSH1 0xA8 SHL SUB NOT AND PUSH2 0x100 PUSH1 0x1 PUSH1 0x1 PUSH1 0xA0 SHL SUB DUP6 DUP2 AND SWAP2 SWAP1 SWAP2 MUL SWAP2 SWAP1 SWAP2 OR SWAP1 SWAP2 SSTORE PUSH1 0x3 DUP1 SLOAD PUSH1 0x1 PUSH1 0x1 PUSH1 0xA0 SHL SUB NOT AND SWAP2 DUP4 AND SWAP2 SWAP1 SWAP2 OR SWAP1 SSTORE PUSH3 0x173 PUSH3 0x1CB JUMP JUMPDEST POP POP PUSH3 0x35A JUMP JUMPDEST PUSH1 0x0 DUP1 SLOAD PUSH1 0x1 PUSH1 0x1 PUSH1 0xA0 SHL SUB DUP4 DUP2 AND PUSH1 0x1 PUSH1 0x1 PUSH1 0xA0 SHL SUB NOT DUP4 AND DUP2 OR DUP5 SSTORE PUSH1 0x40 MLOAD SWAP2 SWAP1 SWAP3 AND SWAP3 DUP4 SWAP2 PUSH32 0x8BE0079C531659141344CD1FD0A4F28419497F9722A3DAAFE3B4186F6B6457E0 SWAP2 SWAP1 LOG3 POP POP JUMP JUMPDEST PUSH1 0x6 DUP1 SLOAD SWAP1 PUSH1 0x0 PUSH3 0x1DD DUP4 PUSH3 0x332 JUMP JUMPDEST SWAP1 SWAP2 SSTORE POP POP PUSH1 0x40 DUP1 MLOAD PUSH2 0x140 DUP2 ADD DUP3 MSTORE PUSH1 0x6 DUP1 SLOAD DUP1 DUP4 MSTORE TIMESTAMP PUSH1 0x20 DUP1 DUP6 ADD DUP3 DUP2 MSTORE PUSH1 0x0 DUP7 DUP9 ADD DUP2 DUP2 MSTORE PUSH1 0x60 DUP9 ADD DUP3 DUP2 MSTORE PUSH1 0x80 DUP10 ADD DUP4 DUP2 MSTORE PUSH1 0xA0 DUP11 ADD DUP5 DUP2 MSTORE PUSH1 0xC0 DUP12 ADD DUP6 DUP2 MSTORE PUSH1 0xE0 DUP13 ADD DUP7 DUP2 MSTORE PUSH2 0x100 DUP1 DUP15 ADD DUP9 DUP2 MSTORE PUSH2 0x120 DUP16 ADD DUP10 DUP2 MSTORE SWAP13 DUP10 MSTORE PUSH1 0xC DUP12 MSTORE SWAP8 DUP16 SWAP1 KECCAK256 SWAP14 MLOAD DUP15 SSTORE SWAP8 MLOAD PUSH1 0x1 DUP15 ADD SSTORE SWAP5 MLOAD PUSH1 0x2 DUP14 ADD SSTORE SWAP3 MLOAD PUSH1 0x3 DUP13 ADD SSTORE SWAP1 MLOAD PUSH1 0x4 DUP12 ADD SSTORE MLOAD PUSH1 0x5 DUP11 ADD SSTORE MLOAD DUP9 DUP9 ADD SSTORE MLOAD PUSH1 0x7 SWAP1 SWAP8 ADD DUP1 SLOAD SWAP2 MLOAD SWAP6 MLOAD ISZERO ISZERO PUSH3 0x10000 MUL PUSH3 0xFF0000 NOT SWAP7 ISZERO ISZERO SWAP1 SWAP4 MUL PUSH2 0xFFFF NOT SWAP1 SWAP3 AND PUSH1 0xFF SWAP1 SWAP9 AND SWAP8 SWAP1 SWAP8 OR OR SWAP4 SWAP1 SWAP4 AND SWAP3 SWAP1 SWAP3 OR SWAP1 SWAP4 SSTORE SWAP1 SLOAD SWAP3 MLOAD SWAP2 DUP3 MSTORE PUSH32 0x278844837BCF8364A705384BF3A2812901F54155BAE86DEA81DD52AA5B9EC0E3 SWAP2 ADD PUSH1 0x40 MLOAD DUP1 SWAP2 SUB SWAP1 LOG2 JUMP JUMPDEST DUP1 MLOAD PUSH1 0x1 PUSH1 0x1 PUSH1 0xA0 SHL SUB DUP2 AND DUP2 EQ PUSH3 0x2F5 JUMPI PUSH1 0x0 DUP1 REVERT JUMPDEST SWAP2 SWAP1 POP JUMP JUMPDEST PUSH1 0x0 DUP1 PUSH1 0x40 DUP4 DUP6 SUB SLT ISZERO PUSH3 0x30E JUMPI PUSH1 0x0 DUP1 REVERT JUMPDEST PUSH3 0x319 DUP4 PUSH3 0x2DD JUMP JUMPDEST SWAP2 POP PUSH3 0x329 PUSH1 0x20 DUP5 ADD PUSH3 0x2DD JUMP JUMPDEST SWAP1 POP SWAP3 POP SWAP3 SWAP1 POP JUMP JUMPDEST PUSH1 0x0 PUSH1 0x1 DUP3 ADD PUSH3 0x353 JUMPI PUSH4 0x4E487B71 PUSH1 0xE0 SHL PUSH1 0x0 MSTORE PUSH1 0x11 PUSH1 0x4 MSTORE PUSH1 0x24 PUSH1 0x0 REVERT JUMPDEST POP PUSH1 0x1 ADD SWAP1 JUMP JUMPDEST PUSH2 0x1D48 DUP1 PUSH3 0x36A PUSH1 0x0 CODECOPY PUSH1 0x0 RETURN INVALID PUSH1 0x80 PUSH1 0x40 MSTORE CALLVALUE DUP1 ISZERO PUSH2 0x10 JUMPI PUSH1 0x0 DUP1 REVERT JUMPDEST POP PUSH1 0x4 CALLDATASIZE LT PUSH2 0x274 JUMPI PUSH1 0x0 CALLDATALOAD PUSH1 0xE0 SHR DUP1 PUSH4 0x7D882097 GT PUSH2 0x151 JUMPI DUP1 PUSH4 0xA32BF597 GT PUSH2 0xC3 JUMPI DUP1 PUSH4 0xD2C13DA5 GT PUSH2 0x87 JUMPI DUP1 PUSH4 0xD2C13DA5 EQ PUSH2 0x679 JUMPI DUP1 PUSH4 0xD73792A9 EQ PUSH2 0x68C JUMPI DUP1 PUSH4 0xD89135CD EQ PUSH2 0x695 JUMPI DUP1 PUSH4 0xDB2E21BC EQ PUSH2 0x69E JUMPI DUP1 PUSH4 0xF2FDE38B EQ PUSH2 0x6A6 JUMPI DUP1 PUSH4 0xF8B2CB4F EQ PUSH2 0x6B9 JUMPI PUSH1 0x0 DUP1 REVERT JUMPDEST DUP1 PUSH4 0xA32BF597 EQ PUSH2 0x5D1 JUMPI DUP1 PUSH4 0xA7AB6961 EQ PUSH2 0x64C JUMPI DUP1 PUSH4 0xB6B55F25 EQ PUSH2 0x655 JUMPI DUP1 PUSH4 0xC0A2526C EQ PUSH2 0x668 JUMPI DUP1 PUSH4 0xCAB11D5D EQ PUSH2 0x670 JUMPI PUSH1 0x0 DUP1 REVERT JUMPDEST DUP1 PUSH4 0x898443D8 GT PUSH2 0x115 JUMPI DUP1 PUSH4 0x898443D8 EQ PUSH2 0x4CB JUMPI DUP1 PUSH4 0x8C65C81F EQ PUSH2 0x4E3 JUMPI DUP1 PUSH4 0x8DA5CB5B EQ PUSH2 0x59B JUMPI DUP1 PUSH4 0x8FCC9CFB EQ PUSH2 0x5AC JUMPI DUP1 PUSH4 0x9619367D EQ PUSH2 0x5BF JUMPI DUP1 PUSH4 0x9CBE5EFD EQ PUSH2 0x5C8 JUMPI PUSH1 0x0 DUP1 REVERT JUMPDEST DUP1 PUSH4 0x7D882097 EQ PUSH2 0x3EA JUMPI DUP1 PUSH4 0x7DC0D1D0 EQ PUSH2 0x3F3 JUMPI DUP1 PUSH4 0x8456CB59 EQ PUSH2 0x41E JUMPI DUP1 PUSH4 0x88C3FFB0 EQ PUSH2 0x426 JUMPI DUP1 PUSH4 0x88EA41B9 EQ PUSH2 0x4B8 JUMPI PUSH1 0x0 DUP1 REVERT JUMPDEST DUP1 PUSH4 0x49EDFB94 GT PUSH2 0x1EA JUMPI DUP1 PUSH4 0x6F9FB98A GT PUSH2 0x1AE JUMPI DUP1 PUSH4 0x6F9FB98A EQ PUSH2 0x399 JUMPI DUP1 PUSH4 0x715018A6 EQ PUSH2 0x3A1 JUMPI DUP1 PUSH4 0x77C1B970 EQ PUSH2 0x3A9 JUMPI DUP1 PUSH4 0x7ADBF973 EQ PUSH2 0x3BC JUMPI DUP1 PUSH4 0x7B1F12A8 EQ PUSH2 0x3CF JUMPI DUP1 PUSH4 0x7CFBC7A5 EQ PUSH2 0x3D7 JUMPI PUSH1 0x0 DUP1 REVERT JUMPDEST DUP1 PUSH4 0x49EDFB94 EQ PUSH2 0x34B JUMPI DUP1 PUSH4 0x5443B139 EQ PUSH2 0x354 JUMPI DUP1 PUSH4 0x5C975ABB EQ PUSH2 0x367 JUMPI DUP1 PUSH4 0x5CE23950 EQ PUSH2 0x37E JUMPI DUP1 PUSH4 0x5E519FF6 EQ PUSH2 0x386 JUMPI PUSH1 0x0 DUP1 REVERT JUMPDEST DUP1 PUSH4 0x386CD8F1 GT PUSH2 0x23C JUMPI DUP1 PUSH4 0x386CD8F1 EQ PUSH2 0x2FC JUMPI DUP1 PUSH4 0x3E36F4C7 EQ PUSH2 0x305 JUMPI DUP1 PUSH4 0x3F054846 EQ PUSH2 0x31F JUMPI DUP1 PUSH4 0x3F4BA83A EQ PUSH2 0x332 JUMPI DUP1 PUSH4 0x41B3D185 EQ PUSH2 0x33A JUMPI DUP1 PUSH4 0x476343EE EQ PUSH2 0x343 JUMPI PUSH1 0x0 DUP1 REVERT JUMPDEST DUP1 PUSH4 0x2527753 EQ PUSH2 0x279 JUMPI DUP1 PUSH4 0x9DDD43B EQ PUSH2 0x2AC JUMPI DUP1 PUSH4 0x24BA6556 EQ PUSH2 0x2C1 JUMPI DUP1 PUSH4 0x27E235E3 EQ PUSH2 0x2C9 JUMPI DUP1 PUSH4 0x2E1A7D4D EQ PUSH2 0x2E9 JUMPI JUMPDEST PUSH1 0x0 DUP1 REVERT JUMPDEST PUSH2 0x299 PUSH2 0x287 CALLDATASIZE PUSH1 0x4 PUSH2 0x1AC9 JUMP JUMPDEST PUSH1 0xB PUSH1 0x20 MSTORE PUSH1 0x0 SWAP1 DUP2 MSTORE PUSH1 0x40 SWAP1 KECCAK256 SLOAD DUP2 JUMP JUMPDEST PUSH1 0x40 MLOAD SWAP1 DUP2 MSTORE PUSH1 0x20 ADD JUMPDEST PUSH1 0x40 MLOAD DUP1 SWAP2 SUB SWAP1 RETURN JUMPDEST PUSH2 0x2BF PUSH2 0x2BA CALLDATASIZE PUSH1 0x4 PUSH2 0x1AF9 JUMP JUMPDEST PUSH2 0x6E2 JUMP JUMPDEST STOP JUMPDEST PUSH2 0x299 PUSH1 0xC8 DUP2 JUMP JUMPDEST PUSH2 0x299 PUSH2 0x2D7 CALLDATASIZE PUSH1 0x4 PUSH2 0x1AC9 JUMP JUMPDEST PUSH1 0x4 PUSH1 0x20 MSTORE PUSH1 0x0 SWAP1 DUP2 MSTORE PUSH1 0x40 SWAP1 KECCAK256 SLOAD DUP2 JUMP JUMPDEST PUSH2 0x2BF PUSH2 0x2F7 CALLDATASIZE PUSH1 0x4 PUSH2 0x1B3F JUMP JUMPDEST PUSH2 0x816 JUMP JUMPDEST PUSH2 0x299 PUSH1 0xD SLOAD DUP2 JUMP JUMPDEST PUSH2 0x30D PUSH1 0x1 DUP2 JUMP JUMPDEST PUSH1 0x40 MLOAD PUSH1 0xFF SWAP1 SWAP2 AND DUP2 MSTORE PUSH1 0x20 ADD PUSH2 0x2A3 JUMP JUMPDEST PUSH2 0x2BF PUSH2 0x32D CALLDATASIZE PUSH1 0x4 PUSH2 0x1B58 JUMP JUMPDEST PUSH2 0xA54 JUMP JUMPDEST PUSH2 0x2BF PUSH2 0xB58 JUMP JUMPDEST PUSH2 0x299 PUSH1 0x7 SLOAD DUP2 JUMP JUMPDEST PUSH2 0x2BF PUSH2 0xB6A JUMP JUMPDEST PUSH2 0x299 PUSH2 0x12C DUP2 JUMP JUMPDEST PUSH2 0x2BF PUSH2 0x362 CALLDATASIZE PUSH1 0x4 PUSH2 0x1B3F JUMP JUMPDEST PUSH2 0xCB8 JUMP JUMPDEST PUSH1 0x2 SLOAD PUSH1 0xFF AND JUMPDEST PUSH1 0x40 MLOAD SWAP1 ISZERO ISZERO DUP2 MSTORE PUSH1 0x20 ADD PUSH2 0x2A3 JUMP JUMPDEST PUSH2 0x36E PUSH2 0xDDD JUMP JUMPDEST PUSH2 0x2BF PUSH2 0x394 CALLDATASIZE PUSH1 0x4 PUSH2 0x1B9C JUMP JUMPDEST PUSH2 0xE5A JUMP JUMPDEST PUSH2 0x299 PUSH2 0x1091 JUMP JUMPDEST PUSH2 0x2BF PUSH2 0x1108 JUMP JUMPDEST PUSH2 0x2BF PUSH2 0x3B7 CALLDATASIZE PUSH1 0x4 PUSH2 0x1BC6 JUMP JUMPDEST PUSH2 0x111A JUMP JUMPDEST PUSH2 0x2BF PUSH2 0x3CA CALLDATASIZE PUSH1 0x4 PUSH2 0x1AC9 JUMP JUMPDEST PUSH2 0x13EB JUMP JUMPDEST PUSH2 0x30D PUSH1 0x3 DUP2 JUMP JUMPDEST PUSH2 0x2BF PUSH2 0x3E5 CALLDATASIZE PUSH1 0x4 PUSH2 0x1B3F JUMP JUMPDEST PUSH2 0x148C JUMP JUMPDEST PUSH2 0x299 PUSH1 0x5 SLOAD DUP2 JUMP JUMPDEST PUSH1 0x3 SLOAD PUSH2 0x406 SWAP1 PUSH1 0x1 PUSH1 0x1 PUSH1 0xA0 SHL SUB AND DUP2 JUMP JUMPDEST PUSH1 0x40 MLOAD PUSH1 0x1 PUSH1 0x1 PUSH1 0xA0 SHL SUB SWAP1 SWAP2 AND DUP2 MSTORE PUSH1 0x20 ADD PUSH2 0x2A3 JUMP JUMPDEST PUSH2 0x2BF PUSH2 0x1499 JUMP JUMPDEST PUSH2 0x47C PUSH2 0x434 CALLDATASIZE PUSH1 0x4 PUSH2 0x1B3F JUMP JUMPDEST PUSH1 0x0 SWAP1 DUP2 MSTORE PUSH1 0xC PUSH1 0x20 MSTORE PUSH1 0x40 SWAP1 KECCAK256 DUP1 SLOAD PUSH1 0x1 DUP3 ADD SLOAD PUSH1 0x2 DUP4 ADD SLOAD PUSH1 0x3 DUP5 ADD SLOAD PUSH1 0x7 SWAP1 SWAP5 ADD SLOAD SWAP3 SWAP5 SWAP2 SWAP4 SWAP1 SWAP3 SWAP1 SWAP2 PUSH1 0xFF DUP1 DUP4 AND SWAP3 PUSH2 0x100 DUP2 DIV DUP3 AND SWAP3 PUSH3 0x10000 SWAP1 SWAP2 DIV SWAP1 SWAP2 AND SWAP1 JUMP JUMPDEST PUSH1 0x40 DUP1 MLOAD SWAP8 DUP9 MSTORE PUSH1 0x20 DUP9 ADD SWAP7 SWAP1 SWAP7 MSTORE SWAP5 DUP7 ADD SWAP4 SWAP1 SWAP4 MSTORE PUSH1 0x60 DUP6 ADD SWAP2 SWAP1 SWAP2 MSTORE PUSH1 0xFF AND PUSH1 0x80 DUP5 ADD MSTORE ISZERO ISZERO PUSH1 0xA0 DUP4 ADD MSTORE ISZERO ISZERO PUSH1 0xC0 DUP3 ADD MSTORE PUSH1 0xE0 ADD PUSH2 0x2A3 JUMP JUMPDEST PUSH2 0x2BF PUSH2 0x4C6 CALLDATASIZE PUSH1 0x4 PUSH2 0x1B3F JUMP JUMPDEST PUSH2 0x14A9 JUMP JUMPDEST PUSH1 0x2 SLOAD PUSH2 0x406 SWAP1 PUSH2 0x100 SWAP1 DIV PUSH1 0x1 PUSH1 0x1 PUSH1 0xA0 SHL SUB AND DUP2 JUMP JUMPDEST PUSH2 0x54A PUSH2 0x4F1 CALLDATASIZE PUSH1 0x4 PUSH2 0x1B3F JUMP JUMPDEST PUSH1 0xC PUSH1 0x20 MSTORE PUSH1 0x0 SWAP1 DUP2 MSTORE PUSH1 0x40 SWAP1 KECCAK256 DUP1 SLOAD PUSH1 0x1 DUP3 ADD SLOAD PUSH1 0x2 DUP4 ADD SLOAD PUSH1 0x3 DUP5 ADD SLOAD PUSH1 0x4 DUP6 ADD SLOAD PUSH1 0x5 DUP7 ADD SLOAD PUSH1 0x6 DUP8 ADD SLOAD PUSH1 0x7 SWAP1 SWAP8 ADD SLOAD SWAP6 SWAP7 SWAP5 SWAP6 SWAP4 SWAP5 SWAP3 SWAP4 SWAP2 SWAP3 SWAP1 SWAP2 PUSH1 0xFF DUP1 DUP3 AND SWAP2 PUSH2 0x100 DUP2 DIV DUP3 AND SWAP2 PUSH3 0x10000 SWAP1 SWAP2 DIV AND DUP11 JUMP JUMPDEST PUSH1 0x40 DUP1 MLOAD SWAP11 DUP12 MSTORE PUSH1 0x20 DUP12 ADD SWAP10 SWAP1 SWAP10 MSTORE SWAP8 DUP10 ADD SWAP7 SWAP1 SWAP7 MSTORE PUSH1 0x60 DUP9 ADD SWAP5 SWAP1 SWAP5 MSTORE PUSH1 0x80 DUP8 ADD SWAP3 SWAP1 SWAP3 MSTORE PUSH1 0xA0 DUP7 ADD MSTORE PUSH1 0xC0 DUP6 ADD MSTORE PUSH1 0xFF AND PUSH1 0xE0 DUP5 ADD MSTORE ISZERO ISZERO PUSH2 0x100 DUP4 ADD MSTORE ISZERO ISZERO PUSH2 0x120 DUP3 ADD MSTORE PUSH2 0x140 ADD PUSH2 0x2A3 JUMP JUMPDEST PUSH1 0x0 SLOAD PUSH1 0x1 PUSH1 0x1 PUSH1 0xA0 SHL SUB AND PUSH2 0x406 JUMP JUMPDEST PUSH2 0x2BF PUSH2 0x5BA CALLDATASIZE PUSH1 0x4 PUSH2 0x1B3F JUMP JUMPDEST PUSH2 0x14B6 JUMP JUMPDEST PUSH2 0x299 PUSH1 0x8 SLOAD DUP2 JUMP JUMPDEST PUSH2 0x299 PUSH1 0x6 SLOAD DUP2 JUMP JUMPDEST PUSH1 0x6 DUP1 SLOAD PUSH1 0x0 SWAP1 DUP2 MSTORE PUSH1 0xC PUSH1 0x20 MSTORE PUSH1 0x40 SWAP1 KECCAK256 DUP1 SLOAD PUSH1 0x1 DUP3 ADD SLOAD PUSH1 0x3 DUP4 ADD SLOAD PUSH1 0x4 DUP5 ADD SLOAD PUSH1 0x5 DUP6 ADD SLOAD SWAP6 DUP6 ADD SLOAD PUSH1 0x7 SWAP1 SWAP6 ADD SLOAD SWAP4 SWAP6 SWAP3 SWAP5 SWAP2 SWAP4 SWAP1 SWAP3 SWAP2 SWAP1 PUSH2 0x100 SWAP1 DIV PUSH1 0xFF AND PUSH1 0x40 DUP1 MLOAD SWAP8 DUP9 MSTORE PUSH1 0x20 DUP9 ADD SWAP7 SWAP1 SWAP7 MSTORE SWAP5 DUP7 ADD SWAP4 SWAP1 SWAP4 MSTORE PUSH1 0x60 DUP6 ADD SWAP2 SWAP1 SWAP2 MSTORE PUSH1 0x80 DUP5 ADD MSTORE PUSH1 0xA0 DUP4 ADD MSTORE ISZERO ISZERO PUSH1 0xC0 DUP3 ADD MSTORE PUSH1 0xE0 ADD PUSH2 0x2A3 JUMP JUMPDEST PUSH2 0x299 PUSH1 0xA SLOAD DUP2 JUMP JUMPDEST PUSH2 0x2BF PUSH2 0x663 CALLDATASIZE PUSH1 0x4 PUSH2 0x1B3F JUMP JUMPDEST PUSH2 0x14C3 JUMP JUMPDEST PUSH2 0x30D PUSH1 0x2 DUP2 JUMP JUMPDEST PUSH2 0x299 PUSH1 0x9 SLOAD DUP2 JUMP JUMPDEST PUSH2 0x2BF PUSH2 0x687 CALLDATASIZE PUSH1 0x4 PUSH2 0x1B3F JUMP JUMPDEST PUSH2 0x1644 JUMP JUMPDEST PUSH2 0x299 PUSH2 0x2710 DUP2 JUMP JUMPDEST PUSH2 0x299 PUSH1 0xE SLOAD DUP2 JUMP JUMPDEST PUSH2 0x2BF PUSH2 0x1696 JUMP JUMPDEST PUSH2 0x2BF PUSH2 0x6B4 CALLDATASIZE PUSH1 0x4 PUSH2 0x1AC9 JUMP JUMPDEST PUSH2 0x17E5 JUMP JUMPDEST PUSH2 0x299 PUSH2 0x6C7 CALLDATASIZE PUSH1 0x4 PUSH2 0x1AC9 JUMP JUMPDEST PUSH1 0x1 PUSH1 0x1 PUSH1 0xA0 SHL SUB AND PUSH1 0x0 SWAP1 DUP2 MSTORE PUSH1 0x4 PUSH1 0x20 MSTORE PUSH1 0x40 SWAP1 KECCAK256 SLOAD SWAP1 JUMP JUMPDEST PUSH1 0x3 SLOAD PUSH1 0x1 PUSH1 0x1 PUSH1 0xA0 SHL SUB AND CALLER EQ PUSH2 0x715 JUMPI PUSH1 0x40 MLOAD PUSH3 0x461BCD PUSH1 0xE5 SHL DUP2 MSTORE PUSH1 0x4 ADD PUSH2 0x70C SWAP1 PUSH2 0x1BFA JUMP JUMPDEST PUSH1 0x40 MLOAD DUP1 SWAP2 SUB SWAP1 REVERT JUMPDEST PUSH1 0x0 DUP4 DUP2 MSTORE PUSH1 0xC PUSH1 0x20 MSTORE PUSH1 0x40 SWAP1 KECCAK256 PUSH1 0x7 ADD SLOAD PUSH2 0x100 SWAP1 DIV PUSH1 0xFF AND PUSH2 0x76E JUMPI PUSH1 0x40 MLOAD PUSH3 0x461BCD PUSH1 0xE5 SHL DUP2 MSTORE PUSH1 0x20 PUSH1 0x4 DUP3 ADD MSTORE PUSH1 0x10 PUSH1 0x24 DUP3 ADD MSTORE PUSH16 0x149BDD5B99081B9BDD0818DB1BDCD959 PUSH1 0x82 SHL PUSH1 0x44 DUP3 ADD MSTORE PUSH1 0x64 ADD PUSH2 0x70C JUMP JUMPDEST DUP2 DUP1 ISZERO PUSH2 0x77B JUMPI POP PUSH1 0x0 DUP2 GT JUMPDEST ISZERO PUSH2 0x7AE JUMPI PUSH1 0x1 PUSH1 0x1 PUSH1 0xA0 SHL SUB DUP5 AND PUSH1 0x0 SWAP1 DUP2 MSTORE PUSH1 0x4 PUSH1 0x20 MSTORE PUSH1 0x40 DUP2 KECCAK256 DUP1 SLOAD DUP4 SWAP3 SWAP1 PUSH2 0x7A8 SWAP1 DUP5 SWAP1 PUSH2 0x1C35 JUMP JUMPDEST SWAP1 SWAP2 SSTORE POP POP JUMPDEST PUSH1 0x0 DUP3 PUSH2 0x7BC JUMPI PUSH1 0x0 PUSH2 0x7BE JUMP JUMPDEST DUP2 JUMPDEST PUSH1 0x40 DUP1 MLOAD DUP7 DUP2 MSTORE DUP6 ISZERO ISZERO PUSH1 0x20 DUP3 ADD MSTORE SWAP1 DUP2 ADD DUP3 SWAP1 MSTORE SWAP1 SWAP2 POP PUSH1 0x1 PUSH1 0x1 PUSH1 0xA0 SHL SUB DUP7 AND SWAP1 PUSH32 0x992EE81395F0913FD4B06B5D1464FFFC940D12650DC9D8F081D0B6252244457C SWAP1 PUSH1 0x60 ADD JUMPDEST PUSH1 0x40 MLOAD DUP1 SWAP2 SUB SWAP1 LOG2 POP POP POP POP POP JUMP JUMPDEST PUSH2 0x81E PUSH2 0x1820 JUMP JUMPDEST PUSH1 0x0 DUP2 GT PUSH2 0x863 JUMPI PUSH1 0x40 MLOAD PUSH3 0x461BCD PUSH1 0xE5 SHL DUP2 MSTORE PUSH1 0x20 PUSH1 0x4 DUP3 ADD MSTORE PUSH1 0x12 PUSH1 0x24 DUP3 ADD MSTORE PUSH18 0x416D6F756E74206D757374206265203E203 PUSH1 0x74 SHL PUSH1 0x44 DUP3 ADD MSTORE PUSH1 0x64 ADD PUSH2 0x70C JUMP JUMPDEST CALLER PUSH1 0x0 SWAP1 DUP2 MSTORE PUSH1 0x4 PUSH1 0x20 MSTORE PUSH1 0x40 SWAP1 KECCAK256 SLOAD DUP2 GT ISZERO PUSH2 0x8B9 JUMPI PUSH1 0x40 MLOAD PUSH3 0x461BCD PUSH1 0xE5 SHL DUP2 MSTORE PUSH1 0x20 PUSH1 0x4 DUP3 ADD MSTORE PUSH1 0x14 PUSH1 0x24 DUP3 ADD MSTORE PUSH20 0x496E73756666696369656E742062616C616E6365 PUSH1 0x60 SHL PUSH1 0x44 DUP3 ADD MSTORE PUSH1 0x64 ADD PUSH2 0x70C JUMP JUMPDEST PUSH1 0xA SLOAD ISZERO PUSH2 0x92D JUMPI PUSH1 0xA SLOAD CALLER PUSH1 0x0 SWAP1 DUP2 MSTORE PUSH1 0xB PUSH1 0x20 MSTORE PUSH1 0x40 SWAP1 KECCAK256 SLOAD PUSH2 0x8DE SWAP2 SWAP1 PUSH2 0x1C35 JUMP JUMPDEST TIMESTAMP LT ISZERO PUSH2 0x92D JUMPI PUSH1 0x40 MLOAD PUSH3 0x461BCD PUSH1 0xE5 SHL DUP2 MSTORE PUSH1 0x20 PUSH1 0x4 DUP3 ADD MSTORE PUSH1 0x18 PUSH1 0x24 DUP3 ADD MSTORE PUSH32 0x5769746864726177616C2064656C6179206E6F74206D65740000000000000000 PUSH1 0x44 DUP3 ADD MSTORE PUSH1 0x64 ADD PUSH2 0x70C JUMP JUMPDEST CALLER PUSH1 0x0 SWAP1 DUP2 MSTORE PUSH1 0x4 PUSH1 0x20 MSTORE PUSH1 0x40 DUP2 KECCAK256 DUP1 SLOAD DUP4 SWAP3 SWAP1 PUSH2 0x94C SWAP1 DUP5 SWAP1 PUSH2 0x1C4E JUMP JUMPDEST SWAP3 POP POP DUP2 SWAP1 SSTORE POP DUP1 PUSH1 0x5 PUSH1 0x0 DUP3 DUP3 SLOAD PUSH2 0x965 SWAP2 SWAP1 PUSH2 0x1C4E JUMP JUMPDEST SWAP1 SWAP2 SSTORE POP POP PUSH1 0x2 SLOAD PUSH1 0x40 MLOAD PUSH4 0xA9059CBB PUSH1 0xE0 SHL DUP2 MSTORE CALLER PUSH1 0x4 DUP3 ADD MSTORE PUSH1 0x24 DUP2 ADD DUP4 SWAP1 MSTORE PUSH2 0x100 SWAP1 SWAP2 DIV PUSH1 0x1 PUSH1 0x1 PUSH1 0xA0 SHL SUB AND SWAP1 PUSH4 0xA9059CBB SWAP1 PUSH1 0x44 ADD PUSH1 0x20 PUSH1 0x40 MLOAD DUP1 DUP4 SUB DUP2 PUSH1 0x0 DUP8 GAS CALL ISZERO DUP1 ISZERO PUSH2 0x9BF JUMPI RETURNDATASIZE PUSH1 0x0 DUP1 RETURNDATACOPY RETURNDATASIZE PUSH1 0x0 REVERT JUMPDEST POP POP POP POP PUSH1 0x40 MLOAD RETURNDATASIZE PUSH1 0x1F NOT PUSH1 0x1F DUP3 ADD AND DUP3 ADD DUP1 PUSH1 0x40 MSTORE POP DUP2 ADD SWAP1 PUSH2 0x9E3 SWAP2 SWAP1 PUSH2 0x1C61 JUMP JUMPDEST PUSH2 0x9FF JUMPI PUSH1 0x40 MLOAD PUSH3 0x461BCD PUSH1 0xE5 SHL DUP2 MSTORE PUSH1 0x4 ADD PUSH2 0x70C SWAP1 PUSH2 0x1C7E JUMP JUMPDEST CALLER PUSH1 0x0 DUP2 DUP2 MSTORE PUSH1 0x4 PUSH1 0x20 SWAP1 DUP2 MSTORE PUSH1 0x40 SWAP2 DUP3 SWAP1 KECCAK256 SLOAD DUP3 MLOAD DUP6 DUP2 MSTORE SWAP2 DUP3 ADD MSTORE PUSH32 0x92CCF450A286A957AF52509BC1C9939D1A6A481783E142E41E2499F0BB66EBC6 SWAP2 ADD JUMPDEST PUSH1 0x40 MLOAD DUP1 SWAP2 SUB SWAP1 LOG2 PUSH2 0xA51 PUSH1 0x1 DUP1 SSTORE JUMP JUMPDEST POP JUMP JUMPDEST PUSH1 0x3 SLOAD PUSH1 0x1 PUSH1 0x1 PUSH1 0xA0 SHL SUB AND CALLER EQ PUSH2 0xA7E JUMPI PUSH1 0x40 MLOAD PUSH3 0x461BCD PUSH1 0xE5 SHL DUP2 MSTORE PUSH1 0x4 ADD PUSH2 0x70C SWAP1 PUSH2 0x1BFA JUMP JUMPDEST PUSH1 0x0 DUP3 DUP2 MSTORE PUSH1 0xC PUSH1 0x20 MSTORE PUSH1 0x40 SWAP1 KECCAK256 PUSH1 0x7 ADD SLOAD PUSH3 0x10000 SWAP1 DIV PUSH1 0xFF AND PUSH2 0xADA JUMPI PUSH1 0x40 MLOAD PUSH3 0x461BCD PUSH1 0xE5 SHL DUP2 MSTORE PUSH1 0x20 PUSH1 0x4 DUP3 ADD MSTORE PUSH1 0x12 PUSH1 0x24 DUP3 ADD MSTORE PUSH18 0x149BDD5B99081B9BDD081C99599D5B991959 PUSH1 0x72 SHL PUSH1 0x44 DUP3 ADD MSTORE PUSH1 0x64 ADD PUSH2 0x70C JUMP JUMPDEST PUSH1 0x1 PUSH1 0x1 PUSH1 0xA0 SHL SUB DUP4 AND PUSH1 0x0 SWAP1 DUP2 MSTORE PUSH1 0x4 PUSH1 0x20 MSTORE PUSH1 0x40 DUP2 KECCAK256 DUP1 SLOAD DUP4 SWAP3 SWAP1 PUSH2 0xB02 SWAP1 DUP5 SWAP1 PUSH2 0x1C35 JUMP JUMPDEST SWAP1 SWAP2 SSTORE POP POP PUSH1 0x40 DUP1 MLOAD DUP4 DUP2 MSTORE PUSH1 0x0 PUSH1 0x20 DUP3 ADD MSTORE SWAP1 DUP2 ADD DUP3 SWAP1 MSTORE PUSH1 0x1 PUSH1 0x1 PUSH1 0xA0 SHL SUB DUP5 AND SWAP1 PUSH32 0x992EE81395F0913FD4B06B5D1464FFFC940D12650DC9D8F081D0B6252244457C SWAP1 PUSH1 0x60 ADD PUSH1 0x40 MLOAD DUP1 SWAP2 SUB SWAP1 LOG2 POP POP POP JUMP JUMPDEST PUSH2 0xB60 PUSH2 0x184A JUMP JUMPDEST PUSH2 0xB68 PUSH2 0x1877 JUMP JUMPDEST JUMP JUMPDEST PUSH2 0xB72 PUSH2 0x184A JUMP JUMPDEST PUSH1 0xD SLOAD DUP1 PUSH2 0xBAC JUMPI PUSH1 0x40 MLOAD PUSH3 0x461BCD PUSH1 0xE5 SHL DUP2 MSTORE PUSH1 0x20 PUSH1 0x4 DUP3 ADD MSTORE PUSH1 0x7 PUSH1 0x24 DUP3 ADD MSTORE PUSH7 0x4E6F2066656573 PUSH1 0xC8 SHL PUSH1 0x44 DUP3 ADD MSTORE PUSH1 0x64 ADD PUSH2 0x70C JUMP JUMPDEST PUSH1 0x0 PUSH1 0xD SSTORE PUSH1 0x2 SLOAD PUSH1 0x1 PUSH1 0x1 PUSH1 0xA0 SHL SUB PUSH2 0x100 SWAP1 SWAP2 DIV AND PUSH4 0xA9059CBB PUSH2 0xBDA PUSH1 0x0 SLOAD PUSH1 0x1 PUSH1 0x1 PUSH1 0xA0 SHL SUB AND SWAP1 JUMP JUMPDEST PUSH1 0x40 MLOAD PUSH1 0x1 PUSH1 0x1 PUSH1 0xE0 SHL SUB NOT PUSH1 0xE0 DUP5 SWAP1 SHL AND DUP2 MSTORE PUSH1 0x1 PUSH1 0x1 PUSH1 0xA0 SHL SUB SWAP1 SWAP2 AND PUSH1 0x4 DUP3 ADD MSTORE PUSH1 0x24 DUP2 ADD DUP5 SWAP1 MSTORE PUSH1 0x44 ADD PUSH1 0x20 PUSH1 0x40 MLOAD DUP1 DUP4 SUB DUP2 PUSH1 0x0 DUP8 GAS CALL ISZERO DUP1 ISZERO PUSH2 0xC27 JUMPI RETURNDATASIZE PUSH1 0x0 DUP1 RETURNDATACOPY RETURNDATASIZE PUSH1 0x0 REVERT JUMPDEST POP POP POP POP PUSH1 0x40 MLOAD RETURNDATASIZE PUSH1 0x1F NOT PUSH1 0x1F DUP3 ADD AND DUP3 ADD DUP1 PUSH1 0x40 MSTORE POP DUP2 ADD SWAP1 PUSH2 0xC4B SWAP2 SWAP1 PUSH2 0x1C61 JUMP JUMPDEST PUSH2 0xC67 JUMPI PUSH1 0x40 MLOAD PUSH3 0x461BCD PUSH1 0xE5 SHL DUP2 MSTORE PUSH1 0x4 ADD PUSH2 0x70C SWAP1 PUSH2 0x1C7E JUMP JUMPDEST PUSH1 0x0 SLOAD PUSH1 0x1 PUSH1 0x1 PUSH1 0xA0 SHL SUB AND PUSH1 0x1 PUSH1 0x1 PUSH1 0xA0 SHL SUB AND PUSH32 0xC0819C13BE868895EB93E40EACEB96DE976442FA1D404E5C55F14BB65A8C489A DUP3 PUSH1 0x40 MLOAD PUSH2 0xCAD SWAP2 DUP2 MSTORE PUSH1 0x20 ADD SWAP1 JUMP JUMPDEST PUSH1 0x40 MLOAD DUP1 SWAP2 SUB SWAP1 LOG2 POP JUMP JUMPDEST PUSH1 0x3 SLOAD PUSH1 0x1 PUSH1 0x1 PUSH1 0xA0 SHL SUB AND CALLER EQ PUSH2 0xCE2 JUMPI PUSH1 0x40 MLOAD PUSH3 0x461BCD PUSH1 0xE5 SHL DUP2 MSTORE PUSH1 0x4 ADD PUSH2 0x70C SWAP1 PUSH2 0x1BFA JUMP JUMPDEST PUSH1 0x0 DUP2 DUP2 MSTORE PUSH1 0xC PUSH1 0x20 MSTORE PUSH1 0x40 SWAP1 KECCAK256 PUSH1 0x7 DUP2 ADD SLOAD PUSH3 0x10000 SWAP1 DIV PUSH1 0xFF AND ISZERO PUSH2 0xD3E JUMPI PUSH1 0x40 MLOAD PUSH3 0x461BCD PUSH1 0xE5 SHL DUP2 MSTORE PUSH1 0x20 PUSH1 0x4 DUP3 ADD MSTORE PUSH1 0x10 PUSH1 0x24 DUP3 ADD MSTORE PUSH16 0x105B1C9958591E481C99599D5B991959 PUSH1 0x82 SHL PUSH1 0x44 DUP3 ADD MSTORE PUSH1 0x64 ADD PUSH2 0x70C JUMP JUMPDEST PUSH1 0x7 DUP2 ADD SLOAD PUSH2 0x100 SWAP1 DIV PUSH1 0xFF AND ISZERO DUP1 PUSH2 0xD5C JUMPI POP PUSH1 0x7 DUP2 ADD SLOAD PUSH1 0xFF AND ISZERO JUMPDEST PUSH2 0xD9B JUMPI PUSH1 0x40 MLOAD PUSH3 0x461BCD PUSH1 0xE5 SHL DUP2 MSTORE PUSH1 0x20 PUSH1 0x4 DUP3 ADD MSTORE PUSH1 0x10 PUSH1 0x24 DUP3 ADD MSTORE PUSH16 0x149BDD5B99081A185CC81C995CDD5B1D PUSH1 0x82 SHL PUSH1 0x44 DUP3 ADD MSTORE PUSH1 0x64 ADD PUSH2 0x70C JUMP JUMPDEST PUSH1 0x7 DUP2 ADD DUP1 SLOAD PUSH3 0xFFFF00 NOT AND PUSH3 0x10100 OR SWAP1 SSTORE PUSH1 0x40 MLOAD DUP3 SWAP1 PUSH32 0x28846375D91ADF0298632299641880D604604DDFBBA9FD4F773BBBC56A9CABC0 SWAP1 PUSH1 0x0 SWAP1 LOG2 POP POP JUMP JUMPDEST PUSH1 0x5 SLOAD PUSH1 0x2 SLOAD PUSH1 0x40 MLOAD PUSH4 0x70A08231 PUSH1 0xE0 SHL DUP2 MSTORE ADDRESS PUSH1 0x4 DUP3 ADD MSTORE PUSH1 0x0 SWAP3 SWAP2 PUSH2 0x100 SWAP1 DIV PUSH1 0x1 PUSH1 0x1 PUSH1 0xA0 SHL SUB AND SWAP1 PUSH4 0x70A08231 SWAP1 PUSH1 0x24 ADD PUSH1 0x20 PUSH1 0x40 MLOAD DUP1 DUP4 SUB DUP2 DUP7 GAS STATICCALL ISZERO DUP1 ISZERO PUSH2 0xE2F JUMPI RETURNDATASIZE PUSH1 0x0 DUP1 RETURNDATACOPY RETURNDATASIZE PUSH1 0x0 REVERT JUMPDEST POP POP POP POP PUSH1 0x40 MLOAD RETURNDATASIZE PUSH1 0x1F NOT PUSH1 0x1F DUP3 ADD AND DUP3 ADD DUP1 PUSH1 0x40 MSTORE POP DUP2 ADD SWAP1 PUSH2 0xE53 SWAP2 SWAP1 PUSH2 0x1CA7 JUMP JUMPDEST LT ISZERO SWAP1 POP SWAP1 JUMP JUMPDEST PUSH1 0x3 SLOAD PUSH1 0x1 PUSH1 0x1 PUSH1 0xA0 SHL SUB AND CALLER EQ PUSH2 0xE84 JUMPI PUSH1 0x40 MLOAD PUSH3 0x461BCD PUSH1 0xE5 SHL DUP2 MSTORE PUSH1 0x4 ADD PUSH2 0x70C SWAP1 PUSH2 0x1BFA JUMP JUMPDEST PUSH1 0x1 PUSH1 0xFF DUP4 AND LT DUP1 ISZERO SWAP1 PUSH2 0xE9C JUMPI POP PUSH1 0x3 PUSH1 0xFF DUP4 AND GT ISZERO JUMPDEST PUSH2 0xED9 JUMPI PUSH1 0x40 MLOAD PUSH3 0x461BCD PUSH1 0xE5 SHL DUP2 MSTORE PUSH1 0x20 PUSH1 0x4 DUP3 ADD MSTORE PUSH1 0xE PUSH1 0x24 DUP3 ADD MSTORE PUSH14 0x125B9D985B1A59081C995CDD5B1D PUSH1 0x92 SHL PUSH1 0x44 DUP3 ADD MSTORE PUSH1 0x64 ADD PUSH2 0x70C JUMP JUMPDEST PUSH1 0x6 SLOAD PUSH1 0x0 SWAP1 DUP2 MSTORE PUSH1 0xC PUSH1 0x20 MSTORE PUSH1 0x40 SWAP1 KECCAK256 PUSH1 0x7 DUP2 ADD SLOAD PUSH2 0x100 SWAP1 DIV PUSH1 0xFF AND ISZERO PUSH2 0xF35 JUMPI PUSH1 0x40 MLOAD PUSH3 0x461BCD PUSH1 0xE5 SHL DUP2 MSTORE PUSH1 0x20 PUSH1 0x4 DUP3 ADD MSTORE PUSH1 0xE PUSH1 0x24 DUP3 ADD MSTORE PUSH14 0x105B1C9958591E4818DB1BDCD959 PUSH1 0x92 SHL PUSH1 0x44 DUP3 ADD MSTORE PUSH1 0x64 ADD PUSH2 0x70C JUMP JUMPDEST PUSH1 0x7 DUP2 ADD DUP1 SLOAD TIMESTAMP PUSH1 0x2 DUP5 ADD SSTORE PUSH2 0xFFFF NOT AND PUSH1 0xFF DUP6 AND OR PUSH2 0x100 OR SWAP1 SSTORE PUSH1 0x3 DUP2 ADD SLOAD DUP1 ISZERO PUSH2 0x1044 JUMPI PUSH1 0x0 PUSH2 0x2710 PUSH2 0xF6D PUSH2 0x12C DUP5 PUSH2 0x1CC0 JUMP JUMPDEST PUSH2 0xF77 SWAP2 SWAP1 PUSH2 0x1CD7 JUMP JUMPDEST SWAP1 POP PUSH1 0x0 PUSH2 0x2710 PUSH2 0xF89 PUSH1 0xC8 DUP6 PUSH2 0x1CC0 JUMP JUMPDEST PUSH2 0xF93 SWAP2 SWAP1 PUSH2 0x1CD7 JUMP JUMPDEST SWAP1 POP DUP2 PUSH1 0xD PUSH1 0x0 DUP3 DUP3 SLOAD PUSH2 0xFA7 SWAP2 SWAP1 PUSH2 0x1C35 JUMP JUMPDEST SWAP3 POP POP DUP2 SWAP1 SSTORE POP DUP1 PUSH1 0xE PUSH1 0x0 DUP3 DUP3 SLOAD PUSH2 0xFC0 SWAP2 SWAP1 PUSH2 0x1C35 JUMP JUMPDEST SWAP1 SWAP2 SSTORE POP POP PUSH1 0x2 SLOAD PUSH1 0x40 MLOAD PUSH4 0xA9059CBB PUSH1 0xE0 SHL DUP2 MSTORE PUSH2 0xDEAD PUSH1 0x4 DUP3 ADD MSTORE PUSH1 0x24 DUP2 ADD DUP4 SWAP1 MSTORE PUSH2 0x100 SWAP1 SWAP2 DIV PUSH1 0x1 PUSH1 0x1 PUSH1 0xA0 SHL SUB AND SWAP1 PUSH4 0xA9059CBB SWAP1 PUSH1 0x44 ADD PUSH1 0x20 PUSH1 0x40 MLOAD DUP1 DUP4 SUB DUP2 PUSH1 0x0 DUP8 GAS CALL ISZERO DUP1 ISZERO PUSH2 0x101C JUMPI RETURNDATASIZE PUSH1 0x0 DUP1 RETURNDATACOPY RETURNDATASIZE PUSH1 0x0 REVERT JUMPDEST POP POP POP POP PUSH1 0x40 MLOAD RETURNDATASIZE PUSH1 0x1F NOT PUSH1 0x1F DUP3 ADD AND DUP3 ADD DUP1 PUSH1 0x40 MSTORE POP DUP2 ADD SWAP1 PUSH2 0x1040 SWAP2 SWAP1 PUSH2 0x1C61 JUMP JUMPDEST POP POP POP JUMPDEST PUSH1 0x6 SLOAD PUSH1 0x40 DUP1 MLOAD PUSH1 0xFF DUP8 AND DUP2 MSTORE PUSH1 0x20 DUP2 ADD DUP5 SWAP1 MSTORE PUSH32 0xEEDDCA6C20105F7713DF8A4AFFF197AADC0688D5ED755949B9A9F95B0243ABC8 SWAP2 ADD PUSH1 0x40 MLOAD DUP1 SWAP2 SUB SWAP1 LOG2 PUSH2 0x108B PUSH2 0x18C9 JUMP JUMPDEST POP POP POP POP JUMP JUMPDEST PUSH1 0x2 SLOAD PUSH1 0x40 MLOAD PUSH4 0x70A08231 PUSH1 0xE0 SHL DUP2 MSTORE ADDRESS PUSH1 0x4 DUP3 ADD MSTORE PUSH1 0x0 SWAP2 PUSH2 0x100 SWAP1 DIV PUSH1 0x1 PUSH1 0x1 PUSH1 0xA0 SHL SUB AND SWAP1 PUSH4 0x70A08231 SWAP1 PUSH1 0x24 ADD PUSH1 0x20 PUSH1 0x40 MLOAD DUP1 DUP4 SUB DUP2 DUP7 GAS STATICCALL ISZERO DUP1 ISZERO PUSH2 0x10DF JUMPI RETURNDATASIZE PUSH1 0x0 DUP1 RETURNDATACOPY RETURNDATASIZE PUSH1 0x0 REVERT JUMPDEST POP POP POP POP PUSH1 0x40 MLOAD RETURNDATASIZE PUSH1 0x1F NOT PUSH1 0x1F DUP3 ADD AND DUP3 ADD DUP1 PUSH1 0x40 MSTORE POP DUP2 ADD SWAP1 PUSH2 0x1103 SWAP2 SWAP1 PUSH2 0x1CA7 JUMP JUMPDEST SWAP1 POP SWAP1 JUMP JUMPDEST PUSH2 0x1110 PUSH2 0x184A JUMP JUMPDEST PUSH2 0xB68 PUSH1 0x0 PUSH2 0x19D9 JUMP JUMPDEST PUSH1 0x3 SLOAD PUSH1 0x1 PUSH1 0x1 PUSH1 0xA0 SHL SUB AND CALLER EQ PUSH2 0x1144 JUMPI PUSH1 0x40 MLOAD PUSH3 0x461BCD PUSH1 0xE5 SHL DUP2 MSTORE PUSH1 0x4 ADD PUSH2 0x70C SWAP1 PUSH2 0x1BFA JUMP JUMPDEST PUSH1 0x6 SLOAD DUP4 EQ PUSH2 0x1183 JUMPI PUSH1 0x40 MLOAD PUSH3 0x461BCD PUSH1 0xE5 SHL DUP2 MSTORE PUSH1 0x20 PUSH1 0x4 DUP3 ADD MSTORE PUSH1 0xB PUSH1 0x24 DUP3 ADD MSTORE PUSH11 0x15DC9BDB99C81C9BDD5B99 PUSH1 0xAA SHL PUSH1 0x44 DUP3 ADD MSTORE PUSH1 0x64 ADD PUSH2 0x70C JUMP JUMPDEST PUSH1 0x0 DUP4 DUP2 MSTORE PUSH1 0xC PUSH1 0x20 MSTORE PUSH1 0x40 SWAP1 KECCAK256 PUSH1 0x7 ADD SLOAD PUSH2 0x100 SWAP1 DIV PUSH1 0xFF AND ISZERO PUSH2 0x11D9 JUMPI PUSH1 0x40 MLOAD PUSH3 0x461BCD PUSH1 0xE5 SHL DUP2 MSTORE PUSH1 0x20 PUSH1 0x4 DUP3 ADD MSTORE PUSH1 0xC PUSH1 0x24 DUP3 ADD MSTORE PUSH12 0x149BDD5B990818DB1BDCD959 PUSH1 0xA2 SHL PUSH1 0x44 DUP3 ADD MSTORE PUSH1 0x64 ADD PUSH2 0x70C JUMP JUMPDEST PUSH1 0x1 PUSH1 0xFF DUP4 AND LT DUP1 ISZERO SWAP1 PUSH2 0x11F1 JUMPI POP PUSH1 0x3 PUSH1 0xFF DUP4 AND GT ISZERO JUMPDEST PUSH2 0x1232 JUMPI PUSH1 0x40 MLOAD PUSH3 0x461BCD PUSH1 0xE5 SHL DUP2 MSTORE PUSH1 0x20 PUSH1 0x4 DUP3 ADD MSTORE PUSH1 0x12 PUSH1 0x24 DUP3 ADD MSTORE PUSH18 0x24B73B30B634B210383932B234B1BA34B7B7 PUSH1 0x71 SHL PUSH1 0x44 DUP3 ADD MSTORE PUSH1 0x64 ADD PUSH2 0x70C JUMP JUMPDEST PUSH1 0x8 SLOAD DUP2 LT ISZERO DUP1 ISZERO PUSH2 0x1246 JUMPI POP PUSH1 0x9 SLOAD DUP2 GT ISZERO JUMPDEST PUSH2 0x1287 JUMPI PUSH1 0x40 MLOAD PUSH3 0x461BCD PUSH1 0xE5 SHL DUP2 MSTORE PUSH1 0x20 PUSH1 0x4 DUP3 ADD MSTORE PUSH1 0x12 PUSH1 0x24 DUP3 ADD MSTORE PUSH18 0x125B9D985B1A590818995D08185B5BDD5B9D PUSH1 0x72 SHL PUSH1 0x44 DUP3 ADD MSTORE PUSH1 0x64 ADD PUSH2 0x70C JUMP JUMPDEST PUSH1 0x1 PUSH1 0x1 PUSH1 0xA0 SHL SUB DUP5 AND PUSH1 0x0 SWAP1 DUP2 MSTORE PUSH1 0x4 PUSH1 0x20 MSTORE PUSH1 0x40 SWAP1 KECCAK256 SLOAD DUP2 GT ISZERO PUSH2 0x12E6 JUMPI PUSH1 0x40 MLOAD PUSH3 0x461BCD PUSH1 0xE5 SHL DUP2 MSTORE PUSH1 0x20 PUSH1 0x4 DUP3 ADD MSTORE PUSH1 0x14 PUSH1 0x24 DUP3 ADD MSTORE PUSH20 0x496E73756666696369656E742062616C616E6365 PUSH1 0x60 SHL PUSH1 0x44 DUP3 ADD MSTORE PUSH1 0x64 ADD PUSH2 0x70C JUMP JUMPDEST PUSH1 0x1 PUSH1 0x1 PUSH1 0xA0 SHL SUB DUP5 AND PUSH1 0x0 SWAP1 DUP2 MSTORE PUSH1 0x4 PUSH1 0x20 MSTORE PUSH1 0x40 DUP2 KECCAK256 DUP1 SLOAD DUP4 SWAP3 SWAP1 PUSH2 0x130E SWAP1 DUP5 SWAP1 PUSH2 0x1C4E JUMP JUMPDEST SWAP1 SWAP2 SSTORE POP POP PUSH1 0x0 DUP4 DUP2 MSTORE PUSH1 0xC PUSH1 0x20 MSTORE PUSH1 0x40 DUP2 KECCAK256 PUSH1 0x3 DUP2 ADD DUP1 SLOAD SWAP2 SWAP3 DUP5 SWAP3 PUSH2 0x1336 SWAP1 DUP5 SWAP1 PUSH2 0x1C35 JUMP JUMPDEST SWAP1 SWAP2 SSTORE POP POP PUSH1 0x0 NOT PUSH1 0xFF DUP5 AND ADD PUSH2 0x1366 JUMPI DUP2 DUP2 PUSH1 0x4 ADD PUSH1 0x0 DUP3 DUP3 SLOAD PUSH2 0x135B SWAP2 SWAP1 PUSH2 0x1C35 JUMP JUMPDEST SWAP1 SWAP2 SSTORE POP PUSH2 0x13A0 SWAP1 POP JUMP JUMPDEST PUSH1 0x1 NOT PUSH1 0xFF DUP5 AND ADD PUSH2 0x1386 JUMPI DUP2 DUP2 PUSH1 0x5 ADD PUSH1 0x0 DUP3 DUP3 SLOAD PUSH2 0x135B SWAP2 SWAP1 PUSH2 0x1C35 JUMP JUMPDEST DUP2 DUP2 PUSH1 0x6 ADD PUSH1 0x0 DUP3 DUP3 SLOAD PUSH2 0x139A SWAP2 SWAP1 PUSH2 0x1C35 JUMP JUMPDEST SWAP1 SWAP2 SSTORE POP POP JUMPDEST PUSH1 0x40 DUP1 MLOAD DUP6 DUP2 MSTORE PUSH1 0xFF DUP6 AND PUSH1 0x20 DUP3 ADD MSTORE SWAP1 DUP2 ADD DUP4 SWAP1 MSTORE PUSH1 0x1 PUSH1 0x1 PUSH1 0xA0 SHL SUB DUP7 AND SWAP1 PUSH32 0xA2B349F6856D59E061C143AFC631EE55F5A5C7AA6D201BF0B840CDB62492A26F SWAP1 PUSH1 0x60 ADD PUSH2 0x807 JUMP JUMPDEST PUSH2 0x13F3 PUSH2 0x184A JUMP JUMPDEST PUSH1 0x1 PUSH1 0x1 PUSH1 0xA0 SHL SUB DUP2 AND PUSH2 0x143A JUMPI PUSH1 0x40 MLOAD PUSH3 0x461BCD PUSH1 0xE5 SHL DUP2 MSTORE PUSH1 0x20 PUSH1 0x4 DUP3 ADD MSTORE PUSH1 0xE PUSH1 0x24 DUP3 ADD MSTORE PUSH14 0x496E76616C6964206F7261636C65 PUSH1 0x90 SHL PUSH1 0x44 DUP3 ADD MSTORE PUSH1 0x64 ADD PUSH2 0x70C JUMP JUMPDEST PUSH1 0x3 DUP1 SLOAD PUSH1 0x1 PUSH1 0x1 PUSH1 0xA0 SHL SUB DUP4 DUP2 AND PUSH1 0x1 PUSH1 0x1 PUSH1 0xA0 SHL SUB NOT DUP4 AND DUP2 OR SWAP1 SWAP4 SSTORE PUSH1 0x40 MLOAD SWAP2 AND SWAP2 SWAP1 DUP3 SWAP1 PUSH32 0x5CD89403C6BDEAC21C2FF33DE395121A31FA1BC2BF3ADF4825F1F86E79969DD SWAP1 PUSH1 0x0 SWAP1 LOG3 POP POP JUMP JUMPDEST PUSH2 0x1494 PUSH2 0x184A JUMP JUMPDEST PUSH1 0x9 SSTORE JUMP JUMPDEST PUSH2 0x14A1 PUSH2 0x184A JUMP JUMPDEST PUSH2 0xB68 PUSH2 0x1A29 JUMP JUMPDEST PUSH2 0x14B1 PUSH2 0x184A JUMP JUMPDEST PUSH1 0x8 SSTORE JUMP JUMPDEST PUSH2 0x14BE PUSH2 0x184A JUMP JUMPDEST PUSH1 0x7 SSTORE JUMP JUMPDEST PUSH2 0x14CB PUSH2 0x1820 JUMP JUMPDEST PUSH2 0x14D3 PUSH2 0x1A66 JUMP JUMPDEST PUSH1 0x7 SLOAD DUP2 LT ISZERO PUSH2 0x151D JUMPI PUSH1 0x40 MLOAD PUSH3 0x461BCD PUSH1 0xE5 SHL DUP2 MSTORE PUSH1 0x20 PUSH1 0x4 DUP3 ADD MSTORE PUSH1 0x15 PUSH1 0x24 DUP3 ADD MSTORE PUSH21 0x10995B1BDDC81B5A5B9A5B5D5B4819195C1BDCDA5D PUSH1 0x5A SHL PUSH1 0x44 DUP3 ADD MSTORE PUSH1 0x64 ADD PUSH2 0x70C JUMP JUMPDEST PUSH1 0x2 SLOAD PUSH1 0x40 MLOAD PUSH4 0x23B872DD PUSH1 0xE0 SHL DUP2 MSTORE CALLER PUSH1 0x4 DUP3 ADD MSTORE ADDRESS PUSH1 0x24 DUP3 ADD MSTORE PUSH1 0x44 DUP2 ADD DUP4 SWAP1 MSTORE PUSH2 0x100 SWAP1 SWAP2 DIV PUSH1 0x1 PUSH1 0x1 PUSH1 0xA0 SHL SUB AND SWAP1 PUSH4 0x23B872DD SWAP1 PUSH1 0x64 ADD PUSH1 0x20 PUSH1 0x40 MLOAD DUP1 DUP4 SUB DUP2 PUSH1 0x0 DUP8 GAS CALL ISZERO DUP1 ISZERO PUSH2 0x1578 JUMPI RETURNDATASIZE PUSH1 0x0 DUP1 RETURNDATACOPY RETURNDATASIZE PUSH1 0x0 REVERT JUMPDEST POP POP POP POP PUSH1 0x40 MLOAD RETURNDATASIZE PUSH1 0x1F NOT PUSH1 0x1F DUP3 ADD AND DUP3 ADD DUP1 PUSH1 0x40 MSTORE POP DUP2 ADD SWAP1 PUSH2 0x159C SWAP2 SWAP1 PUSH2 0x1C61 JUMP JUMPDEST PUSH2 0x15B8 JUMPI PUSH1 0x40 MLOAD PUSH3 0x461BCD PUSH1 0xE5 SHL DUP2 MSTORE PUSH1 0x4 ADD PUSH2 0x70C SWAP1 PUSH2 0x1C7E JUMP JUMPDEST CALLER PUSH1 0x0 SWAP1 DUP2 MSTORE PUSH1 0x4 PUSH1 0x20 MSTORE PUSH1 0x40 DUP2 KECCAK256 DUP1 SLOAD DUP4 SWAP3 SWAP1 PUSH2 0x15D7 SWAP1 DUP5 SWAP1 PUSH2 0x1C35 JUMP JUMPDEST SWAP3 POP POP DUP2 SWAP1 SSTORE POP DUP1 PUSH1 0x5 PUSH1 0x0 DUP3 DUP3 SLOAD PUSH2 0x15F0 SWAP2 SWAP1 PUSH2 0x1C35 JUMP JUMPDEST SWAP1 SWAP2 SSTORE POP POP CALLER PUSH1 0x0 DUP2 DUP2 MSTORE PUSH1 0xB PUSH1 0x20 SWAP1 DUP2 MSTORE PUSH1 0x40 DUP1 DUP4 KECCAK256 TIMESTAMP SWAP1 SSTORE PUSH1 0x4 DUP3 MSTORE SWAP2 DUP3 SWAP1 KECCAK256 SLOAD DUP3 MLOAD DUP6 DUP2 MSTORE SWAP2 DUP3 ADD MSTORE PUSH32 0x73A19DD210F1A7F902193214C0EE91DD35EE5B4D920CBA8D519ECA65A7B488CA SWAP2 ADD PUSH2 0xA40 JUMP JUMPDEST PUSH2 0x164C PUSH2 0x184A JUMP JUMPDEST PUSH3 0x15180 DUP2 GT ISZERO PUSH2 0x1691 JUMPI PUSH1 0x40 MLOAD PUSH3 0x461BCD PUSH1 0xE5 SHL DUP2 MSTORE PUSH1 0x20 PUSH1 0x4 DUP3 ADD MSTORE PUSH1 0xF PUSH1 0x24 DUP3 ADD MSTORE PUSH15 0x4D61782031206461792064656C6179 PUSH1 0x88 SHL PUSH1 0x44 DUP3 ADD MSTORE PUSH1 0x64 ADD PUSH2 0x70C JUMP JUMPDEST PUSH1 0xA SSTORE JUMP JUMPDEST PUSH2 0x169E PUSH2 0x1820 JUMP JUMPDEST CALLER PUSH1 0x0 SWAP1 DUP2 MSTORE PUSH1 0x4 PUSH1 0x20 MSTORE PUSH1 0x40 SWAP1 KECCAK256 SLOAD DUP1 PUSH2 0x16E8 JUMPI PUSH1 0x40 MLOAD PUSH3 0x461BCD PUSH1 0xE5 SHL DUP2 MSTORE PUSH1 0x20 PUSH1 0x4 DUP3 ADD MSTORE PUSH1 0xA PUSH1 0x24 DUP3 ADD MSTORE PUSH10 0x4E6F2062616C616E6365 PUSH1 0xB0 SHL PUSH1 0x44 DUP3 ADD MSTORE PUSH1 0x64 ADD PUSH2 0x70C JUMP JUMPDEST CALLER PUSH1 0x0 SWAP1 DUP2 MSTORE PUSH1 0x4 PUSH1 0x20 MSTORE PUSH1 0x40 DUP2 KECCAK256 DUP2 SWAP1 SSTORE PUSH1 0x5 DUP1 SLOAD DUP4 SWAP3 SWAP1 PUSH2 0x170C SWAP1 DUP5 SWAP1 PUSH2 0x1C4E JUMP JUMPDEST SWAP1 SWAP2 SSTORE POP POP PUSH1 0x2 SLOAD PUSH1 0x40 MLOAD PUSH4 0xA9059CBB PUSH1 0xE0 SHL DUP2 MSTORE CALLER PUSH1 0x4 DUP3 ADD MSTORE PUSH1 0x24 DUP2 ADD DUP4 SWAP1 MSTORE PUSH2 0x100 SWAP1 SWAP2 DIV PUSH1 0x1 PUSH1 0x1 PUSH1 0xA0 SHL SUB AND SWAP1 PUSH4 0xA9059CBB SWAP1 PUSH1 0x44 ADD PUSH1 0x20 PUSH1 0x40 MLOAD DUP1 DUP4 SUB DUP2 PUSH1 0x0 DUP8 GAS CALL ISZERO DUP1 ISZERO PUSH2 0x1766 JUMPI RETURNDATASIZE PUSH1 0x0 DUP1 RETURNDATACOPY RETURNDATASIZE PUSH1 0x0 REVERT JUMPDEST POP POP POP POP PUSH1 0x40 MLOAD RETURNDATASIZE PUSH1 0x1F NOT PUSH1 0x1F DUP3 ADD AND DUP3 ADD DUP1 PUSH1 0x40 MSTORE POP DUP2 ADD SWAP1 PUSH2 0x178A SWAP2 SWAP1 PUSH2 0x1C61 JUMP JUMPDEST PUSH2 0x17A6 JUMPI PUSH1 0x40 MLOAD PUSH3 0x461BCD PUSH1 0xE5 SHL DUP2 MSTORE PUSH1 0x4 ADD PUSH2 0x70C SWAP1 PUSH2 0x1C7E JUMP JUMPDEST PUSH1 0x40 MLOAD DUP2 DUP2 MSTORE CALLER SWAP1 PUSH32 0x2E39961A70A10F4D46383948095AC2752B3EE642A7C76AA827410AAFF08C2E51 SWAP1 PUSH1 0x20 ADD PUSH1 0x40 MLOAD DUP1 SWAP2 SUB SWAP1 LOG2 POP PUSH2 0xB68 PUSH1 0x1 DUP1 SSTORE JUMP JUMPDEST PUSH2 0x17ED PUSH2 0x184A JUMP JUMPDEST PUSH1 0x1 PUSH1 0x1 PUSH1 0xA0 SHL SUB DUP2 AND PUSH2 0x1817 JUMPI PUSH1 0x40 MLOAD PUSH4 0x1E4FBDF7 PUSH1 0xE0 SHL DUP2 MSTORE PUSH1 0x0 PUSH1 0x4 DUP3 ADD MSTORE PUSH1 0x24 ADD PUSH2 0x70C JUMP JUMPDEST PUSH2 0xA51 DUP2 PUSH2 0x19D9 JUMP JUMPDEST PUSH1 0x2 PUSH1 0x1 SLOAD SUB PUSH2 0x1843 JUMPI PUSH1 0x40 MLOAD PUSH4 0x3EE5AEB5 PUSH1 0xE0 SHL DUP2 MSTORE PUSH1 0x4 ADD PUSH1 0x40 MLOAD DUP1 SWAP2 SUB SWAP1 REVERT JUMPDEST PUSH1 0x2 PUSH1 0x1 SSTORE JUMP JUMPDEST PUSH1 0x0 SLOAD PUSH1 0x1 PUSH1 0x1 PUSH1 0xA0 SHL SUB AND CALLER EQ PUSH2 0xB68 JUMPI PUSH1 0x40 MLOAD PUSH4 0x118CDAA7 PUSH1 0xE0 SHL DUP2 MSTORE CALLER PUSH1 0x4 DUP3 ADD MSTORE PUSH1 0x24 ADD PUSH2 0x70C JUMP JUMPDEST PUSH2 0x187F PUSH2 0x1A8A JUMP JUMPDEST PUSH1 0x2 DUP1 SLOAD PUSH1 0xFF NOT AND SWAP1 SSTORE PUSH32 0x5DB9EE0A495BF2E6FF9C91A7834C1BA4FDD244A5E8AA4E537BD38AEAE4B073AA CALLER JUMPDEST PUSH1 0x40 MLOAD PUSH1 0x1 PUSH1 0x1 PUSH1 0xA0 SHL SUB SWAP1 SWAP2 AND DUP2 MSTORE PUSH1 0x20 ADD PUSH1 0x40 MLOAD DUP1 SWAP2 SUB SWAP1 LOG1 JUMP JUMPDEST PUSH1 0x6 DUP1 SLOAD SWAP1 PUSH1 0x0 PUSH2 0x18D9 DUP4 PUSH2 0x1CF9 JUMP JUMPDEST SWAP1 SWAP2 SSTORE POP POP PUSH1 0x40 DUP1 MLOAD PUSH2 0x140 DUP2 ADD DUP3 MSTORE PUSH1 0x6 DUP1 SLOAD DUP1 DUP4 MSTORE TIMESTAMP PUSH1 0x20 DUP1 DUP6 ADD DUP3 DUP2 MSTORE PUSH1 0x0 DUP7 DUP9 ADD DUP2 DUP2 MSTORE PUSH1 0x60 DUP9 ADD DUP3 DUP2 MSTORE PUSH1 0x80 DUP10 ADD DUP4 DUP2 MSTORE PUSH1 0xA0 DUP11 ADD DUP5 DUP2 MSTORE PUSH1 0xC0 DUP12 ADD DUP6 DUP2 MSTORE PUSH1 0xE0 DUP13 ADD DUP7 DUP2 MSTORE PUSH2 0x100 DUP1 DUP15 ADD DUP9 DUP2 MSTORE PUSH2 0x120 DUP16 ADD DUP10 DUP2 MSTORE SWAP13 DUP10 MSTORE PUSH1 0xC DUP12 MSTORE SWAP8 DUP16 SWAP1 KECCAK256 SWAP14 MLOAD DUP15 SSTORE SWAP8 MLOAD PUSH1 0x1 DUP15 ADD SSTORE SWAP5 MLOAD PUSH1 0x2 DUP14 ADD SSTORE SWAP3 MLOAD PUSH1 0x3 DUP13 ADD SSTORE SWAP1 MLOAD PUSH1 0x4 DUP12 ADD SSTORE MLOAD PUSH1 0x5 DUP11 ADD SSTORE MLOAD DUP9 DUP9 ADD SSTORE MLOAD PUSH1 0x7 SWAP1 SWAP8 ADD DUP1 SLOAD SWAP2 MLOAD SWAP6 MLOAD ISZERO ISZERO PUSH3 0x10000 MUL PUSH3 0xFF0000 NOT SWAP7 ISZERO ISZERO SWAP1 SWAP4 MUL PUSH2 0xFFFF NOT SWAP1 SWAP3 AND PUSH1 0xFF SWAP1 SWAP9 AND SWAP8 SWAP1 SWAP8 OR OR SWAP4 SWAP1 SWAP4 AND SWAP3 SWAP1 SWAP3 OR SWAP1 SWAP4 SSTORE SWAP1 SLOAD SWAP3 MLOAD SWAP2 DUP3 MSTORE PUSH32 0x278844837BCF8364A705384BF3A2812901F54155BAE86DEA81DD52AA5B9EC0E3 SWAP2 ADD PUSH1 0x40 MLOAD DUP1 SWAP2 SUB SWAP1 LOG2 JUMP JUMPDEST PUSH1 0x0 DUP1 SLOAD PUSH1 0x1 PUSH1 0x1 PUSH1 0xA0 SHL SUB DUP4 DUP2 AND PUSH1 0x1 PUSH1 0x1 PUSH1 0xA0 SHL SUB NOT DUP4 AND DUP2 OR DUP5 SSTORE PUSH1 0x40 MLOAD SWAP2 SWAP1 SWAP3 AND SWAP3 DUP4 SWAP2 PUSH32 0x8BE0079C531659141344CD1FD0A4F28419497F9722A3DAAFE3B4186F6B6457E0 SWAP2 SWAP1 LOG3 POP POP JUMP JUMPDEST PUSH2 0x1A31 PUSH2 0x1A66 JUMP JUMPDEST PUSH1 0x2 DUP1 SLOAD PUSH1 0xFF NOT AND PUSH1 0x1 OR SWAP1 SSTORE PUSH32 0x62E78CEA01BEE320CD4E420270B5EA74000D11B0C9F74754EBDBFC544B05A258 PUSH2 0x18AC CALLER SWAP1 JUMP JUMPDEST PUSH1 0x2 SLOAD PUSH1 0xFF AND ISZERO PUSH2 0xB68 JUMPI PUSH1 0x40 MLOAD PUSH4 0xD93C0665 PUSH1 0xE0 SHL DUP2 MSTORE PUSH1 0x4 ADD PUSH1 0x40 MLOAD DUP1 SWAP2 SUB SWAP1 REVERT JUMPDEST PUSH1 0x2 SLOAD PUSH1 0xFF AND PUSH2 0xB68 JUMPI PUSH1 0x40 MLOAD PUSH4 0x8DFC202B PUSH1 0xE0 SHL DUP2 MSTORE PUSH1 0x4 ADD PUSH1 0x40 MLOAD DUP1 SWAP2 SUB SWAP1 REVERT JUMPDEST DUP1 CALLDATALOAD PUSH1 0x1 PUSH1 0x1 PUSH1 0xA0 SHL SUB DUP2 AND DUP2 EQ PUSH2 0x1AC4 JUMPI PUSH1 0x0 DUP1 REVERT JUMPDEST SWAP2 SWAP1 POP JUMP JUMPDEST PUSH1 0x0 PUSH1 0x20 DUP3 DUP5 SUB SLT ISZERO PUSH2 0x1ADB JUMPI PUSH1 0x0 DUP1 REVERT JUMPDEST PUSH2 0x1AE4 DUP3 PUSH2 0x1AAD JUMP JUMPDEST SWAP4 SWAP3 POP POP POP JUMP JUMPDEST DUP1 ISZERO ISZERO DUP2 EQ PUSH2 0xA51 JUMPI PUSH1 0x0 DUP1 REVERT JUMPDEST PUSH1 0x0 DUP1 PUSH1 0x0 DUP1 PUSH1 0x80 DUP6 DUP8 SUB SLT ISZERO PUSH2 0x1B0F JUMPI PUSH1 0x0 DUP1 REVERT JUMPDEST PUSH2 0x1B18 DUP6 PUSH2 0x1AAD JUMP JUMPDEST SWAP4 POP PUSH1 0x20 DUP6 ADD CALLDATALOAD SWAP3 POP PUSH1 0x40 DUP6 ADD CALLDATALOAD PUSH2 0x1B2F DUP2 PUSH2 0x1AEB JUMP JUMPDEST SWAP4 SWAP7 SWAP3 SWAP6 POP SWAP3 SWAP4 PUSH1 0x60 ADD CALLDATALOAD SWAP3 POP POP JUMP JUMPDEST PUSH1 0x0 PUSH1 0x20 DUP3 DUP5 SUB SLT ISZERO PUSH2 0x1B51 JUMPI PUSH1 0x0 DUP1 REVERT JUMPDEST POP CALLDATALOAD SWAP2 SWAP1 POP JUMP JUMPDEST PUSH1 0x0 DUP1 PUSH1 0x0 PUSH1 0x60 DUP5 DUP7 SUB SLT ISZERO PUSH2 0x1B6D JUMPI PUSH1 0x0 DUP1 REVERT JUMPDEST PUSH2 0x1B76 DUP5 PUSH2 0x1AAD JUMP JUMPDEST SWAP6 PUSH1 0x20 DUP6 ADD CALLDATALOAD SWAP6 POP PUSH1 0x40 SWAP1 SWAP5 ADD CALLDATALOAD SWAP4 SWAP3 POP POP POP JUMP JUMPDEST DUP1 CALLDATALOAD PUSH1 0xFF DUP2 AND DUP2 EQ PUSH2 0x1AC4 JUMPI PUSH1 0x0 DUP1 REVERT JUMPDEST PUSH1 0x0 DUP1 PUSH1 0x40 DUP4 DUP6 SUB SLT ISZERO PUSH2 0x1BAF JUMPI PUSH1 0x0 DUP1 REVERT JUMPDEST PUSH2 0x1BB8 DUP4 PUSH2 0x1B8B JUMP JUMPDEST SWAP5 PUSH1 0x20 SWAP4 SWAP1 SWAP4 ADD CALLDATALOAD SWAP4 POP POP POP JUMP JUMPDEST PUSH1 0x0 DUP1 PUSH1 0x0 DUP1 PUSH1 0x80 DUP6 DUP8 SUB SLT ISZERO PUSH2 0x1BDC JUMPI PUSH1 0x0 DUP1 REVERT JUMPDEST PUSH2 0x1BE5 DUP6 PUSH2 0x1AAD JUMP JUMPDEST SWAP4 POP PUSH1 0x20 DUP6 ADD CALLDATALOAD SWAP3 POP PUSH2 0x1B2F PUSH1 0x40 DUP7 ADD PUSH2 0x1B8B JUMP JUMPDEST PUSH1 0x20 DUP1 DUP3 MSTORE PUSH1 0xB SWAP1 DUP3 ADD MSTORE PUSH11 0x4F6E6C79206F7261636C65 PUSH1 0xA8 SHL PUSH1 0x40 DUP3 ADD MSTORE PUSH1 0x60 ADD SWAP1 JUMP JUMPDEST PUSH4 0x4E487B71 PUSH1 0xE0 SHL PUSH1 0x0 MSTORE PUSH1 0x11 PUSH1 0x4 MSTORE PUSH1 0x24 PUSH1 0x0 REVERT JUMPDEST DUP1 DUP3 ADD DUP1 DUP3 GT ISZERO PUSH2 0x1C48 JUMPI PUSH2 0x1C48 PUSH2 0x1C1F JUMP JUMPDEST SWAP3 SWAP2 POP POP JUMP JUMPDEST DUP2 DUP2 SUB DUP2 DUP2 GT ISZERO PUSH2 0x1C48 JUMPI PUSH2 0x1C48 PUSH2 0x1C1F JUMP JUMPDEST PUSH1 0x0 PUSH1 0x20 DUP3 DUP5 SUB SLT ISZERO PUSH2 0x1C73 JUMPI PUSH1 0x0 DUP1 REVERT JUMPDEST DUP2 MLOAD PUSH2 0x1AE4 DUP2 PUSH2 0x1AEB JUMP JUMPDEST PUSH1 0x20 DUP1 DUP3 MSTORE PUSH1 0xF SWAP1 DUP3 ADD MSTORE PUSH15 0x151C985B9CD9995C8819985A5B1959 PUSH1 0x8A SHL PUSH1 0x40 DUP3 ADD MSTORE PUSH1 0x60 ADD SWAP1 JUMP JUMPDEST PUSH1 0x0 PUSH1 0x20 DUP3 DUP5 SUB SLT ISZERO PUSH2 0x1CB9 JUMPI PUSH1 0x0 DUP1 REVERT JUMPDEST POP MLOAD SWAP2 SWAP1 POP JUMP JUMPDEST DUP1 DUP3 MUL DUP2 ISZERO DUP3 DUP3 DIV DUP5 EQ OR PUSH2 0x1C48 JUMPI PUSH2 0x1C48 PUSH2 0x1C1F JUMP JUMPDEST PUSH1 0x0 DUP3 PUSH2 0x1CF4 JUMPI PUSH4 0x4E487B71 PUSH1 0xE0 SHL PUSH1 0x0 MSTORE PUSH1 0x12 PUSH1 0x4 MSTORE PUSH1 0x24 PUSH1 0x0 REVERT JUMPDEST POP DIV SWAP1 JUMP JUMPDEST PUSH1 0x0 PUSH1 0x1 DUP3 ADD PUSH2 0x1D0B JUMPI PUSH2 0x1D0B PUSH2 0x1C1F JUMP JUMPDEST POP PUSH1 0x1 ADD SWAP1 JUMP INVALID LOG2 PUSH5 0x6970667358 0x22 SLT KECCAK256 0x2C 0x2E 0xCB BALANCE SWAP15 PUSH14 0x5D43E9F9170CA4F48863D0FE20C5 0xD3 SWAP3 0x2C 0xD8 0xE3 ADDMOD PUSH6 0xE6BBD036C64 PUSH20 0x6F6C634300081400330000000000000000000000 "},"methodIdentifiers":{"BURN()":"c0a2526c","FEE_BURN()":"24ba6556","FEE_DENOMINATOR()":"d73792a9","FEE_OWNER()":"49edfb94","MINT()":"3e36f4c7","NEUTRAL()":"7b1f12a8","balances(address)":"27e235e3","closeRound(uint8,uint256)":"5e519ff6","currentRoundId()":"9cbe5efd","deposit(uint256)":"b6b55f25","emergencyWithdraw()":"db2e21bc","getBalance(address)":"f8b2cb4f","getContractBalance()":"6f9fb98a","getCurrentRound()":"a32bf597","getRoundInfo(uint256)":"88c3ffb0","isSolvent()":"5ce23950","lastDepositTime(address)":"02527753","maxBetAmount()":"cab11d5d","minBet()":"9619367d","minDeposit()":"41b3d185","oracle()":"7dc0d1d0","owner()":"8da5cb5b","ownerFees()":"386cd8f1","pause()":"8456cb59","paused()":"5c975abb","recordBet(address,uint256,uint8,uint256)":"77c1b970","recordBetResult(address,uint256,bool,uint256)":"09ddd43b","refundPlayer(address,uint256,uint256)":"3f054846","refundRound(uint256)":"5443b139","renounceOwnership()":"715018a6","rounds(uint256)":"8c65c81f","scndlToken()":"898443d8","setMaxBetAmount(uint256)":"7cfbc7a5","setMinBet(uint256)":"88ea41b9","setMinDeposit(uint256)":"8fcc9cfb","setOracle(address)":"7adbf973","setWithdrawalDelay(uint256)":"d2c13da5","totalBurned()":"d89135cd","totalDeposits()":"7d882097","transferOwnership(address)":"f2fde38b","unpause()":"3f4ba83a","withdraw(uint256)":"2e1a7d4d","withdrawFees()":"476343ee","withdrawalDelay()":"a7ab6961"}}}}}