{
  "_format": "hh-sol-artifact-1",
  "contractName": "PredictionGameV2",
  "sourceName": "contracts/PredictionGameV2.sol",
  "abi": [
    {
      "inputs": [
        {
          "internalType": "address",
          "name": "_token",
          "type": "address"
        },
        {
          "internalType": "address",
          "name": "_oracle",
          "type": "address"
        }
      ],
      "stateMutability": "nonpayable",
      "type": "constructor"
    },
    {
      "inputs": [],
      "name": "EnforcedPause",
      "type": "error"
    },
    {
      "inputs": [],
      "name": "ExpectedPause",
      "type": "error"
    },
    {
      "inputs": [
        {
          "internalType": "address",
          "name": "owner",
          "type": "address"
        }
      ],
      "name": "OwnableInvalidOwner",
      "type": "error"
    },
    {
      "inputs": [
        {
          "internalType": "address",
          "name": "account",
          "type": "address"
        }
      ],
      "name": "OwnableUnauthorizedAccount",
      "type": "error"
    },
    {
      "inputs": [],
      "name": "ReentrancyGuardReentrantCall",
      "type": "error"
    },
    {
      "anonymous": false,
      "inputs": [
        {
          "indexed": true,
          "internalType": "address",
          "name": "user",
          "type": "address"
        },
        {
          "indexed": false,
          "internalType": "uint256",
          "name": "roundId",
          "type": "uint256"
        },
        {
          "indexed": false,
          "internalType": "uint8",
          "name": "prediction",
          "type": "uint8"
        },
        {
          "indexed": false,
          "internalType": "uint256",
          "name": "amount",
          "type": "uint256"
        }
      ],
      "name": "BetRecorded",
      "type": "event"
    },
    {
      "anonymous": false,
      "inputs": [
        {
          "indexed": true,
          "internalType": "address",
          "name": "user",
          "type": "address"
        },
        {
          "indexed": false,
          "internalType": "uint256",
          "name": "roundId",
          "type": "uint256"
        },
        {
          "indexed": false,
          "internalType": "bool",
          "name": "won",
          "type": "bool"
        },
        {
          "indexed": false,
          "internalType": "int256",
          "name": "profitLoss",
          "type": "int256"
        }
      ],
      "name": "BetResult",
      "type": "event"
    },
    {
      "anonymous": false,
      "inputs": [
        {
          "indexed": true,
          "internalType": "address",
          "name": "user",
          "type": "address"
        },
        {
          "indexed": false,
          "internalType": "uint256",
          "name": "amount",
          "type": "uint256"
        },
        {
          "indexed": false,
          "internalType": "uint256",
          "name": "newBalance",
          "type": "uint256"
        }
      ],
      "name": "Deposited",
      "type": "event"
    },
    {
      "anonymous": false,
      "inputs": [
        {
          "indexed": true,
          "internalType": "address",
          "name": "user",
          "type": "address"
        },
        {
          "indexed": false,
          "internalType": "uint256",
          "name": "amount",
          "type": "uint256"
        }
      ],
      "name": "EmergencyWithdrawn",
      "type": "event"
    },
    {
      "anonymous": false,
      "inputs": [
        {
          "indexed": true,
          "internalType": "address",
          "name": "owner",
          "type": "address"
        },
        {
          "indexed": false,
          "internalType": "uint256",
          "name": "amount",
          "type": "uint256"
        }
      ],
      "name": "FeesWithdrawn",
      "type": "event"
    },
    {
      "anonymous": false,
      "inputs": [
        {
          "indexed": true,
          "internalType": "address",
          "name": "cancelledOracle",
          "type": "address"
        }
      ],
      "name": "OracleChangeCancelled",
      "type": "event"
    },
    {
      "anonymous": false,
      "inputs": [
        {
          "indexed": true,
          "internalType": "address",
          "name": "newOracle",
          "type": "address"
        },
        {
          "indexed": false,
          "internalType": "uint256",
          "name": "effectiveTime",
          "type": "uint256"
        }
      ],
      "name": "OracleChangePending",
      "type": "event"
    },
    {
      "anonymous": false,
      "inputs": [
        {
          "indexed": true,
          "internalType": "address",
          "name": "oldOracle",
          "type": "address"
        },
        {
          "indexed": true,
          "internalType": "address",
          "name": "newOracle",
          "type": "address"
        }
      ],
      "name": "OracleChanged",
      "type": "event"
    },
    {
      "anonymous": false,
      "inputs": [
        {
          "indexed": true,
          "internalType": "address",
          "name": "previousOwner",
          "type": "address"
        },
        {
          "indexed": true,
          "internalType": "address",
          "name": "newOwner",
          "type": "address"
        }
      ],
      "name": "OwnershipTransferred",
      "type": "event"
    },
    {
      "anonymous": false,
      "inputs": [
        {
          "indexed": false,
          "internalType": "address",
          "name": "account",
          "type": "address"
        }
      ],
      "name": "Paused",
      "type": "event"
    },
    {
      "anonymous": false,
      "inputs": [
        {
          "indexed": true,
          "internalType": "uint256",
          "name": "roundId",
          "type": "uint256"
        },
        {
          "indexed": false,
          "internalType": "uint8",
          "name": "result",
          "type": "uint8"
        },
        {
          "indexed": false,
          "internalType": "uint256",
          "name": "totalPool",
          "type": "uint256"
        }
      ],
      "name": "RoundClosed",
      "type": "event"
    },
    {
      "anonymous": false,
      "inputs": [
        {
          "indexed": true,
          "internalType": "uint256",
          "name": "roundId",
          "type": "uint256"
        }
      ],
      "name": "RoundRefunded",
      "type": "event"
    },
    {
      "anonymous": false,
      "inputs": [
        {
          "indexed": true,
          "internalType": "uint256",
          "name": "roundId",
          "type": "uint256"
        },
        {
          "indexed": false,
          "internalType": "uint256",
          "name": "startTime",
          "type": "uint256"
        }
      ],
      "name": "RoundStarted",
      "type": "event"
    },
    {
      "anonymous": false,
      "inputs": [
        {
          "indexed": false,
          "internalType": "address",
          "name": "account",
          "type": "address"
        }
      ],
      "name": "Unpaused",
      "type": "event"
    },
    {
      "anonymous": false,
      "inputs": [
        {
          "indexed": true,
          "internalType": "address",
          "name": "user",
          "type": "address"
        },
        {
          "indexed": false,
          "internalType": "uint256",
          "name": "amount",
          "type": "uint256"
        },
        {
          "indexed": false,
          "internalType": "uint256",
          "name": "newBalance",
          "type": "uint256"
        }
      ],
      "name": "Withdrawn",
      "type": "event"
    },
    {
      "inputs": [],
      "name": "BURN",
      "outputs": [
        {
          "internalType": "uint8",
          "name": "",
          "type": "uint8"
        }
      ],
      "stateMutability": "view",
      "type": "function"
    },
    {
      "inputs": [],
      "name": "FEE_BURN",
      "outputs": [
        {
          "internalType": "uint256",
          "name": "",
          "type": "uint256"
        }
      ],
      "stateMutability": "view",
      "type": "function"
    },
    {
      "inputs": [],
      "name": "FEE_DENOMINATOR",
      "outputs": [
        {
          "internalType": "uint256",
          "name": "",
          "type": "uint256"
        }
      ],
      "stateMutability": "view",
      "type": "function"
    },
    {
      "inputs": [],
      "name": "FEE_OWNER",
      "outputs": [
        {
          "internalType": "uint256",
          "name": "",
          "type": "uint256"
        }
      ],
      "stateMutability": "view",
      "type": "function"
    },
    {
      "inputs": [],
      "name": "MINT",
      "outputs": [
        {
          "internalType": "uint8",
          "name": "",
          "type": "uint8"
        }
      ],
      "stateMutability": "view",
      "type": "function"
    },
    {
      "inputs": [],
      "name": "NEUTRAL",
      "outputs": [
        {
          "internalType": "uint8",
          "name": "",
          "type": "uint8"
        }
      ],
      "stateMutability": "view",
      "type": "function"
    },
    {
      "inputs": [],
      "name": "ORACLE_TIMELOCK",
      "outputs": [
        {
          "internalType": "uint256",
          "name": "",
          "type": "uint256"
        }
      ],
      "stateMutability": "view",
      "type": "function"
    },
    {
      "inputs": [
        {
          "internalType": "address",
          "name": "",
          "type": "address"
        }
      ],
      "name": "balances",
      "outputs": [
        {
          "internalType": "uint256",
          "name": "",
          "type": "uint256"
        }
      ],
      "stateMutability": "view",
      "type": "function"
    },
    {
      "inputs": [],
      "name": "cancelOracleChange",
      "outputs": [],
      "stateMutability": "nonpayable",
      "type": "function"
    },
    {
      "inputs": [
        {
          "internalType": "uint8",
          "name": "result",
          "type": "uint8"
        },
        {
          "internalType": "uint256",
          "name": "rate",
          "type": "uint256"
        }
      ],
      "name": "closeRound",
      "outputs": [],
      "stateMutability": "nonpayable",
      "type": "function"
    },
    {
      "inputs": [],
      "name": "confirmOracle",
      "outputs": [],
      "stateMutability": "nonpayable",
      "type": "function"
    },
    {
      "inputs": [],
      "name": "currentRoundId",
      "outputs": [
        {
          "internalType": "uint256",
          "name": "",
          "type": "uint256"
        }
      ],
      "stateMutability": "view",
      "type": "function"
    },
    {
      "inputs": [
        {
          "internalType": "uint256",
          "name": "amount",
          "type": "uint256"
        }
      ],
      "name": "deposit",
      "outputs": [],
      "stateMutability": "nonpayable",
      "type": "function"
    },
    {
      "inputs": [],
      "name": "emergencyWithdraw",
      "outputs": [],
      "stateMutability": "nonpayable",
      "type": "function"
    },
    {
      "inputs": [
        {
          "internalType": "address",
          "name": "user",
          "type": "address"
        }
      ],
      "name": "getBalance",
      "outputs": [
        {
          "internalType": "uint256",
          "name": "",
          "type": "uint256"
        }
      ],
      "stateMutability": "view",
      "type": "function"
    },
    {
      "inputs": [],
      "name": "getContractBalance",
      "outputs": [
        {
          "internalType": "uint256",
          "name": "",
          "type": "uint256"
        }
      ],
      "stateMutability": "view",
      "type": "function"
    },
    {
      "inputs": [],
      "name": "getCurrentRound",
      "outputs": [
        {
          "internalType": "uint256",
          "name": "id",
          "type": "uint256"
        },
        {
          "internalType": "uint256",
          "name": "startTime",
          "type": "uint256"
        },
        {
          "internalType": "uint256",
          "name": "totalPool",
          "type": "uint256"
        },
        {
          "internalType": "uint256",
          "name": "mintPool",
          "type": "uint256"
        },
        {
          "internalType": "uint256",
          "name": "burnPool",
          "type": "uint256"
        },
        {
          "internalType": "uint256",
          "name": "neutralPool",
          "type": "uint256"
        },
        {
          "internalType": "bool",
          "name": "closed",
          "type": "bool"
        }
      ],
      "stateMutability": "view",
      "type": "function"
    },
    {
      "inputs": [
        {
          "internalType": "uint256",
          "name": "roundId",
          "type": "uint256"
        }
      ],
      "name": "getRoundInfo",
      "outputs": [
        {
          "internalType": "uint256",
          "name": "id",
          "type": "uint256"
        },
        {
          "internalType": "uint256",
          "name": "startTime",
          "type": "uint256"
        },
        {
          "internalType": "uint256",
          "name": "endTime",
          "type": "uint256"
        },
        {
          "internalType": "uint256",
          "name": "totalPool",
          "type": "uint256"
        },
        {
          "internalType": "uint8",
          "name": "result",
          "type": "uint8"
        },
        {
          "internalType": "bool",
          "name": "closed",
          "type": "bool"
        },
        {
          "internalType": "bool",
          "name": "refunded",
          "type": "bool"
        }
      ],
      "stateMutability": "view",
      "type": "function"
    },
    {
      "inputs": [],
      "name": "isSolvent",
      "outputs": [
        {
          "internalType": "bool",
          "name": "",
          "type": "bool"
        }
      ],
      "stateMutability": "view",
      "type": "function"
    },
    {
      "inputs": [
        {
          "internalType": "address",
          "name": "",
          "type": "address"
        }
      ],
      "name": "lastDepositTime",
      "outputs": [
        {
          "internalType": "uint256",
          "name": "",
          "type": "uint256"
        }
      ],
      "stateMutability": "view",
      "type": "function"
    },
    {
      "inputs": [],
      "name": "maxBetAmount",
      "outputs": [
        {
          "internalType": "uint256",
          "name": "",
          "type": "uint256"
        }
      ],
      "stateMutability": "view",
      "type": "function"
    },
    {
      "inputs": [],
      "name": "minBet",
      "outputs": [
        {
          "internalType": "uint256",
          "name": "",
          "type": "uint256"
        }
      ],
      "stateMutability": "view",
      "type": "function"
    },
    {
      "inputs": [],
      "name": "minDeposit",
      "outputs": [
        {
          "internalType": "uint256",
          "name": "",
          "type": "uint256"
        }
      ],
      "stateMutability": "view",
      "type": "function"
    },
    {
      "inputs": [],
      "name": "oracle",
      "outputs": [
        {
          "internalType": "address",
          "name": "",
          "type": "address"
        }
      ],
      "stateMutability": "view",
      "type": "function"
    },
    {
      "inputs": [],
      "name": "oracleChangeTime",
      "outputs": [
        {
          "internalType": "uint256",
          "name": "",
          "type": "uint256"
        }
      ],
      "stateMutability": "view",
      "type": "function"
    },
    {
      "inputs": [],
      "name": "owner",
      "outputs": [
        {
          "internalType": "address",
          "name": "",
          "type": "address"
        }
      ],
      "stateMutability": "view",
      "type": "function"
    },
    {
      "inputs": [],
      "name": "ownerFees",
      "outputs": [
        {
          "internalType": "uint256",
          "name": "",
          "type": "uint256"
        }
      ],
      "stateMutability": "view",
      "type": "function"
    },
    {
      "inputs": [],
      "name": "pause",
      "outputs": [],
      "stateMutability": "nonpayable",
      "type": "function"
    },
    {
      "inputs": [],
      "name": "paused",
      "outputs": [
        {
          "internalType": "bool",
          "name": "",
          "type": "bool"
        }
      ],
      "stateMutability": "view",
      "type": "function"
    },
    {
      "inputs": [],
      "name": "pendingOracle",
      "outputs": [
        {
          "internalType": "address",
          "name": "",
          "type": "address"
        }
      ],
      "stateMutability": "view",
      "type": "function"
    },
    {
      "inputs": [
        {
          "internalType": "uint256",
          "name": "",
          "type": "uint256"
        },
        {
          "internalType": "address",
          "name": "",
          "type": "address"
        }
      ],
      "name": "playerBets",
      "outputs": [
        {
          "internalType": "uint256",
          "name": "amount",
          "type": "uint256"
        },
        {
          "internalType": "uint8",
          "name": "prediction",
          "type": "uint8"
        },
        {
          "internalType": "bool",
          "name": "claimed",
          "type": "bool"
        }
      ],
      "stateMutability": "view",
      "type": "function"
    },
    {
      "inputs": [
        {
          "internalType": "address",
          "name": "player",
          "type": "address"
        },
        {
          "internalType": "uint256",
          "name": "roundId",
          "type": "uint256"
        },
        {
          "internalType": "uint8",
          "name": "prediction",
          "type": "uint8"
        },
        {
          "internalType": "uint256",
          "name": "amount",
          "type": "uint256"
        }
      ],
      "name": "recordBet",
      "outputs": [],
      "stateMutability": "nonpayable",
      "type": "function"
    },
    {
      "inputs": [
        {
          "internalType": "address",
          "name": "player",
          "type": "address"
        },
        {
          "internalType": "uint256",
          "name": "roundId",
          "type": "uint256"
        },
        {
          "internalType": "bool",
          "name": "won",
          "type": "bool"
        },
        {
          "internalType": "uint256",
          "name": "payout",
          "type": "uint256"
        }
      ],
      "name": "recordBetResult",
      "outputs": [],
      "stateMutability": "nonpayable",
      "type": "function"
    },
    {
      "inputs": [
        {
          "internalType": "address",
          "name": "player",
          "type": "address"
        },
        {
          "internalType": "uint256",
          "name": "roundId",
          "type": "uint256"
        },
        {
          "internalType": "uint256",
          "name": "amount",
          "type": "uint256"
        }
      ],
      "name": "refundPlayer",
      "outputs": [],
      "stateMutability": "nonpayable",
      "type": "function"
    },
    {
      "inputs": [
        {
          "internalType": "uint256",
          "name": "roundId",
          "type": "uint256"
        }
      ],
      "name": "refundRound",
      "outputs": [],
      "stateMutability": "nonpayable",
      "type": "function"
    },
    {
      "inputs": [],
      "name": "renounceOwnership",
      "outputs": [],
      "stateMutability": "nonpayable",
      "type": "function"
    },
    {
      "inputs": [
        {
          "internalType": "uint256",
          "name": "",
          "type": "uint256"
        }
      ],
      "name": "rounds",
      "outputs": [
        {
          "internalType": "uint256",
          "name": "id",
          "type": "uint256"
        },
        {
          "internalType": "uint256",
          "name": "startTime",
          "type": "uint256"
        },
        {
          "internalType": "uint256",
          "name": "endTime",
          "type": "uint256"
        },
        {
          "internalType": "uint256",
          "name": "totalPool",
          "type": "uint256"
        },
        {
          "internalType": "uint256",
          "name": "mintPool",
          "type": "uint256"
        },
        {
          "internalType": "uint256",
          "name": "burnPool",
          "type": "uint256"
        },
        {
          "internalType": "uint256",
          "name": "neutralPool",
          "type": "uint256"
        },
        {
          "internalType": "uint256",
          "name": "availableForPayouts",
          "type": "uint256"
        },
        {
          "internalType": "uint8",
          "name": "result",
          "type": "uint8"
        },
        {
          "internalType": "bool",
          "name": "closed",
          "type": "bool"
        },
        {
          "internalType": "bool",
          "name": "refunded",
          "type": "bool"
        }
      ],
      "stateMutability": "view",
      "type": "function"
    },
    {
      "inputs": [],
      "name": "scndlToken",
      "outputs": [
        {
          "internalType": "contract IERC20",
          "name": "",
          "type": "address"
        }
      ],
      "stateMutability": "view",
      "type": "function"
    },
    {
      "inputs": [
        {
          "internalType": "uint256",
          "name": "_amount",
          "type": "uint256"
        }
      ],
      "name": "setMaxBetAmount",
      "outputs": [],
      "stateMutability": "nonpayable",
      "type": "function"
    },
    {
      "inputs": [
        {
          "internalType": "uint256",
          "name": "_amount",
          "type": "uint256"
        }
      ],
      "name": "setMinBet",
      "outputs": [],
      "stateMutability": "nonpayable",
      "type": "function"
    },
    {
      "inputs": [
        {
          "internalType": "uint256",
          "name": "_amount",
          "type": "uint256"
        }
      ],
      "name": "setMinDeposit",
      "outputs": [],
      "stateMutability": "nonpayable",
      "type": "function"
    },
    {
      "inputs": [
        {
          "internalType": "address",
          "name": "_newOracle",
          "type": "address"
        }
      ],
      "name": "setOracle",
      "outputs": [],
      "stateMutability": "nonpayable",
      "type": "function"
    },
    {
      "inputs": [
        {
          "internalType": "uint256",
          "name": "_delay",
          "type": "uint256"
        }
      ],
      "name": "setWithdrawalDelay",
      "outputs": [],
      "stateMutability": "nonpayable",
      "type": "function"
    },
    {
      "inputs": [],
      "name": "totalBurned",
      "outputs": [
        {
          "internalType": "uint256",
          "name": "",
          "type": "uint256"
        }
      ],
      "stateMutability": "view",
      "type": "function"
    },
    {
      "inputs": [],
      "name": "totalUserLiabilities",
      "outputs": [
        {
          "internalType": "uint256",
          "name": "",
          "type": "uint256"
        }
      ],
      "stateMutability": "view",
      "type": "function"
    },
    {
      "inputs": [
        {
          "internalType": "address",
          "name": "newOwner",
          "type": "address"
        }
      ],
      "name": "transferOwnership",
      "outputs": [],
      "stateMutability": "nonpayable",
      "type": "function"
    },
    {
      "inputs": [],
      "name": "unpause",
      "outputs": [],
      "stateMutability": "nonpayable",
      "type": "function"
    },
    {
      "inputs": [
        {
          "internalType": "uint256",
          "name": "amount",
          "type": "uint256"
        }
      ],
      "name": "withdraw",
      "outputs": [],
      "stateMutability": "nonpayable",
      "type": "function"
    },
    {
      "inputs": [],
      "name": "withdrawFees",
      "outputs": [],
      "stateMutability": "nonpayable",
      "type": "function"
    },
    {
      "inputs": [],
      "name": "withdrawalDelay",
      "outputs": [
        {
          "internalType": "uint256",
          "name": "",
          "type": "uint256"
        }
      ],
      "stateMutability": "view",
      "type": "function"
    }
  ],
  "bytecode": "0x6080604052683635c9adc5dea00000600755683635c9adc5dea0000060085569152d02c7e14af68000006009556000600a553480156200003e57600080fd5b50604051620027a4380380620027a4833981016040819052620000619162000368565b33806200008957604051631e4fbdf760e01b8152600060048201526024015b60405180910390fd5b62000094816200017b565b50600180556001600160a01b038216620000e15760405162461bcd60e51b815260206004820152600d60248201526c24b73b30b634b2103a37b5b2b760991b604482015260640162000080565b6001600160a01b0381166200012a5760405162461bcd60e51b815260206004820152600e60248201526d496e76616c6964206f7261636c6560901b604482015260640162000080565b60028054610100600160a81b0319166101006001600160a01b038581169190910291909117909155600380546001600160a01b03191691831691909117905562000173620001cb565b5050620003c8565b600080546001600160a01b038381166001600160a01b0319831681178455604051919092169283917f8be0079c531659141344cd1fd0a4f28419497f9722a3daafe3b4186f6b6457e09190a35050565b60068054906000620001dd83620003a0565b91905055506040518061016001604052806006548152602001428152602001600081526020016000815260200160008152602001600081526020016000815260200160008152602001600060ff16815260200160001515815260200160001515815250600d60006006548152602001908152602001600020600082015181600001556020820151816001015560408201518160020155606082015181600301556080820151816004015560a0820151816005015560c0820151816006015560e082015181600701556101008201518160080160006101000a81548160ff021916908360ff1602179055506101208201518160080160016101000a81548160ff0219169083151502179055506101408201518160080160026101000a81548160ff0219169083151502179055509050506006547f278844837bcf8364a705384bf3a2812901f54155bae86dea81dd52aa5b9ec0e3426040516200034191815260200190565b60405180910390a2565b80516001600160a01b03811681146200036357600080fd5b919050565b600080604083850312156200037c57600080fd5b62000387836200034b565b915062000397602084016200034b565b90509250929050565b600060018201620003c157634e487b7160e01b600052601160045260246000fd5b5060010190565b6123cc80620003d86000396000f3fe608060405234801561001057600080fd5b50600436106102d65760003560e01c80637cfbc7a511610182578063a32bf597116100e9578063d2c13da5116100a2578063db2e21bc1161007c578063db2e21bc14610747578063e49af9da1461074f578063f2fde38b146107ac578063f8b2cb4f146107bf57600080fd5b8063d2c13da514610722578063d73792a914610735578063d89135cd1461073e57600080fd5b8063a32bf59714610672578063a7ab6961146106ed578063aaa3e08f146106f6578063b6b55f25146106fe578063c0a2526c14610711578063cab11d5d1461071957600080fd5b80638c65c81f1161013b5780638c65c81f1461056b5780638da5cb5b146106345780638fcc9cfb146106455780639619367d1461065857806397362faa146106615780639cbe5efd1461066957600080fd5b80637cfbc7a5146104805780637dc0d1d0146104935780638456cb59146104a657806388c3ffb0146104ae57806388ea41b914610540578063898443d81461055357600080fd5b8063476343ee116102415780635e519ff6116101fa57806377c1b970116101d457806377c1b97014610449578063782065e51461045c5780637adbf973146104655780637b1f12a81461047857600080fd5b80635e519ff6146104265780636f9fb98a14610439578063715018a61461044157600080fd5b8063476343ee146103da57806349edfb94146103e257806351ea6340146103eb5780635443b139146103f45780635c975abb146104075780635ce239501461041e57600080fd5b8063386cd8f111610293578063386cd8f1146103895780633e36f4c7146103925780633f054846146103ac5780633f4ba83a146103bf57806341b3d185146103c757806345b9cdf7146103d057600080fd5b806302527753146102db5780630607e5bb1461030e57806309ddd43b1461033957806324ba65561461034e57806327e235e3146103565780632e1a7d4d14610376575b600080fd5b6102fb6102e9366004612121565b600b6020526000908152604090205481565b6040519081526020015b60405180910390f35b600e54610321906001600160a01b031681565b6040516001600160a01b039091168152602001610305565b61034c610347366004612151565b6107e8565b005b6102fb60c881565b6102fb610364366004612121565b60046020526000908152604090205481565b61034c610384366004612197565b610a56565b6102fb60105481565b61039a600181565b60405160ff9091168152602001610305565b61034c6103ba3660046121b0565b610d53565b61034c610e70565b6102fb60075481565b6102fb6201518081565b61034c610e82565b6102fb61012c81565b6102fb600f5481565b61034c610402366004612197565b610fd0565b60025460ff165b6040519015158152602001610305565b61040e6110f5565b61034c6104343660046121f4565b61117e565b6102fb6113d0565b61034c611447565b61034c61045736600461221e565b611459565b6102fb60055481565b61034c610473366004612121565b61181b565b61039a600381565b61034c61048e366004612197565b6118d2565b600354610321906001600160a01b031681565b61034c6118df565b6105046104bc366004612197565b6000908152600d602052604090208054600182015460028301546003840154600890940154929491939092909160ff8083169261010081048216926201000090910490911690565b60408051978852602088019690965294860193909352606085019190915260ff166080840152151560a0830152151560c082015260e001610305565b61034c61054e366004612197565b6118ef565b6002546103219061010090046001600160a01b031681565b6105da610579366004612197565b600d6020526000908152604090208054600182015460028301546003840154600485015460058601546006870154600788015460089098015496979596949593949293919290919060ff80821691610100810482169162010000909104168b565b604080519b8c5260208c019a909a52988a01979097526060890195909552608088019390935260a087019190915260c086015260e085015260ff166101008401521515610120830152151561014082015261016001610305565b6000546001600160a01b0316610321565b61034c610653366004612197565b6118fc565b6102fb60085481565b61034c611909565b6102fb60065481565b600680546000908152600d60205260409020805460018201546003830154600484015460058501549585015460089095015493959294919390929190610100900460ff16604080519788526020880196909652948601939093526060850191909152608084015260a0830152151560c082015260e001610305565b6102fb600a5481565b61034c6119ad565b61034c61070c366004612197565b611aae565b61039a600281565b6102fb60095481565b61034c610730366004612197565b611c2f565b6102fb61271081565b6102fb60115481565b61034c611c81565b61078d61075d366004612252565b600c6020908152600092835260408084209091529082529020805460019091015460ff8082169161010090041683565b6040805193845260ff9092166020840152151590820152606001610305565b61034c6107ba366004612121565b611dd0565b6102fb6107cd366004612121565b6001600160a01b031660009081526004602052604090205490565b6003546001600160a01b0316331461081b5760405162461bcd60e51b81526004016108129061227e565b60405180910390fd5b6000838152600d602052604090206008810154610100900460ff166108755760405162461bcd60e51b815260206004820152601060248201526f149bdd5b99081b9bdd0818db1bdcd95960821b6044820152606401610812565b6000848152600c602090815260408083206001600160a01b0389168452909152902080546108d45760405162461bcd60e51b815260206004820152600c60248201526b139bc818995d08199bdd5b9960a21b6044820152606401610812565b6001810154610100900460ff16156109205760405162461bcd60e51b815260206004820152600f60248201526e105b1c9958591e4818db185a5b5959608a1b6044820152606401610812565b60018101805461ff00191661010017905583801561093e5750600083115b156109ed57816007015483111561098d5760405162461bcd60e51b815260206004820152601360248201527214185e5bdd5d08195e18d959591cc81c1bdbdb606a1b6044820152606401610812565b828260070160008282546109a191906122b9565b90915550506001600160a01b038616600090815260046020526040812080548592906109ce9084906122d2565b9250508190555082600560008282546109e791906122d2565b90915550505b6000846109fb5760006109fd565b835b6040805188815287151560208201529081018290529091506001600160a01b038816907f992ee81395f0913fd4b06b5d1464fffc940d12650dc9d8f081d0b6252244457c9060600160405180910390a250505050505050565b610a5e611e0b565b60008111610aa35760405162461bcd60e51b81526020600482015260126024820152710416d6f756e74206d757374206265203e20360741b6044820152606401610812565b33600090815260046020526040902054811115610af95760405162461bcd60e51b8152602060048201526014602482015273496e73756666696369656e742062616c616e636560601b6044820152606401610812565b6002546040516370a0823160e01b8152306004820152829161010090046001600160a01b0316906370a0823190602401602060405180830381865afa158015610b46573d6000803e3d6000fd5b505050506040513d601f19601f82011682018060405250810190610b6a91906122e5565b1015610bb85760405162461bcd60e51b815260206004820152601860248201527f436f6e74726163742062616c616e636520746f6f206c6f7700000000000000006044820152606401610812565b600a5415610c2c57600a54336000908152600b6020526040902054610bdd91906122d2565b421015610c2c5760405162461bcd60e51b815260206004820152601860248201527f5769746864726177616c2064656c6179206e6f74206d657400000000000000006044820152606401610812565b3360009081526004602052604081208054839290610c4b9084906122b9565b925050819055508060056000828254610c6491906122b9565b909155505060025460405163a9059cbb60e01b8152336004820152602481018390526101009091046001600160a01b03169063a9059cbb906044016020604051808303816000875af1158015610cbe573d6000803e3d6000fd5b505050506040513d601f19601f82011682018060405250810190610ce291906122fe565b610cfe5760405162461bcd60e51b81526004016108129061231b565b33600081815260046020908152604091829020548251858152918201527f92ccf450a286a957af52509bc1c9939d1a6a481783e142e41e2499f0bb66ebc691015b60405180910390a2610d5060018055565b50565b6003546001600160a01b03163314610d7d5760405162461bcd60e51b81526004016108129061227e565b6000828152600d602052604090206008015462010000900460ff16610dd95760405162461bcd60e51b8152602060048201526012602482015271149bdd5b99081b9bdd081c99599d5b99195960721b6044820152606401610812565b6001600160a01b03831660009081526004602052604081208054839290610e019084906122d2565b925050819055508060056000828254610e1a91906122d2565b909155505060408051838152600060208201529081018290526001600160a01b038416907f992ee81395f0913fd4b06b5d1464fffc940d12650dc9d8f081d0b6252244457c9060600160405180910390a2505050565b610e78611e35565b610e80611e62565b565b610e8a611e35565b60105480610ec45760405162461bcd60e51b81526020600482015260076024820152664e6f206665657360c81b6044820152606401610812565b60006010556002546001600160a01b036101009091041663a9059cbb610ef26000546001600160a01b031690565b6040516001600160e01b031960e084901b1681526001600160a01b039091166004820152602481018490526044016020604051808303816000875af1158015610f3f573d6000803e3d6000fd5b505050506040513d601f19601f82011682018060405250810190610f6391906122fe565b610f7f5760405162461bcd60e51b81526004016108129061231b565b6000546001600160a01b03166001600160a01b03167fc0819c13be868895eb93e40eaceb96de976442fa1d404e5c55f14bb65a8c489a82604051610fc591815260200190565b60405180910390a250565b6003546001600160a01b03163314610ffa5760405162461bcd60e51b81526004016108129061227e565b6000818152600d60205260409020600881015462010000900460ff16156110565760405162461bcd60e51b815260206004820152601060248201526f105b1c9958591e481c99599d5b99195960821b6044820152606401610812565b6008810154610100900460ff1615806110745750600881015460ff16155b6110b35760405162461bcd60e51b815260206004820152601060248201526f149bdd5b99081a185cc81c995cdd5b1d60821b6044820152606401610812565b60088101805462ffff0019166201010017905560405182907f28846375d91adf0298632299641880d604604ddfbba9fd4f773bbbc56a9cabc090600090a25050565b600060105460055461110791906122d2565b6002546040516370a0823160e01b81523060048201526101009091046001600160a01b0316906370a0823190602401602060405180830381865afa158015611153573d6000803e3d6000fd5b505050506040513d601f19601f8201168201806040525081019061117791906122e5565b1015905090565b6003546001600160a01b031633146111a85760405162461bcd60e51b81526004016108129061227e565b600160ff8316108015906111c05750600360ff831611155b6111fd5760405162461bcd60e51b815260206004820152600e60248201526d125b9d985b1a59081c995cdd5b1d60921b6044820152606401610812565b6006546000908152600d602052604090206008810154610100900460ff16156112595760405162461bcd60e51b815260206004820152600e60248201526d105b1c9958591e4818db1bdcd95960921b6044820152606401610812565b60088101805442600284015561ffff191660ff8516176101001790556003810154801561138357600061271061129161012c84612344565b61129b919061235b565b905060006127106112ad60c885612344565b6112b7919061235b565b905081601060008282546112cb91906122d2565b9250508190555080601160008282546112e491906122d2565b909155508190506112f583856122b9565b6112ff91906122b9565b600785015560025460405163a9059cbb60e01b815261dead6004820152602481018390526101009091046001600160a01b03169063a9059cbb906044016020604051808303816000875af115801561135b573d6000803e3d6000fd5b505050506040513d601f19601f8201168201806040525081019061137f91906122fe565b5050505b6006546040805160ff87168152602081018490527feeddca6c20105f7713df8a4afff197aadc0688d5ed755949b9a9f95b0243abc8910160405180910390a26113ca611eb4565b50505050565b6002546040516370a0823160e01b815230600482015260009161010090046001600160a01b0316906370a0823190602401602060405180830381865afa15801561141e573d6000803e3d6000fd5b505050506040513d601f19601f8201168201806040525081019061144291906122e5565b905090565b61144f611e35565b610e806000612031565b6003546001600160a01b031633146114835760405162461bcd60e51b81526004016108129061227e565b60065483146114c25760405162461bcd60e51b815260206004820152600b60248201526a15dc9bdb99c81c9bdd5b9960aa1b6044820152606401610812565b6000838152600d6020526040902060080154610100900460ff16156115185760405162461bcd60e51b815260206004820152600c60248201526b149bdd5b990818db1bdcd95960a21b6044820152606401610812565b600160ff8316108015906115305750600360ff831611155b6115715760405162461bcd60e51b815260206004820152601260248201527124b73b30b634b210383932b234b1ba34b7b760711b6044820152606401610812565b600854811015801561158557506009548111155b6115c65760405162461bcd60e51b8152602060048201526012602482015271125b9d985b1a590818995d08185b5bdd5b9d60721b6044820152606401610812565b6001600160a01b0384166000908152600460205260409020548111156116255760405162461bcd60e51b8152602060048201526014602482015273496e73756666696369656e742062616c616e636560601b6044820152606401610812565b6000838152600c602090815260408083206001600160a01b03881684529091529020541561168e5760405162461bcd60e51b8152602060048201526016602482015275105b1c9958591e4818995d081d1a1a5cc81c9bdd5b9960521b6044820152606401610812565b6001600160a01b038416600090815260046020526040812080548392906116b69084906122b9565b9250508190555080600560008282546116cf91906122b9565b90915550506040805160608101825282815260ff80851660208084019182526000848601818152898252600c83528682206001600160a01b038c16835283528682209551865592516001959095018054935115156101000261ffff19909416959094169490941791909117909155858252600d90529081206003810180549192849261175c9084906122d2565b909155505060001960ff84160161178c578181600401600082825461178191906122d2565b909155506117c69050565b60011960ff8416016117ac578181600501600082825461178191906122d2565b818160060160008282546117c091906122d2565b90915550505b6040805185815260ff851660208201529081018390526001600160a01b038616907fa2b349f6856d59e061c143afc631ee55f5a5c7aa6d201bf0b840cdb62492a26f9060600160405180910390a25050505050565b611823611e35565b6001600160a01b03811661186a5760405162461bcd60e51b815260206004820152600e60248201526d496e76616c6964206f7261636c6560901b6044820152606401610812565b600e80546001600160a01b0319166001600160a01b03831617905561189262015180426122d2565b600f8190556040519081526001600160a01b038216907f11169e5dd016e663e37cbe7c1d6d16dd61aee1fdc0310ef10092d7b631d4746290602001610fc5565b6118da611e35565b600955565b6118e7611e35565b610e80612081565b6118f7611e35565b600855565b611904611e35565b600755565b611911611e35565b600e546001600160a01b031661195d5760405162461bcd60e51b81526020600482015260116024820152704e6f2070656e64696e67206f7261636c6560781b6044820152606401610812565b600e80546001600160a01b031981169091556000600f8190556040516001600160a01b039092169182917f811dbf57569e134b4f3e77775b3e8d681c93f715fcd9c0ac5ee68aac13d1ea1e91a250565b6119b5611e35565b600e546001600160a01b0316611a015760405162461bcd60e51b81526020600482015260116024820152704e6f2070656e64696e67206f7261636c6560781b6044820152606401610812565b600f54421015611a4a5760405162461bcd60e51b8152602060048201526014602482015273151a5b595b1bd8dac81b9bdd08195e1c1a5c995960621b6044820152606401610812565b60038054600e80546001600160a01b03198084166001600160a01b0383811691821790965591169091556000600f8190556040519390921692909183917f05cd89403c6bdeac21c2ff33de395121a31fa1bc2bf3adf4825f1f86e79969dd9190a350565b611ab6611e0b565b611abe6120be565b600754811015611b085760405162461bcd60e51b815260206004820152601560248201527410995b1bddc81b5a5b9a5b5d5b4819195c1bdcda5d605a1b6044820152606401610812565b6002546040516323b872dd60e01b8152336004820152306024820152604481018390526101009091046001600160a01b0316906323b872dd906064016020604051808303816000875af1158015611b63573d6000803e3d6000fd5b505050506040513d601f19601f82011682018060405250810190611b8791906122fe565b611ba35760405162461bcd60e51b81526004016108129061231b565b3360009081526004602052604081208054839290611bc29084906122d2565b925050819055508060056000828254611bdb91906122d2565b9091555050336000818152600b602090815260408083204290556004825291829020548251858152918201527f73a19dd210f1a7f902193214c0ee91dd35ee5b4d920cba8d519eca65a7b488ca9101610d3f565b611c37611e35565b62015180811115611c7c5760405162461bcd60e51b815260206004820152600f60248201526e4d61782031206461792064656c617960881b6044820152606401610812565b600a55565b611c89611e0b565b3360009081526004602052604090205480611cd35760405162461bcd60e51b815260206004820152600a6024820152694e6f2062616c616e636560b01b6044820152606401610812565b33600090815260046020526040812081905560058054839290611cf79084906122b9565b909155505060025460405163a9059cbb60e01b8152336004820152602481018390526101009091046001600160a01b03169063a9059cbb906044016020604051808303816000875af1158015611d51573d6000803e3d6000fd5b505050506040513d601f19601f82011682018060405250810190611d7591906122fe565b611d915760405162461bcd60e51b81526004016108129061231b565b60405181815233907f2e39961a70a10f4d46383948095ac2752b3ee642a7c76aa827410aaff08c2e519060200160405180910390a250610e8060018055565b611dd8611e35565b6001600160a01b038116611e0257604051631e4fbdf760e01b815260006004820152602401610812565b610d5081612031565b600260015403611e2e57604051633ee5aeb560e01b815260040160405180910390fd5b6002600155565b6000546001600160a01b03163314610e805760405163118cdaa760e01b8152336004820152602401610812565b611e6a6120e2565b6002805460ff191690557f5db9ee0a495bf2e6ff9c91a7834c1ba4fdd244a5e8aa4e537bd38aeae4b073aa335b6040516001600160a01b03909116815260200160405180910390a1565b60068054906000611ec48361237d565b91905055506040518061016001604052806006548152602001428152602001600081526020016000815260200160008152602001600081526020016000815260200160008152602001600060ff16815260200160001515815260200160001515815250600d60006006548152602001908152602001600020600082015181600001556020820151816001015560408201518160020155606082015181600301556080820151816004015560a0820151816005015560c0820151816006015560e082015181600701556101008201518160080160006101000a81548160ff021916908360ff1602179055506101208201518160080160016101000a81548160ff0219169083151502179055506101408201518160080160026101000a81548160ff0219169083151502179055509050506006547f278844837bcf8364a705384bf3a2812901f54155bae86dea81dd52aa5b9ec0e34260405161202791815260200190565b60405180910390a2565b600080546001600160a01b038381166001600160a01b0319831681178455604051919092169283917f8be0079c531659141344cd1fd0a4f28419497f9722a3daafe3b4186f6b6457e09190a35050565b6120896120be565b6002805460ff191660011790557f62e78cea01bee320cd4e420270b5ea74000d11b0c9f74754ebdbfc544b05a258611e973390565b60025460ff1615610e805760405163d93c066560e01b815260040160405180910390fd5b60025460ff16610e8057604051638dfc202b60e01b815260040160405180910390fd5b80356001600160a01b038116811461211c57600080fd5b919050565b60006020828403121561213357600080fd5b61213c82612105565b9392505050565b8015158114610d5057600080fd5b6000806000806080858703121561216757600080fd5b61217085612105565b935060208501359250604085013561218781612143565b9396929550929360600135925050565b6000602082840312156121a957600080fd5b5035919050565b6000806000606084860312156121c557600080fd5b6121ce84612105565b95602085013595506040909401359392505050565b803560ff8116811461211c57600080fd5b6000806040838503121561220757600080fd5b612210836121e3565b946020939093013593505050565b6000806000806080858703121561223457600080fd5b61223d85612105565b935060208501359250612187604086016121e3565b6000806040838503121561226557600080fd5b8235915061227560208401612105565b90509250929050565b6020808252600b908201526a4f6e6c79206f7261636c6560a81b604082015260600190565b634e487b7160e01b600052601160045260246000fd5b818103818111156122cc576122cc6122a3565b92915050565b808201808211156122cc576122cc6122a3565b6000602082840312156122f757600080fd5b5051919050565b60006020828403121561231057600080fd5b815161213c81612143565b6020808252600f908201526e151c985b9cd9995c8819985a5b1959608a1b604082015260600190565b80820281158282048414176122cc576122cc6122a3565b60008261237857634e487b7160e01b600052601260045260246000fd5b500490565b60006001820161238f5761238f6122a3565b506001019056fea2646970667358221220a997951a357b5ff2152391efe4cb9e8de500406784efb28c9c7adccd690ed46e64736f6c63430008140033",
  "linkReferences": {},
  "deployedLinkReferences": {}
}