{
  "_format": "hh-sol-artifact-1",
  "contractName": "PredictionGame",
  "sourceName": "contracts/PredictionGame.sol",
  "abi": [
    {
      "inputs": [
        {
          "internalType": "address",
          "name": "_token",
          "type": "address"
        },
        {
          "internalType": "address",
          "name": "_oracle",
          "type": "address"
        }
      ],
      "stateMutability": "nonpayable",
      "type": "constructor"
    },
    {
      "inputs": [
        {
          "internalType": "address",
          "name": "owner",
          "type": "address"
        }
      ],
      "name": "OwnableInvalidOwner",
      "type": "error"
    },
    {
      "inputs": [
        {
          "internalType": "address",
          "name": "account",
          "type": "address"
        }
      ],
      "name": "OwnableUnauthorizedAccount",
      "type": "error"
    },
    {
      "inputs": [],
      "name": "ReentrancyGuardReentrantCall",
      "type": "error"
    },
    {
      "anonymous": false,
      "inputs": [
        {
          "indexed": true,
          "internalType": "uint256",
          "name": "roundId",
          "type": "uint256"
        },
        {
          "indexed": true,
          "internalType": "address",
          "name": "player",
          "type": "address"
        },
        {
          "indexed": false,
          "internalType": "uint8",
          "name": "prediction",
          "type": "uint8"
        },
        {
          "indexed": false,
          "internalType": "uint256",
          "name": "amount",
          "type": "uint256"
        }
      ],
      "name": "BetPlaced",
      "type": "event"
    },
    {
      "anonymous": false,
      "inputs": [
        {
          "indexed": true,
          "internalType": "address",
          "name": "owner",
          "type": "address"
        },
        {
          "indexed": false,
          "internalType": "uint256",
          "name": "amount",
          "type": "uint256"
        }
      ],
      "name": "FeesWithdrawn",
      "type": "event"
    },
    {
      "anonymous": false,
      "inputs": [
        {
          "indexed": true,
          "internalType": "address",
          "name": "previousOwner",
          "type": "address"
        },
        {
          "indexed": true,
          "internalType": "address",
          "name": "newOwner",
          "type": "address"
        }
      ],
      "name": "OwnershipTransferred",
      "type": "event"
    },
    {
      "anonymous": false,
      "inputs": [
        {
          "indexed": true,
          "internalType": "uint256",
          "name": "roundId",
          "type": "uint256"
        },
        {
          "indexed": false,
          "internalType": "uint8",
          "name": "result",
          "type": "uint8"
        },
        {
          "indexed": false,
          "internalType": "uint256",
          "name": "rate",
          "type": "uint256"
        },
        {
          "indexed": false,
          "internalType": "uint256",
          "name": "burned",
          "type": "uint256"
        }
      ],
      "name": "RoundClosed",
      "type": "event"
    },
    {
      "anonymous": false,
      "inputs": [
        {
          "indexed": true,
          "internalType": "uint256",
          "name": "roundId",
          "type": "uint256"
        }
      ],
      "name": "RoundRefunded",
      "type": "event"
    },
    {
      "anonymous": false,
      "inputs": [
        {
          "indexed": true,
          "internalType": "uint256",
          "name": "roundId",
          "type": "uint256"
        },
        {
          "indexed": false,
          "internalType": "uint256",
          "name": "startTime",
          "type": "uint256"
        }
      ],
      "name": "RoundStarted",
      "type": "event"
    },
    {
      "anonymous": false,
      "inputs": [
        {
          "indexed": false,
          "internalType": "uint256",
          "name": "amount",
          "type": "uint256"
        },
        {
          "indexed": false,
          "internalType": "uint256",
          "name": "totalBurned",
          "type": "uint256"
        }
      ],
      "name": "TokensBurned",
      "type": "event"
    },
    {
      "anonymous": false,
      "inputs": [
        {
          "indexed": true,
          "internalType": "uint256",
          "name": "roundId",
          "type": "uint256"
        },
        {
          "indexed": true,
          "internalType": "address",
          "name": "player",
          "type": "address"
        },
        {
          "indexed": false,
          "internalType": "uint256",
          "name": "amount",
          "type": "uint256"
        }
      ],
      "name": "WinningsClaimed",
      "type": "event"
    },
    {
      "inputs": [],
      "name": "BURN",
      "outputs": [
        {
          "internalType": "uint8",
          "name": "",
          "type": "uint8"
        }
      ],
      "stateMutability": "view",
      "type": "function"
    },
    {
      "inputs": [],
      "name": "DEAD_ADDRESS",
      "outputs": [
        {
          "internalType": "address",
          "name": "",
          "type": "address"
        }
      ],
      "stateMutability": "view",
      "type": "function"
    },
    {
      "inputs": [],
      "name": "FEE_BURN",
      "outputs": [
        {
          "internalType": "uint256",
          "name": "",
          "type": "uint256"
        }
      ],
      "stateMutability": "view",
      "type": "function"
    },
    {
      "inputs": [],
      "name": "FEE_DENOMINATOR",
      "outputs": [
        {
          "internalType": "uint256",
          "name": "",
          "type": "uint256"
        }
      ],
      "stateMutability": "view",
      "type": "function"
    },
    {
      "inputs": [],
      "name": "FEE_OWNER",
      "outputs": [
        {
          "internalType": "uint256",
          "name": "",
          "type": "uint256"
        }
      ],
      "stateMutability": "view",
      "type": "function"
    },
    {
      "inputs": [],
      "name": "FEE_TOTAL",
      "outputs": [
        {
          "internalType": "uint256",
          "name": "",
          "type": "uint256"
        }
      ],
      "stateMutability": "view",
      "type": "function"
    },
    {
      "inputs": [],
      "name": "MINT",
      "outputs": [
        {
          "internalType": "uint8",
          "name": "",
          "type": "uint8"
        }
      ],
      "stateMutability": "view",
      "type": "function"
    },
    {
      "inputs": [],
      "name": "NEUTRAL",
      "outputs": [
        {
          "internalType": "uint8",
          "name": "",
          "type": "uint8"
        }
      ],
      "stateMutability": "view",
      "type": "function"
    },
    {
      "inputs": [
        {
          "internalType": "uint256",
          "name": "",
          "type": "uint256"
        },
        {
          "internalType": "address",
          "name": "",
          "type": "address"
        }
      ],
      "name": "bets",
      "outputs": [
        {
          "internalType": "uint256",
          "name": "amount",
          "type": "uint256"
        },
        {
          "internalType": "uint8",
          "name": "prediction",
          "type": "uint8"
        },
        {
          "internalType": "bool",
          "name": "claimed",
          "type": "bool"
        }
      ],
      "stateMutability": "view",
      "type": "function"
    },
    {
      "inputs": [
        {
          "internalType": "uint256",
          "name": "roundId",
          "type": "uint256"
        },
        {
          "internalType": "address",
          "name": "player",
          "type": "address"
        }
      ],
      "name": "checkResult",
      "outputs": [
        {
          "internalType": "bool",
          "name": "participated",
          "type": "bool"
        },
        {
          "internalType": "uint8",
          "name": "prediction",
          "type": "uint8"
        },
        {
          "internalType": "uint8",
          "name": "result",
          "type": "uint8"
        },
        {
          "internalType": "bool",
          "name": "won",
          "type": "bool"
        },
        {
          "internalType": "bool",
          "name": "claimed",
          "type": "bool"
        },
        {
          "internalType": "uint256",
          "name": "potentialWinnings",
          "type": "uint256"
        }
      ],
      "stateMutability": "view",
      "type": "function"
    },
    {
      "inputs": [
        {
          "internalType": "uint256",
          "name": "roundId",
          "type": "uint256"
        }
      ],
      "name": "claimWinnings",
      "outputs": [],
      "stateMutability": "nonpayable",
      "type": "function"
    },
    {
      "inputs": [
        {
          "internalType": "uint8",
          "name": "result",
          "type": "uint8"
        },
        {
          "internalType": "uint256",
          "name": "rate",
          "type": "uint256"
        }
      ],
      "name": "closeRound",
      "outputs": [],
      "stateMutability": "nonpayable",
      "type": "function"
    },
    {
      "inputs": [],
      "name": "currentRoundId",
      "outputs": [
        {
          "internalType": "uint256",
          "name": "",
          "type": "uint256"
        }
      ],
      "stateMutability": "view",
      "type": "function"
    },
    {
      "inputs": [],
      "name": "getCurrentRound",
      "outputs": [
        {
          "internalType": "uint256",
          "name": "id",
          "type": "uint256"
        },
        {
          "internalType": "uint256",
          "name": "startTime",
          "type": "uint256"
        },
        {
          "internalType": "uint256",
          "name": "mintPool",
          "type": "uint256"
        },
        {
          "internalType": "uint256",
          "name": "burnPool",
          "type": "uint256"
        },
        {
          "internalType": "uint256",
          "name": "neutralPool",
          "type": "uint256"
        },
        {
          "internalType": "bool",
          "name": "closed",
          "type": "bool"
        }
      ],
      "stateMutability": "view",
      "type": "function"
    },
    {
      "inputs": [],
      "name": "getGameStats",
      "outputs": [
        {
          "internalType": "uint256",
          "name": "totalRounds",
          "type": "uint256"
        },
        {
          "internalType": "uint256",
          "name": "pendingOwnerFees",
          "type": "uint256"
        },
        {
          "internalType": "uint256",
          "name": "tokensBurned",
          "type": "uint256"
        },
        {
          "internalType": "uint256",
          "name": "minimumBet",
          "type": "uint256"
        }
      ],
      "stateMutability": "view",
      "type": "function"
    },
    {
      "inputs": [],
      "name": "minBet",
      "outputs": [
        {
          "internalType": "uint256",
          "name": "",
          "type": "uint256"
        }
      ],
      "stateMutability": "view",
      "type": "function"
    },
    {
      "inputs": [],
      "name": "oracle",
      "outputs": [
        {
          "internalType": "address",
          "name": "",
          "type": "address"
        }
      ],
      "stateMutability": "view",
      "type": "function"
    },
    {
      "inputs": [],
      "name": "owner",
      "outputs": [
        {
          "internalType": "address",
          "name": "",
          "type": "address"
        }
      ],
      "stateMutability": "view",
      "type": "function"
    },
    {
      "inputs": [],
      "name": "ownerFees",
      "outputs": [
        {
          "internalType": "uint256",
          "name": "",
          "type": "uint256"
        }
      ],
      "stateMutability": "view",
      "type": "function"
    },
    {
      "inputs": [
        {
          "internalType": "uint8",
          "name": "prediction",
          "type": "uint8"
        },
        {
          "internalType": "uint256",
          "name": "amount",
          "type": "uint256"
        }
      ],
      "name": "placeBet",
      "outputs": [],
      "stateMutability": "nonpayable",
      "type": "function"
    },
    {
      "inputs": [
        {
          "internalType": "uint256",
          "name": "roundId",
          "type": "uint256"
        }
      ],
      "name": "refundRound",
      "outputs": [],
      "stateMutability": "nonpayable",
      "type": "function"
    },
    {
      "inputs": [],
      "name": "renounceOwnership",
      "outputs": [],
      "stateMutability": "nonpayable",
      "type": "function"
    },
    {
      "inputs": [
        {
          "internalType": "uint256",
          "name": "",
          "type": "uint256"
        },
        {
          "internalType": "uint256",
          "name": "",
          "type": "uint256"
        }
      ],
      "name": "roundPlayers",
      "outputs": [
        {
          "internalType": "address",
          "name": "",
          "type": "address"
        }
      ],
      "stateMutability": "view",
      "type": "function"
    },
    {
      "inputs": [
        {
          "internalType": "uint256",
          "name": "",
          "type": "uint256"
        }
      ],
      "name": "rounds",
      "outputs": [
        {
          "internalType": "uint256",
          "name": "id",
          "type": "uint256"
        },
        {
          "internalType": "uint256",
          "name": "startTime",
          "type": "uint256"
        },
        {
          "internalType": "uint256",
          "name": "endTime",
          "type": "uint256"
        },
        {
          "internalType": "uint256",
          "name": "mintPool",
          "type": "uint256"
        },
        {
          "internalType": "uint256",
          "name": "burnPool",
          "type": "uint256"
        },
        {
          "internalType": "uint256",
          "name": "neutralPool",
          "type": "uint256"
        },
        {
          "internalType": "uint8",
          "name": "result",
          "type": "uint8"
        },
        {
          "internalType": "uint256",
          "name": "rate",
          "type": "uint256"
        },
        {
          "internalType": "bool",
          "name": "closed",
          "type": "bool"
        },
        {
          "internalType": "bool",
          "name": "refunded",
          "type": "bool"
        }
      ],
      "stateMutability": "view",
      "type": "function"
    },
    {
      "inputs": [],
      "name": "scndlToken",
      "outputs": [
        {
          "internalType": "contract IERC20",
          "name": "",
          "type": "address"
        }
      ],
      "stateMutability": "view",
      "type": "function"
    },
    {
      "inputs": [
        {
          "internalType": "uint256",
          "name": "_minBet",
          "type": "uint256"
        }
      ],
      "name": "setMinBet",
      "outputs": [],
      "stateMutability": "nonpayable",
      "type": "function"
    },
    {
      "inputs": [
        {
          "internalType": "address",
          "name": "_oracle",
          "type": "address"
        }
      ],
      "name": "setOracle",
      "outputs": [],
      "stateMutability": "nonpayable",
      "type": "function"
    },
    {
      "inputs": [],
      "name": "totalBurned",
      "outputs": [
        {
          "internalType": "uint256",
          "name": "",
          "type": "uint256"
        }
      ],
      "stateMutability": "view",
      "type": "function"
    },
    {
      "inputs": [
        {
          "internalType": "address",
          "name": "newOwner",
          "type": "address"
        }
      ],
      "name": "transferOwnership",
      "outputs": [],
      "stateMutability": "nonpayable",
      "type": "function"
    },
    {
      "inputs": [],
      "name": "withdrawFees",
      "outputs": [],
      "stateMutability": "nonpayable",
      "type": "function"
    }
  ],
  "bytecode": "0x6080604052683635c9adc5dea000006004553480156200001e57600080fd5b5060405162001c7d38038062001c7d8339810160408190526200004191620002e3565b33806200006957604051631e4fbdf760e01b8152600060048201526024015b60405180910390fd5b62000074816200014c565b50600180556001600160a01b038216620000c15760405162461bcd60e51b815260206004820152600d60248201526c24b73b30b634b2103a37b5b2b760991b604482015260640162000060565b6001600160a01b0381166200010a5760405162461bcd60e51b815260206004820152600e60248201526d496e76616c6964206f7261636c6560901b604482015260640162000060565b600280546001600160a01b038085166001600160a01b0319928316179092556003805492841692909116919091179055620001446200019c565b505062000343565b600080546001600160a01b038381166001600160a01b0319831681178455604051919092169283917f8be0079c531659141344cd1fd0a4f28419497f9722a3daafe3b4186f6b6457e09190a35050565b60058054906000620001ae836200031b565b90915550506040805161014081018252600580548083524260208085018281526000868801818152606088018281526080890183815260a08a0184815260c08b0185815260e08c01868152610100808e018881526101208f018981529c895260069a8b9052978f90209d518e55975160018e0155945160028d0155925160038c0155905160048b0155518989015551938801805460ff9590951660ff199590951694909417909355915160078701559051600890950180549351151590910261ff00199515159590951661ffff19909316929092179390931790555491517f278844837bcf8364a705384bf3a2812901f54155bae86dea81dd52aa5b9ec0e391620002bc9190815260200190565b60405180910390a2565b80516001600160a01b0381168114620002de57600080fd5b919050565b60008060408385031215620002f757600080fd5b6200030283620002c6565b91506200031260208401620002c6565b90509250929050565b6000600182016200033c57634e487b7160e01b600052601160045260246000fd5b5060010190565b61192a80620003536000396000f3fe608060405234801561001057600080fd5b50600436106101da5760003560e01c80637fb9c45f11610104578063a32bf597116100a2578063d89135cd11610071578063d89135cd146104cd578063dcb3b30e146104d6578063f2fde38b146104e9578063f644b3bb146104fc57600080fd5b8063a32bf5971461044e578063ad20daca146104b3578063c0a2526c146104bc578063d73792a9146104c457600080fd5b80638c65c81f116100de5780638c65c81f146103715780638da5cb5b1461042b5780639619367d1461043c5780639cbe5efd1461044557600080fd5b80637fb9c45f146102ff57806388ea41b91461034b578063898443d81461035e57600080fd5b80635443b1391161017c578063715018a61161014b578063715018a6146102c95780637adbf973146102d15780637b1f12a8146102e45780637dc0d1d0146102ec57600080fd5b80635443b1391461027d5780635e519ff614610290578063671eea01146102a3578063677bd9ff146102b657600080fd5b80633e36f4c7116101b85780633e36f4c71461022f578063476343ee1461024957806349edfb94146102535780634e6fd6c41461025c57600080fd5b80631aff30dd146101df57806324ba655614610210578063386cd8f114610226575b600080fd5b600554600954600a546004546040805194855260208501939093529183015260608201526080015b60405180910390f35b61021860c881565b604051908152602001610207565b61021860095481565b610237600181565b60405160ff9091168152602001610207565b610251610559565b005b61021861012c81565b61026561dead81565b6040516001600160a01b039091168152602001610207565b61025161028b366004611751565b6106d4565b61025161029e36600461176a565b6109a2565b6102656102b136600461179c565b610cc8565b6102516102c4366004611751565b610d00565b610251611052565b6102516102df3660046117da565b611066565b610237600381565b600354610265906001600160a01b031681565b61031261030d3660046117fc565b6110d7565b60408051961515875260ff95861660208801529390941692850192909252151560608401521515608083015260a082015260c001610207565b610251610359366004611751565b61121a565b600254610265906001600160a01b031681565b6103da61037f366004611751565b600660208190526000918252604090912080546001820154600283015460038401546004850154600586015496860154600787015460089097015495979496939592949193919260ff9182169291818116916101009004168a565b604080519a8b5260208b0199909952978901969096526060880194909452608087019290925260a086015260ff1660c085015260e08401521515610100830152151561012082015261014001610207565b6000546001600160a01b0316610265565b61021860045481565b61021860055481565b60058054600090815260066020526040902080546001820154600383015460048401549484015460089094015492949193909260ff166040805196875260208701959095529385019290925260608401526080830152151560a082015260c001610207565b6102186101f481565b610237600281565b61021861271081565b610218600a5481565b6102516104e436600461176a565b611227565b6102516104f73660046117da565b611548565b61053a61050a3660046117fc565b60076020908152600092835260408084209091529082529020805460019091015460ff8082169161010090041683565b6040805193845260ff9092166020840152151590820152606001610207565b610561611583565b600954806105ac5760405162461bcd60e51b81526020600482015260136024820152724e6f206665657320746f20776974686472617760681b60448201526064015b60405180910390fd5b60006009556002546001600160a01b031663a9059cbb6105d46000546001600160a01b031690565b6040516001600160e01b031960e084901b1681526001600160a01b039091166004820152602481018490526044016020604051808303816000875af1158015610621573d6000803e3d6000fd5b505050506040513d601f19601f820116820180604052508101906106459190611828565b6106835760405162461bcd60e51b815260206004820152600f60248201526e15da5d1a191c985dc819985a5b1959608a1b60448201526064016105a3565b6000546001600160a01b03166001600160a01b03167fc0819c13be868895eb93e40eaceb96de976442fa1d404e5c55f14bb65a8c489a826040516106c991815260200190565b60405180910390a250565b6003546001600160a01b0316331461071c5760405162461bcd60e51b815260206004820152600b60248201526a4f6e6c79206f7261636c6560a81b60448201526064016105a3565b60008181526006602052604090206008810154610100900460ff16156107775760405162461bcd60e51b815260206004820152601060248201526f105b1c9958591e481c99599d5b99195960821b60448201526064016105a3565b6008818101805461ffff191661010117905560008381526020918252604080822080548251818602810186019093528083529293919290918301828280156107e857602002820191906000526020600020905b81546001600160a01b031681526001909101906020018083116107ca575b5050505050905060005b81518110156109715760008481526007602052604081208351829085908590811061081f5761081f61184a565b60200260200101516001600160a01b03166001600160a01b0316815260200190815260200160002090506000816000015411801561086757506001810154610100900460ff16155b1561095e5760018101805461ff00191661010017905560025483516001600160a01b039091169063a9059cbb908590859081106108a6576108a661184a565b602090810291909101015183546040516001600160e01b031960e085901b1681526001600160a01b03909216600483015260248201526044016020604051808303816000875af11580156108fe573d6000803e3d6000fd5b505050506040513d601f19601f820116820180604052508101906109229190611828565b61095e5760405162461bcd60e51b815260206004820152600d60248201526c1499599d5b990819985a5b1959609a1b60448201526064016105a3565b508061096981611876565b9150506107f2565b5060405183907f28846375d91adf0298632299641880d604604ddfbba9fd4f773bbbc56a9cabc090600090a2505050565b6003546001600160a01b031633146109ea5760405162461bcd60e51b815260206004820152600b60248201526a4f6e6c79206f7261636c6560a81b60448201526064016105a3565b600160ff831610801590610a025750600360ff831611155b610a3f5760405162461bcd60e51b815260206004820152600e60248201526d125b9d985b1a59081c995cdd5b1d60921b60448201526064016105a3565b6005546000908152600660205260409020600881015460ff1615610a965760405162461bcd60e51b815260206004820152600e60248201526d105b1c9958591e4818db1bdcd95960921b60448201526064016105a3565b60068101805460ff851660ff199182161790915560078201839055426002830155600882018054909116600117905560058101546004820154600383015460009291610ae19161188f565b610aeb919061188f565b90508015610c4b576000612710610b0461012c846118a8565b610b0e91906118bf565b90508060096000828254610b22919061188f565b9091555060009050612710610b3860c8856118a8565b610b4291906118bf565b60025460405163a9059cbb60e01b815261dead6004820152602481018390529192506001600160a01b03169063a9059cbb906044016020604051808303816000875af1158015610b96573d6000803e3d6000fd5b505050506040513d601f19601f82011682018060405250810190610bba9190611828565b610bf45760405162461bcd60e51b815260206004820152600b60248201526a109d5c9b8819985a5b195960aa1b60448201526064016105a3565b80600a6000828254610c06919061188f565b9091555050600a546040805183815260208101929092527f8bc81353cf6671d259d22783e39ed930583c86f3f4cf7e981298e6a872dfb15d910160405180910390a150505b6005547f6712e35c977dd8c0303770a7f50624654fff97897c7ba31ffdfc1eda1d0366c6858560008511610c80576000610c98565b612710610c8e60c8876118a8565b610c9891906118bf565b6040805160ff909416845260208401929092529082015260600160405180910390a2610cc26115b0565b50505050565b60086020528160005260406000208181548110610ce457600080fd5b6000918252602090912001546001600160a01b03169150829050565b610d086116d7565b6000818152600660205260409020600881015460ff16610d5d5760405162461bcd60e51b815260206004820152601060248201526f149bdd5b99081b9bdd0818db1bdcd95960821b60448201526064016105a3565b6008810154610100900460ff1615610dac5760405162461bcd60e51b8152602060048201526012602482015271149bdd5b99081dd85cc81c99599d5b99195960721b60448201526064016105a3565b600082815260076020908152604080832033845290915290208054610e025760405162461bcd60e51b815260206004820152600c60248201526b139bc818995d08199bdd5b9960a21b60448201526064016105a3565b6001810154610100900460ff1615610e4e5760405162461bcd60e51b815260206004820152600f60248201526e105b1c9958591e4818db185a5b5959608a1b60448201526064016105a3565b6006820154600182015460ff908116911614610e9a5760405162461bcd60e51b815260206004820152600b60248201526a2234b2103737ba103bb4b760a91b60448201526064016105a3565b60018101805461ff00191661010017905560058201546004830154600384015460009291610ec79161188f565b610ed1919061188f565b90506000612710610ee46101f4846118a8565b610eee91906118bf565b610ef890836118e1565b600685015490915060009060ff1660001901610f1957506003840154610f3b565b600685015460ff1660011901610f3457506004840154610f3b565b5060058401545b600081838660000154610f4e91906118a8565b610f5891906118bf565b60025460405163a9059cbb60e01b8152336004820152602481018390529192506001600160a01b03169063a9059cbb906044016020604051808303816000875af1158015610faa573d6000803e3d6000fd5b505050506040513d601f19601f82011682018060405250810190610fce9190611828565b6110095760405162461bcd60e51b815260206004820152600c60248201526b10db185a5b4819985a5b195960a21b60448201526064016105a3565b604051818152339088907f5380cf6fe903b40c6d5a9e0dfbca2f3a423f0a21520b4d5947ed5169bdba946d9060200160405180910390a350505050505061104f60018055565b50565b61105a611583565b6110646000611701565b565b61106e611583565b6001600160a01b0381166110b55760405162461bcd60e51b815260206004820152600e60248201526d496e76616c6964206f7261636c6560901b60448201526064016105a3565b600380546001600160a01b0319166001600160a01b0392909216919091179055565b6000828152600660208181526040808420600783528185206001600160a01b03871686529092528320805460018201549383015460088401549115159560ff958616959182169490938493849316801561113f57506006820154600182015460ff9081169116145b6001820154909550610100900460ff16935084801561115c575083155b1561120e57600082600501548360040154846003015461117c919061188f565b611186919061188f565b905060006127106111996101f4846118a8565b6111a391906118bf565b6111ad90836118e1565b600685015490915060009060ff166001146111e557600685015460ff166002146111db5784600501546111eb565b84600401546111eb565b84600301545b9050808285600001546111fe91906118a8565b61120891906118bf565b95505050505b50509295509295509295565b611222611583565b600455565b61122f6116d7565b6004548110156112815760405162461bcd60e51b815260206004820152601e60248201527f42657420746f6f20736d616c6c20286d696e20313030302053434e444c29000060448201526064016105a3565b600160ff8316108015906112995750600360ff831611155b6112da5760405162461bcd60e51b815260206004820152601260248201527124b73b30b634b210383932b234b1ba34b7b760711b60448201526064016105a3565b6005546000908152600660205260409020600881015460ff161561132f5760405162461bcd60e51b815260206004820152600c60248201526b149bdd5b990818db1bdcd95960a21b60448201526064016105a3565b600554600090815260076020908152604080832033845290915290208054156113935760405162461bcd60e51b8152602060048201526016602482015275105b1c9958591e4818995d081d1a1a5cc81c9bdd5b9960521b60448201526064016105a3565b6002546040516323b872dd60e01b8152336004820152306024820152604481018590526001600160a01b03909116906323b872dd906064016020604051808303816000875af11580156113ea573d6000803e3d6000fd5b505050506040513d601f19601f8201168201806040525081019061140e9190611828565b61144c5760405162461bcd60e51b815260206004820152600f60248201526e151c985b9cd9995c8819985a5b1959608a1b60448201526064016105a3565b8281556001808201805460ff871660ff19909116811790915560055460009081526008602090815260408220805494850181558252902090910180546001600160a01b03191633179055600019016114bd57828260030160008282546114b2919061188f565b909155506114f79050565b60011960ff8516016114dd57828260040160008282546114b2919061188f565b828260050160008282546114f1919061188f565b90915550505b6005546040805160ff87168152602081018690523392917f4f1eed5e863a822b0f9eb960dfdab2cc5a99beec4b191f2a7a9c7e28e5a15524910160405180910390a3505061154460018055565b5050565b611550611583565b6001600160a01b03811661157a57604051631e4fbdf760e01b8152600060048201526024016105a3565b61104f81611701565b6000546001600160a01b031633146110645760405163118cdaa760e01b81523360048201526024016105a3565b600580549060006115c083611876565b90915550506040805161014081018252600580548083524260208085018281526000868801818152606088018281526080890183815260a08a0184815260c08b0185815260e08c01868152610100808e018881526101208f018981529c895260069a8b9052978f90209d518e55975160018e0155945160028d0155925160038c0155905160048b0155518989015551938801805460ff9590951660ff199590951694909417909355915160078701559051600890950180549351151590910261ff00199515159590951661ffff19909316929092179390931790555491517f278844837bcf8364a705384bf3a2812901f54155bae86dea81dd52aa5b9ec0e3916116cd9190815260200190565b60405180910390a2565b6002600154036116fa57604051633ee5aeb560e01b815260040160405180910390fd5b6002600155565b600080546001600160a01b038381166001600160a01b0319831681178455604051919092169283917f8be0079c531659141344cd1fd0a4f28419497f9722a3daafe3b4186f6b6457e09190a35050565b60006020828403121561176357600080fd5b5035919050565b6000806040838503121561177d57600080fd5b823560ff8116811461178e57600080fd5b946020939093013593505050565b600080604083850312156117af57600080fd5b50508035926020909101359150565b80356001600160a01b03811681146117d557600080fd5b919050565b6000602082840312156117ec57600080fd5b6117f5826117be565b9392505050565b6000806040838503121561180f57600080fd5b8235915061181f602084016117be565b90509250929050565b60006020828403121561183a57600080fd5b815180151581146117f557600080fd5b634e487b7160e01b600052603260045260246000fd5b634e487b7160e01b600052601160045260246000fd5b60006001820161188857611888611860565b5060010190565b808201808211156118a2576118a2611860565b92915050565b80820281158282048414176118a2576118a2611860565b6000826118dc57634e487b7160e01b600052601260045260246000fd5b500490565b818103818111156118a2576118a261186056fea26469706673582212205dc4c5cca7380ec0ad4ba082954b3c92358afc91b20ceef1ea2d51355e3e21c464736f6c63430008140033",
  "linkReferences": {},
  "deployedLinkReferences": {}
}