{
  "_format": "hh-sol-artifact-1",
  "contractName": "SCANDALToken",
  "sourceName": "contracts/SCANDALToken.sol",
  "abi": [
    {
      "inputs": [
        {
          "internalType": "address",
          "name": "_oracle",
          "type": "address"
        },
        {
          "internalType": "address",
          "name": "_marketingWallet",
          "type": "address"
        },
        {
          "internalType": "address",
          "name": "_liquidityWallet",
          "type": "address"
        }
      ],
      "stateMutability": "nonpayable",
      "type": "constructor"
    },
    {
      "inputs": [
        {
          "internalType": "address",
          "name": "spender",
          "type": "address"
        },
        {
          "internalType": "uint256",
          "name": "allowance",
          "type": "uint256"
        },
        {
          "internalType": "uint256",
          "name": "needed",
          "type": "uint256"
        }
      ],
      "name": "ERC20InsufficientAllowance",
      "type": "error"
    },
    {
      "inputs": [
        {
          "internalType": "address",
          "name": "sender",
          "type": "address"
        },
        {
          "internalType": "uint256",
          "name": "balance",
          "type": "uint256"
        },
        {
          "internalType": "uint256",
          "name": "needed",
          "type": "uint256"
        }
      ],
      "name": "ERC20InsufficientBalance",
      "type": "error"
    },
    {
      "inputs": [
        {
          "internalType": "address",
          "name": "approver",
          "type": "address"
        }
      ],
      "name": "ERC20InvalidApprover",
      "type": "error"
    },
    {
      "inputs": [
        {
          "internalType": "address",
          "name": "receiver",
          "type": "address"
        }
      ],
      "name": "ERC20InvalidReceiver",
      "type": "error"
    },
    {
      "inputs": [
        {
          "internalType": "address",
          "name": "sender",
          "type": "address"
        }
      ],
      "name": "ERC20InvalidSender",
      "type": "error"
    },
    {
      "inputs": [
        {
          "internalType": "address",
          "name": "spender",
          "type": "address"
        }
      ],
      "name": "ERC20InvalidSpender",
      "type": "error"
    },
    {
      "inputs": [
        {
          "internalType": "address",
          "name": "owner",
          "type": "address"
        }
      ],
      "name": "OwnableInvalidOwner",
      "type": "error"
    },
    {
      "inputs": [
        {
          "internalType": "address",
          "name": "account",
          "type": "address"
        }
      ],
      "name": "OwnableUnauthorizedAccount",
      "type": "error"
    },
    {
      "anonymous": false,
      "inputs": [
        {
          "indexed": true,
          "internalType": "address",
          "name": "owner",
          "type": "address"
        },
        {
          "indexed": true,
          "internalType": "address",
          "name": "spender",
          "type": "address"
        },
        {
          "indexed": false,
          "internalType": "uint256",
          "name": "value",
          "type": "uint256"
        }
      ],
      "name": "Approval",
      "type": "event"
    },
    {
      "anonymous": false,
      "inputs": [
        {
          "indexed": false,
          "internalType": "uint256",
          "name": "amount",
          "type": "uint256"
        },
        {
          "indexed": false,
          "internalType": "uint256",
          "name": "rate",
          "type": "uint256"
        },
        {
          "indexed": false,
          "internalType": "uint256",
          "name": "newReserve",
          "type": "uint256"
        }
      ],
      "name": "OracleBurn",
      "type": "event"
    },
    {
      "anonymous": false,
      "inputs": [
        {
          "indexed": true,
          "internalType": "address",
          "name": "oldOracle",
          "type": "address"
        },
        {
          "indexed": true,
          "internalType": "address",
          "name": "newOracle",
          "type": "address"
        }
      ],
      "name": "OracleChanged",
      "type": "event"
    },
    {
      "anonymous": false,
      "inputs": [
        {
          "indexed": false,
          "internalType": "uint256",
          "name": "amount",
          "type": "uint256"
        },
        {
          "indexed": false,
          "internalType": "uint256",
          "name": "rate",
          "type": "uint256"
        },
        {
          "indexed": false,
          "internalType": "uint256",
          "name": "newReserve",
          "type": "uint256"
        }
      ],
      "name": "OracleMint",
      "type": "event"
    },
    {
      "anonymous": false,
      "inputs": [
        {
          "indexed": true,
          "internalType": "address",
          "name": "previousOwner",
          "type": "address"
        },
        {
          "indexed": true,
          "internalType": "address",
          "name": "newOwner",
          "type": "address"
        }
      ],
      "name": "OwnershipTransferred",
      "type": "event"
    },
    {
      "anonymous": false,
      "inputs": [
        {
          "indexed": false,
          "internalType": "uint256",
          "name": "burned",
          "type": "uint256"
        },
        {
          "indexed": false,
          "internalType": "uint256",
          "name": "marketing",
          "type": "uint256"
        },
        {
          "indexed": false,
          "internalType": "uint256",
          "name": "liquidity",
          "type": "uint256"
        }
      ],
      "name": "TaxCollected",
      "type": "event"
    },
    {
      "anonymous": false,
      "inputs": [
        {
          "indexed": true,
          "internalType": "address",
          "name": "from",
          "type": "address"
        },
        {
          "indexed": true,
          "internalType": "address",
          "name": "to",
          "type": "address"
        },
        {
          "indexed": false,
          "internalType": "uint256",
          "name": "value",
          "type": "uint256"
        }
      ],
      "name": "Transfer",
      "type": "event"
    },
    {
      "inputs": [],
      "name": "DEAD_ADDRESS",
      "outputs": [
        {
          "internalType": "address",
          "name": "",
          "type": "address"
        }
      ],
      "stateMutability": "view",
      "type": "function"
    },
    {
      "inputs": [],
      "name": "INITIAL_SUPPLY",
      "outputs": [
        {
          "internalType": "uint256",
          "name": "",
          "type": "uint256"
        }
      ],
      "stateMutability": "view",
      "type": "function"
    },
    {
      "inputs": [],
      "name": "ORACLE_RESERVE_MAX",
      "outputs": [
        {
          "internalType": "uint256",
          "name": "",
          "type": "uint256"
        }
      ],
      "stateMutability": "view",
      "type": "function"
    },
    {
      "inputs": [],
      "name": "ORACLE_RESERVE_MIN",
      "outputs": [
        {
          "internalType": "uint256",
          "name": "",
          "type": "uint256"
        }
      ],
      "stateMutability": "view",
      "type": "function"
    },
    {
      "inputs": [],
      "name": "TAX_BURN",
      "outputs": [
        {
          "internalType": "uint256",
          "name": "",
          "type": "uint256"
        }
      ],
      "stateMutability": "view",
      "type": "function"
    },
    {
      "inputs": [],
      "name": "TAX_DENOMINATOR",
      "outputs": [
        {
          "internalType": "uint256",
          "name": "",
          "type": "uint256"
        }
      ],
      "stateMutability": "view",
      "type": "function"
    },
    {
      "inputs": [],
      "name": "TAX_LIQUIDITY",
      "outputs": [
        {
          "internalType": "uint256",
          "name": "",
          "type": "uint256"
        }
      ],
      "stateMutability": "view",
      "type": "function"
    },
    {
      "inputs": [],
      "name": "TAX_MARKETING",
      "outputs": [
        {
          "internalType": "uint256",
          "name": "",
          "type": "uint256"
        }
      ],
      "stateMutability": "view",
      "type": "function"
    },
    {
      "inputs": [],
      "name": "TAX_TOTAL",
      "outputs": [
        {
          "internalType": "uint256",
          "name": "",
          "type": "uint256"
        }
      ],
      "stateMutability": "view",
      "type": "function"
    },
    {
      "inputs": [
        {
          "internalType": "address",
          "name": "owner",
          "type": "address"
        },
        {
          "internalType": "address",
          "name": "spender",
          "type": "address"
        }
      ],
      "name": "allowance",
      "outputs": [
        {
          "internalType": "uint256",
          "name": "",
          "type": "uint256"
        }
      ],
      "stateMutability": "view",
      "type": "function"
    },
    {
      "inputs": [
        {
          "internalType": "address",
          "name": "spender",
          "type": "address"
        },
        {
          "internalType": "uint256",
          "name": "value",
          "type": "uint256"
        }
      ],
      "name": "approve",
      "outputs": [
        {
          "internalType": "bool",
          "name": "",
          "type": "bool"
        }
      ],
      "stateMutability": "nonpayable",
      "type": "function"
    },
    {
      "inputs": [
        {
          "internalType": "address",
          "name": "account",
          "type": "address"
        }
      ],
      "name": "balanceOf",
      "outputs": [
        {
          "internalType": "uint256",
          "name": "",
          "type": "uint256"
        }
      ],
      "stateMutability": "view",
      "type": "function"
    },
    {
      "inputs": [],
      "name": "decimals",
      "outputs": [
        {
          "internalType": "uint8",
          "name": "",
          "type": "uint8"
        }
      ],
      "stateMutability": "view",
      "type": "function"
    },
    {
      "inputs": [
        {
          "internalType": "bool",
          "name": "_enabled",
          "type": "bool"
        }
      ],
      "name": "enableTax",
      "outputs": [],
      "stateMutability": "nonpayable",
      "type": "function"
    },
    {
      "inputs": [],
      "name": "getTokenomics",
      "outputs": [
        {
          "internalType": "uint256",
          "name": "currentSupply",
          "type": "uint256"
        },
        {
          "internalType": "uint256",
          "name": "currentReserve",
          "type": "uint256"
        },
        {
          "internalType": "uint256",
          "name": "burned",
          "type": "uint256"
        },
        {
          "internalType": "uint256",
          "name": "reserveMin",
          "type": "uint256"
        },
        {
          "internalType": "uint256",
          "name": "reserveMax",
          "type": "uint256"
        },
        {
          "internalType": "bool",
          "name": "isTaxEnabled",
          "type": "bool"
        }
      ],
      "stateMutability": "view",
      "type": "function"
    },
    {
      "inputs": [
        {
          "internalType": "address",
          "name": "",
          "type": "address"
        }
      ],
      "name": "isExcludedFromTax",
      "outputs": [
        {
          "internalType": "bool",
          "name": "",
          "type": "bool"
        }
      ],
      "stateMutability": "view",
      "type": "function"
    },
    {
      "inputs": [],
      "name": "liquidityWallet",
      "outputs": [
        {
          "internalType": "address",
          "name": "",
          "type": "address"
        }
      ],
      "stateMutability": "view",
      "type": "function"
    },
    {
      "inputs": [],
      "name": "marketingWallet",
      "outputs": [
        {
          "internalType": "address",
          "name": "",
          "type": "address"
        }
      ],
      "stateMutability": "view",
      "type": "function"
    },
    {
      "inputs": [],
      "name": "name",
      "outputs": [
        {
          "internalType": "string",
          "name": "",
          "type": "string"
        }
      ],
      "stateMutability": "view",
      "type": "function"
    },
    {
      "inputs": [],
      "name": "oracle",
      "outputs": [
        {
          "internalType": "address",
          "name": "",
          "type": "address"
        }
      ],
      "stateMutability": "view",
      "type": "function"
    },
    {
      "inputs": [
        {
          "internalType": "uint256",
          "name": "rate",
          "type": "uint256"
        }
      ],
      "name": "oracleBurn",
      "outputs": [],
      "stateMutability": "nonpayable",
      "type": "function"
    },
    {
      "inputs": [
        {
          "internalType": "uint256",
          "name": "rate",
          "type": "uint256"
        }
      ],
      "name": "oracleMint",
      "outputs": [],
      "stateMutability": "nonpayable",
      "type": "function"
    },
    {
      "inputs": [],
      "name": "oracleReserve",
      "outputs": [
        {
          "internalType": "uint256",
          "name": "",
          "type": "uint256"
        }
      ],
      "stateMutability": "view",
      "type": "function"
    },
    {
      "inputs": [],
      "name": "owner",
      "outputs": [
        {
          "internalType": "address",
          "name": "",
          "type": "address"
        }
      ],
      "stateMutability": "view",
      "type": "function"
    },
    {
      "inputs": [],
      "name": "renounceOwnership",
      "outputs": [],
      "stateMutability": "nonpayable",
      "type": "function"
    },
    {
      "inputs": [
        {
          "internalType": "address",
          "name": "account",
          "type": "address"
        },
        {
          "internalType": "bool",
          "name": "excluded",
          "type": "bool"
        }
      ],
      "name": "setExcludeFromTax",
      "outputs": [],
      "stateMutability": "nonpayable",
      "type": "function"
    },
    {
      "inputs": [
        {
          "internalType": "address",
          "name": "_wallet",
          "type": "address"
        }
      ],
      "name": "setLiquidityWallet",
      "outputs": [],
      "stateMutability": "nonpayable",
      "type": "function"
    },
    {
      "inputs": [
        {
          "internalType": "address",
          "name": "_wallet",
          "type": "address"
        }
      ],
      "name": "setMarketingWallet",
      "outputs": [],
      "stateMutability": "nonpayable",
      "type": "function"
    },
    {
      "inputs": [
        {
          "internalType": "address",
          "name": "_newOracle",
          "type": "address"
        }
      ],
      "name": "setOracle",
      "outputs": [],
      "stateMutability": "nonpayable",
      "type": "function"
    },
    {
      "inputs": [],
      "name": "symbol",
      "outputs": [
        {
          "internalType": "string",
          "name": "",
          "type": "string"
        }
      ],
      "stateMutability": "view",
      "type": "function"
    },
    {
      "inputs": [],
      "name": "taxEnabled",
      "outputs": [
        {
          "internalType": "bool",
          "name": "",
          "type": "bool"
        }
      ],
      "stateMutability": "view",
      "type": "function"
    },
    {
      "inputs": [],
      "name": "totalBurned",
      "outputs": [
        {
          "internalType": "uint256",
          "name": "",
          "type": "uint256"
        }
      ],
      "stateMutability": "view",
      "type": "function"
    },
    {
      "inputs": [],
      "name": "totalSupply",
      "outputs": [
        {
          "internalType": "uint256",
          "name": "",
          "type": "uint256"
        }
      ],
      "stateMutability": "view",
      "type": "function"
    },
    {
      "inputs": [
        {
          "internalType": "address",
          "name": "to",
          "type": "address"
        },
        {
          "internalType": "uint256",
          "name": "value",
          "type": "uint256"
        }
      ],
      "name": "transfer",
      "outputs": [
        {
          "internalType": "bool",
          "name": "",
          "type": "bool"
        }
      ],
      "stateMutability": "nonpayable",
      "type": "function"
    },
    {
      "inputs": [
        {
          "internalType": "address",
          "name": "from",
          "type": "address"
        },
        {
          "internalType": "address",
          "name": "to",
          "type": "address"
        },
        {
          "internalType": "uint256",
          "name": "value",
          "type": "uint256"
        }
      ],
      "name": "transferFrom",
      "outputs": [
        {
          "internalType": "bool",
          "name": "",
          "type": "bool"
        }
      ],
      "stateMutability": "nonpayable",
      "type": "function"
    },
    {
      "inputs": [
        {
          "internalType": "address",
          "name": "newOwner",
          "type": "address"
        }
      ],
      "name": "transferOwnership",
      "outputs": [],
      "stateMutability": "nonpayable",
      "type": "function"
    }
  ],
  "bytecode": "0x6080604052600b805460ff191690553480156200001b57600080fd5b5060405162001c9738038062001c978339810160408190526200003e916200062c565b336040518060400160405280600781526020016614d0d05391105360ca1b8152506040518060400160405280600581526020016414d0d3911360da1b81525081600390816200008e91906200071a565b5060046200009d82826200071a565b5050506001600160a01b038116620000d057604051631e4fbdf760e01b8152600060048201526024015b60405180910390fd5b620000db81620002a8565b506001600160a01b038316620001255760405162461bcd60e51b815260206004820152600e60248201526d496e76616c6964206f7261636c6560901b6044820152606401620000c7565b6001600160a01b038216620001715760405162461bcd60e51b8152602060048201526011602482015270496e76616c6964206d61726b6574696e6760781b6044820152606401620000c7565b6001600160a01b038116620001bd5760405162461bcd60e51b8152602060048201526011602482015270496e76616c6964206c697175696469747960781b6044820152606401620000c7565b600680546001600160a01b038086166001600160a01b0319928316179092556007805485841690831617905560088054928416929091169190911790556aa56fa5b99019a5c800000060095562000221336b033b2e3c9fd0803ce8000000620002fa565b336000908152600c60205260408082208054600160ff19918216811790925530845282842080548216831790557f45117a726ea4f344045dc210793664a28d2d320b7e03f6bffdae553d24c3586c80548216831790556001600160a01b0395861684528284208054821683179055939094168252902080549091169091179055506200086b565b600580546001600160a01b038381166001600160a01b0319831681179093556040519116919082907f8be0079c531659141344cd1fd0a4f28419497f9722a3daafe3b4186f6b6457e090600090a35050565b6001600160a01b038216620003265760405163ec442f0560e01b815260006004820152602401620000c7565b620003346000838362000338565b5050565b600b5460ff1615806200036357506001600160a01b0383166000908152600c602052604090205460ff165b806200038757506001600160a01b0382166000908152600c602052604090205460ff165b156200039f576200039a838383620004dc565b505050565b6000612710620003b1606484620007fc565b620003bd91906200081c565b90506000612710620003d1606485620007fc565b620003dd91906200081c565b90506000612710620003f1606486620007fc565b620003fd91906200081c565b9050600081836200040f86886200083f565b6200041b91906200083f565b6200042791906200083f565b9050620004388761dead86620004dc565b600754620004529088906001600160a01b031685620004dc565b6008546200046c9088906001600160a01b031684620004dc565b62000479878783620004dc565b83600a60008282546200048d919062000855565b909155505060408051858152602081018590529081018390527f16e1d1a1108e56d85b28b399ecda0177f0171c07015c648669aff2bcb3d15e019060600160405180910390a150505050505050565b6001600160a01b0383166200050b578060026000828254620004ff919062000855565b909155506200057f9050565b6001600160a01b03831660009081526020819052604090205481811015620005605760405163391434e360e21b81526001600160a01b03851660048201526024810182905260448101839052606401620000c7565b6001600160a01b03841660009081526020819052604090209082900390555b6001600160a01b0382166200059d57600280548290039055620005bc565b6001600160a01b03821660009081526020819052604090208054820190555b816001600160a01b0316836001600160a01b03167fddf252ad1be2c89b69c2b068fc378daa952ba7f163c4a11628f55a4df523b3ef836040516200060291815260200190565b60405180910390a3505050565b80516001600160a01b03811681146200062757600080fd5b919050565b6000806000606084860312156200064257600080fd5b6200064d846200060f565b92506200065d602085016200060f565b91506200066d604085016200060f565b90509250925092565b634e487b7160e01b600052604160045260246000fd5b600181811c90821680620006a157607f821691505b602082108103620006c257634e487b7160e01b600052602260045260246000fd5b50919050565b601f8211156200039a57600081815260208120601f850160051c81016020861015620006f15750805b601f850160051c820191505b818110156200071257828155600101620006fd565b505050505050565b81516001600160401b0381111562000736576200073662000676565b6200074e816200074784546200068c565b84620006c8565b602080601f8311600181146200078657600084156200076d5750858301515b600019600386901b1c1916600185901b17855562000712565b600085815260208120601f198616915b82811015620007b75788860151825594840194600190910190840162000796565b5085821015620007d65787850151600019600388901b60f8161c191681555b5050505050600190811b01905550565b634e487b7160e01b600052601160045260246000fd5b8082028115828204841417620008165762000816620007e6565b92915050565b6000826200083a57634e487b7160e01b600052601260045260246000fd5b500490565b81810381811115620008165762000816620007e6565b80820180821115620008165762000816620007e6565b61141c806200087b6000396000f3fe608060405234801561001057600080fd5b506004361061021c5760003560e01c806375f0a87411610125578063a9059cbb116100ad578063d89135cd1161007c578063d89135cd1461045a578063da6648a814610463578063dd62ed3e1461046c578063ee2923d9146104a5578063f2fde38b146104dc57600080fd5b8063a9059cbb14610411578063c3679c5914610262578063cb4ca63114610424578063d46980161461044757600080fd5b80638da5cb5b116100f45780638da5cb5b146103d357806391b82891146103e457806395d89b41146103f7578063a51c9ace146103ff578063a53176261461040857600080fd5b806375f0a8741461038d5780637adbf973146103a05780637dc0d1d0146103b3578063870bd30b146103c657600080fd5b8063313ce567116101a85780634e6fd6c4116101775780634e6fd6c4146103155780635d098b38146103365780636351682a1461034957806370a082311461035c578063715018a61461038557600080fd5b8063313ce567146102e057806339fb86c5146102ef5780633c0ecbf01461026257806340f72f371461030257600080fd5b806318160ddd116101ef57806318160ddd1461028a57806323b872dd146102925780632792d9f7146102a5578063296f0a0c146102b85780632ff2e9dc146102cd57600080fd5b806306fdde0314610221578063095ea7b31461023f578063124c4aa4146102625780631681ed9514610278575b600080fd5b6102296104ef565b60405161023691906111a4565b60405180910390f35b61025261024d36600461120e565b610581565b6040519015158152602001610236565b61026a606481565b604051908152602001610236565b61026a6a295be96e6406697200000081565b60025461026a565b6102526102a0366004611238565b61059b565b61026a6b014adf4b7320334b9000000081565b6102cb6102c6366004611274565b6105bf565b005b61026a6b033b2e3c9fd0803ce800000081565b60405160128152602001610236565b6102cb6102fd3660046112a6565b610636565b6102cb6103103660046112d9565b610669565b61031e61dead81565b6040516001600160a01b039091168152602001610236565b6102cb610344366004611274565b610877565b6102cb6103573660046112f2565b6108e9565b61026a61036a366004611274565b6001600160a01b031660009081526020819052604090205490565b6102cb610904565b60075461031e906001600160a01b031681565b6102cb6103ae366004611274565b610918565b60065461031e906001600160a01b031681565b600b546102529060ff1681565b6005546001600160a01b031661031e565b6102cb6103f23660046112d9565b6109b9565b610229610ba3565b61026a61271081565b61026a61012c81565b61025261041f36600461120e565b610bb2565b610252610432366004611274565b600c6020526000908152604090205460ff1681565b60085461031e906001600160a01b031681565b61026a600a5481565b61026a60095481565b61026a61047a36600461130d565b6001600160a01b03918216600090815260016020908152604080832093909416825291909152205490565b6104ad610bc0565b6040805196875260208701959095529385019290925260608401526080830152151560a082015260c001610236565b6102cb6104ea366004611274565b610c0a565b6060600380546104fe90611337565b80601f016020809104026020016040519081016040528092919081815260200182805461052a90611337565b80156105775780601f1061054c57610100808354040283529160200191610577565b820191906000526020600020905b81548152906001019060200180831161055a57829003601f168201915b5050505050905090565b60003361058f818585610c48565b60019150505b92915050565b6000336105a9858285610c5a565b6105b4858585610cd9565b506001949350505050565b6105c7610d38565b6001600160a01b0381166106145760405162461bcd60e51b815260206004820152600f60248201526e496e76616c6964206164647265737360881b60448201526064015b60405180910390fd5b600880546001600160a01b0319166001600160a01b0392909216919091179055565b61063e610d38565b6001600160a01b03919091166000908152600c60205260409020805460ff1916911515919091179055565b6006546001600160a01b031633146106b15760405162461bcd60e51b815260206004820152600b60248201526a4f6e6c79206f7261636c6560a81b604482015260640161060b565b600a81101580156106c35750601e8111155b61070f5760405162461bcd60e51b815260206004820181905260248201527f52617465206d7573742062652031302d33302028302e3130252d302e33302529604482015260640161060b565b6000612710826009546107229190611387565b61072c919061139e565b90506b014adf4b7320334b900000008160095461074991906113c0565b11156107975760405162461bcd60e51b815260206004820152601860248201527f576f756c6420657863656564206d617820726573657276650000000000000000604482015260640161060b565b6008546001600160a01b0316600090815260208190526040902054818110156108025760405162461bcd60e51b815260206004820152601e60248201527f496e73756666696369656e74206c69717569646974792062616c616e63650000604482015260640161060b565b600854610818906001600160a01b031683610d65565b81600a600082825461082a91906113c0565b9091555050600954604080518481526020810186905280820192909252517f59e9272350f859f3f56d184a04735d3007119fd5fbccc85e0bd7c4f52a6e0c4b9181900360600190a1505050565b61087f610d38565b6001600160a01b0381166108c75760405162461bcd60e51b815260206004820152600f60248201526e496e76616c6964206164647265737360881b604482015260640161060b565b600780546001600160a01b0319166001600160a01b0392909216919091179055565b6108f1610d38565b600b805460ff1916911515919091179055565b61090c610d38565b6109166000610d9f565b565b610920610d38565b6001600160a01b0381166109675760405162461bcd60e51b815260206004820152600e60248201526d496e76616c6964206f7261636c6560901b604482015260640161060b565b600680546001600160a01b038381166001600160a01b0319831681179093556040519116919082907f05cd89403c6bdeac21c2ff33de395121a31fa1bc2bf3adf4825f1f86e79969dd90600090a35050565b6006546001600160a01b03163314610a015760405162461bcd60e51b815260206004820152600b60248201526a4f6e6c79206f7261636c6560a81b604482015260640161060b565b600a8110158015610a135750601e8111155b610a5f5760405162461bcd60e51b815260206004820181905260248201527f52617465206d7573742062652031302d33302028302e3130252d302e33302529604482015260640161060b565b600061271082600954610a729190611387565b610a7c919061139e565b9050806009541015610ac75760405162461bcd60e51b8152602060048201526014602482015273496e73756666696369656e74207265736572766560601b604482015260640161060b565b6a295be96e6406697200000081600954610ae191906113d3565b1015610b2f5760405162461bcd60e51b815260206004820152601a60248201527f576f756c6420676f2062656c6f77206d696e2072657365727665000000000000604482015260640161060b565b8060096000828254610b4191906113d3565b9091555050600854610b5c906001600160a01b031682610df1565b600954604080518381526020810185905280820192909252517f53633129e1336c783f8fa1adc7f08cf95fce5e3e1abef6a7a91bf6b2c0a4828c9181900360600190a15050565b6060600480546104fe90611337565b60003361058f818585610cd9565b600080600080600080610bd260025490565b600954600a54600b54929991985096506a295be96e6406697200000095506b014adf4b7320334b90000000945060ff90911692509050565b610c12610d38565b6001600160a01b038116610c3c57604051631e4fbdf760e01b81526000600482015260240161060b565b610c4581610d9f565b50565b610c558383836001610e27565b505050565b6001600160a01b03838116600090815260016020908152604080832093861683529290522054600019811015610cd35781811015610cc457604051637dc7a0d960e11b81526001600160a01b0384166004820152602481018290526044810183905260640161060b565b610cd384848484036000610e27565b50505050565b6001600160a01b038316610d0357604051634b637e8f60e11b81526000600482015260240161060b565b6001600160a01b038216610d2d5760405163ec442f0560e01b81526000600482015260240161060b565b610c55838383610efc565b6005546001600160a01b031633146109165760405163118cdaa760e01b815233600482015260240161060b565b6001600160a01b038216610d8f57604051634b637e8f60e11b81526000600482015260240161060b565b610d9b82600083610efc565b5050565b600580546001600160a01b038381166001600160a01b0319831681179093556040519116919082907f8be0079c531659141344cd1fd0a4f28419497f9722a3daafe3b4186f6b6457e090600090a35050565b6001600160a01b038216610e1b5760405163ec442f0560e01b81526000600482015260240161060b565b610d9b60008383610efc565b6001600160a01b038416610e515760405163e602df0560e01b81526000600482015260240161060b565b6001600160a01b038316610e7b57604051634a1406b160e11b81526000600482015260240161060b565b6001600160a01b0380851660009081526001602090815260408083209387168352929052208290558015610cd357826001600160a01b0316846001600160a01b03167f8c5be1e5ebec7d5bd14f71427d1e84f3dd0314c0f7b2291e5b200ac8c7c3b92584604051610eee91815260200190565b60405180910390a350505050565b600b5460ff161580610f2657506001600160a01b0383166000908152600c602052604090205460ff165b80610f4957506001600160a01b0382166000908152600c602052604090205460ff165b15610f5957610c5583838361107a565b6000612710610f69606484611387565b610f73919061139e565b90506000612710610f85606485611387565b610f8f919061139e565b90506000612710610fa1606486611387565b610fab919061139e565b905060008183610fbb86886113d3565b610fc591906113d3565b610fcf91906113d3565b9050610fde8761dead8661107a565b600754610ff69088906001600160a01b03168561107a565b60085461100e9088906001600160a01b03168461107a565b61101987878361107a565b83600a600082825461102b91906113c0565b909155505060408051858152602081018590529081018390527f16e1d1a1108e56d85b28b399ecda0177f0171c07015c648669aff2bcb3d15e019060600160405180910390a150505050505050565b6001600160a01b0383166110a557806002600082825461109a91906113c0565b909155506111179050565b6001600160a01b038316600090815260208190526040902054818110156110f85760405163391434e360e21b81526001600160a01b0385166004820152602481018290526044810183905260640161060b565b6001600160a01b03841660009081526020819052604090209082900390555b6001600160a01b03821661113357600280548290039055611152565b6001600160a01b03821660009081526020819052604090208054820190555b816001600160a01b0316836001600160a01b03167fddf252ad1be2c89b69c2b068fc378daa952ba7f163c4a11628f55a4df523b3ef8360405161119791815260200190565b60405180910390a3505050565b600060208083528351808285015260005b818110156111d1578581018301518582016040015282016111b5565b506000604082860101526040601f19601f8301168501019250505092915050565b80356001600160a01b038116811461120957600080fd5b919050565b6000806040838503121561122157600080fd5b61122a836111f2565b946020939093013593505050565b60008060006060848603121561124d57600080fd5b611256846111f2565b9250611264602085016111f2565b9150604084013590509250925092565b60006020828403121561128657600080fd5b61128f826111f2565b9392505050565b8035801515811461120957600080fd5b600080604083850312156112b957600080fd5b6112c2836111f2565b91506112d060208401611296565b90509250929050565b6000602082840312156112eb57600080fd5b5035919050565b60006020828403121561130457600080fd5b61128f82611296565b6000806040838503121561132057600080fd5b611329836111f2565b91506112d0602084016111f2565b600181811c9082168061134b57607f821691505b60208210810361136b57634e487b7160e01b600052602260045260246000fd5b50919050565b634e487b7160e01b600052601160045260246000fd5b808202811582820484141761059557610595611371565b6000826113bb57634e487b7160e01b600052601260045260246000fd5b500490565b8082018082111561059557610595611371565b818103818111156105955761059561137156fea26469706673582212209bc898495a96b4061db70e7e4ae435fad61babf044bb981aabc9ef218863b23664736f6c63430008140033",
  "linkReferences": {},
  "deployedLinkReferences": {}
}